:1000000010340020F1120000CB5F0000DD12000070
:10001000DD120000DD120000DD120000DD12000024
:100020000000000000000000000000005D1400005F
:10003000DD12000000000000F5130000DD120000DA
:10004000F5150000F5150000F5150000F515000088
:10005000F5150000F5150000F5150000F515000078
:10006000F5150000F5150000F5150000F515000068
:10007000F5150000F5150000F5150000F515000058
:1004C000F5150000F515000053B94AB9002908BF19
:1004D00000281CBF4FF0FF314FF0FF3000F00CB888
:1004E000ADF1080C6DE904CE00F012F8DDF804E07F
:1004F000DDE9022304B07047704700BF10F8012BFC
:1005000011F8013B012A28BF9A42F7D0D01A704750
:100510002DE9F04786468C460846089E15467446E7
:100520001946002B40F0C1808542B2FA82F245D9CB
:100530004AB1C2F1200300FA02FC954094402EFA21
:1005400003F343EA0C0C4FEA154EA8B2230CBCFB94
:10055000FEF80EFB18CC08FB00F943EA0C43994562
:1005600028D9EB1808F1FF3704D2994502D9A8F130
:1005700002072B44A3EB0903A4B2B3FBFEFC0EFB62
:100580001C330CFB00F044EA0344A04214D92C199C
:100590000CF1FF3304D2A04202D9ACF102032C4487
:1005A000241A43EA07401EB1D4400023346073602C
:1005B000BDE8F0874746DDE76346F1E792BB431BA2
:1005C00001214FEA154EAFB2200CB3FBFEFC0EFB2F
:1005D0001C330CFB07F840EA0343984561D9EB183C
:1005E0000CF1FF3004D2984502D9ACF102002B4443
:1005F000A3EB0803A4B2B3FBFEFC0EFB1C330CFB05
:1006000007F744EA0344A7424DD92C190CF1FF33F4
:1006100004D2A74202D9ACF102032C44E41B43EA02
:100620000040C0E7C2F120039540944020FA03F156
:100630002EFA03F34FEA154E9040AFB20343B1FBDD
:10064000FEFC0EFB1C10190C0CFB07F841EA0041E4
:10065000884522D969180CF1FF3004D2884502D9A7
:10066000ACF102002944A1EB08019BB2B1FBFEFCF6
:100670000EFB1C110CFB07F743EA01439F420ED906
:10068000EB180CF1FF3104D29F4202D9ACF1020108
:100690002B44DB1B41EA004193E76046E3E76146F8
:1006A000F7E76046A4E76346B8E7834206D916B980
:1006B000002108467CE7C6E900E0F9E7B3FA83F7D2
:1006C0008FB9834201D3724508D8BEEB020460EBB8
:1006D000030301209C461EB9002169E73846FAE76A
:1006E000C6E9004CF8E7C7F1200CBB400EFA07F54D
:1006F00022FA0CF42EFA0CF1BA401C4320FA0CF347
:10070000B8404FEA144901431FFA84FEB3FBF9F8DD
:1007100009FB18300B0C08FB0EFA43EA00439A451C
:1007200040D9E31808F1FF3004D29A4502D9A8F164
:1007300002002344A3EB0A0389B2B3FBF9F809FBD7
:10074000183308FB0EFE41EA03418E452CD961188F
:1007500008F1FF3304D28E4502D9A8F102032144E7
:1007600043EA0040A1EB0E01A0FB02984145CE46B2
:10077000434602D306D14D4504D20138B9EB020EEF
:1007800068EB0403002EA7D0B5EB0E0261EB03016A
:1007900001FA0CFC22FA07F3F9404CEA0303C6E91C
:1007A000003199E74046C5E74346D9E7F7B51B4C0A
:1007B000A568EB6B03BBEB6A23BB184F184DA3680E
:1007C0001B69EBB1012238460DF10701984701285A
:1007D00016D19DF807202B680A2A01D00D2A16D1C0
:1007E000002BECDD00260F49CE54002200230E48DA
:1007F00006F0B2F92E60E2E7204698470028DAD1E9
:1008000003B0F0BD054898470028D6D1F8E73E2B45
:10081000DFBF591C29600349CA54D0E7F8740000AF
:10082000F006002068220020280300202DE9F74F61
:10083000224E234FDFF88C8033784BB306F083FAD7
:100840004FF47A74A0FB0405002304FB015147F622
:100850001222FFF739FE4FF480793B681A4CDFF81B
:100860006CA0DFF86CB0C51A237C63B12368AB427F
:1008700009D823798BB92B465846A268617905F0CF
:10088000B7FA00232374B9F1010904F11404EBD180
:100890004FF4FA7006F0E5F9CEE7E3685046002B16
:1008A000CCBF0121002105F092F900954046D4E922
:1008B0000223617905F09CFAE3E700BFA82200203B
:1008C000F4060020D3800000F8060020387F0000E6
:1008D000B080000030B5052287B04549044606F0D7
:1008E0007CFCB8B906F02FFA4FF47A74A0FB04052B
:1008F00047F61222002304FB0151FFF7E5FD012218
:100900003C4B18603C4B3D481A7007B0BDE8304086
:1009100005F06EBA20463A49FFF7F0FD80B902466D
:10092000354B1870374B0130B0F5807F1A7403F1E6
:100930001403F8D13448002105F049F93348E4E7BD
:1009400023784D2B26D163783A2B1BD105AB00932E
:1009500020462F4904AB03AA04F00EFD032819D149
:10096000284A00231146107C70B914225343059C79
:10097000CA18CC509DF80C3010715371049B9360D1
:100980000123137407B030BD0133B3F5807F02F14A
:100990001402E8D12378532BF4D163783A2BF1D1A8
:1009A00005AB019304AB009320461A4903AB0DF14C
:1009B0000B0204F0E1FC0428E4D1124A00231146A2
:1009C000107C70B9142253430598CA18C8500123EB
:1009D0009DF80B1013715171039991600499D160C6
:1009E000CFE70133B3F5807F02F11402E8D1C9E704
:1009F00000810000F4060020A822002006810000EB
:100A000023810000F8060020387F000028810000C4
:100A1000368100004181000010B5162300243648BD
:100A20009AB008908DF82430ADF8264006F066F8AC
:100A300088B1BDF8262008989DF8241042F4D01201
:100A400005F0D9F8002143F6095003F049FA214690
:100A500008A805F0BCF8002147F6122003F040FA80
:100A6000264805F0C5F9264C204606F047F828B977
:100A7000244805F0BDF900201AB010BD224806F048
:100A80003DF808B92148F4E74FF4B0120D211E4893
:100A900005F0B1F8A3682BB11B6C1BB100222046F6
:100AA0001B499847A3681B6A0BB115489847002259
:100AB0000023CDE9062300230122CDE90133CDE94E
:100AC000032314494FF4806200931348134B02F040
:100AD00067FF134805F08CF9124C4FF0FF324FF0CE
:100AE000FF3320460AA902F06DFD0028F5D10AA8BF
:100AF000FFF7F0FEF1E700BFB87400004F8100007F
:100B0000F87400006F810000987400008D8100006F
:100B1000AD070000D0220020680300202D0800004F
:100B2000AF81000028030020014B1B68184700BF5D
:100B3000D0000020014B1860704700BFD00000209B
:100B400030B585B004460D4610220021684606F0F7
:100B50003CFB02238DF80230044B2A4621466846AE
:100B6000019304F029FC05B030BD00BF290B000043
:100B700080B505460E461746984603F003FA03462D
:100B800006F040FC0446DFF81890424649F8003071
:100B900039463046A84754F8090000F015FC00BF5C
:100BA000080000002DE9F047058B04462807904611
:100BB00011D4022905F0070540F0CC80204605F04D
:100BC00024F978B10138218B042811D8DFE800F02E
:100BD000C2106D85950001290CBF45F0100545F048
:100BE0002005258388F31188BFF36F8FBDE8F08758
:100BF00001F0070AAA4500F0A5800027B9463E4645
:100C0000A368002B00F0BC8041F00801218388F329
:100C10001188BFF36F8FA168002900F0BA800D68BA
:100C2000002900F0B680334652462046D1F80480B1
:100C3000C047002D76D02B6829461D46F0E701F00D
:100C400007035A1F012A1BD8002221F00701062B97
:100C5000276889B2C4E9002209D13B4603E0628BD0
:100C6000013262831B68002BF9D141F0020120465A
:100C7000218305F0CAF800287AD041F0200176E0FF
:100C8000042B0AD121F0070189B22046218305F007
:100C9000BCF810B141F020012183218B01F0070A3B
:100CA000AA454FD00027B946AAE7236921F00701DA
:100CB00041F00601062DD3F8009021832DD1B9F122
:100CC000000F3FD041F00801218388F31188BFF362
:100CD0006F8F20463949C84729E021F00701236971
:100CE00041F0040189B2042DD3F804902183E6D0A9
:100CF00000274FF0040A3E4682E721F007012369EE
:100D000041F0050189B2052DD3F808902183D6D092
:100D100000274FF0050A3E4672E700274FF0060A0B
:100D20003E466DE72B4687E7B9F1000FD1D1EFF3CF
:100D30001188202383F31288BFF36F8F238B23F056
:100D400008032383258BEA062ED525F01003238381
:100D500005F007056669218B002EBFF670AF0023F2
:100D60002768C4E9003321F0070141F00101218324
:100D7000218B4FF0000901F0070AAA457FF440AF2C
:100D8000002F9CD041F00801218388F31188BFF324
:100D90006F8F002FC8D03D683946334652462046F3
:100DA00005F05FF82F46F4E7AB067FF51BAF25F0A3
:100DB0002003238305F0070500E700BF8F5E0000D6
:100DC000014B036000207047407F000008B50448D5
:100DD00005F00EF8BDE80840024805F009B800BF6C
:100DE000D48100000982000008B50348034A0021AD
:100DF000121A05F0E2F808BD68030020D022002096
:100E0000074808B5074A0849121A05F0D8F8BDE89E
:100E100008400648064A0749121A05F0D0B800BF34
:100E20004000002068030020FC86000040000020F5
:100E300040000020FC86000038B505460C4699B1FC
:100E4000D1E901230F48096804F0D2FFD4E9042353
:100E5000E1680D4804F0CCFFE1690C4804F0C8FFDC
:100E6000A1690B4804F0C4FF012D05D1EFF3058102
:100E70000848103904F0BCFF21462846BDE8384038
:100E800002F008BA378200006782000097820000F3
:100E9000A7820000D682000030BFFFF7FDBF00BF71
:100EA0002DE9F04105460B4EDFF82C80324606EB6B
:100EB0000807CC1B2046094906F07AF9A0194246DA
:100EC0000021083C06F081F9C5F8B44007F108009C
:100ED000BDE8F0810000000004000000F87E000082
:100EE000054B5A699B689A421FBF044A536843F0F6
:100EF00080535360704700BFF81B002000ED00E0F6
:100F000010B5204C204804F073FFA36A990137D52F
:100F10001E4804F06DFF1E20A36ADA0103D51C48A9
:100F200004F066FF1F20174CA36ADB0203D51948A3
:100F300004F05EFF0220A36A1C0303D5164804F0E8
:100F400057FF21200F4CA36A590303D5134804F01F
:100F50004FFF2220A36A9A0303D5114804F048FFEB
:100F60002320084CA36ADB0303D50E4804F040FF9E
:100F70002420A36A6FEA03436FEA1343A36210BD00
:100F80001D20C9E700ED00E0EA82000003830000B5
:100F900017830000328300005D8300007C83000023
:100FA000A2830000BD83000070B5244C064624488F
:100FB0000D4604F01DFFA36AD90435D5214804F07D
:100FC00017FF1720A36A1A0503D51F4804F010FF66
:100FD00018201A4CA36A9B050FD51C4804F008FF83
:100FE000A16BA36A180407D5194804F001FF1EB1CC
:100FF000A36A23F40043A3621920104CA36A590585
:1010000003D5144804F0F4FE1A20A36ADA050DD5BE
:10101000114804F0EDFE1B20084A936A43F47F4315
:10102000936200232B7070BD1620CBE7A36A9B044C
:10103000F2D50A4804F0DCFE1C20EDE700ED00E0EC
:10104000E983000000840000128400002684000070
:101050004084000056840000728400008B840000ED
:1010600070B5264C064626480D4604F0C1FEA36A1C
:10107000D80640D5234804F0BBFE1120A36A190707
:1010800003D5214804F0B4FE12201C4CA36A9A0731
:101090000FD51E4804F0ACFE616BA36A1B0607D592
:1010A0001B4804F0A5FE1EB1A36A23F08003A362CF
:1010B0001320124CA36ADE0703D5164804F098FEED
:1010C0001420A36A9C0603D5134804F091FE152052
:1010D0000A4B9A6AD10658BF9A6A9A6A920642BF28
:1010E0005A6A22F400525A629A6A42F0FF029A62E5
:1010F00000232B7070BD1020C0E700BF00ED00E0A2
:10110000BB840000D2840000128400000685000029
:101110001F850000368500008B8400002DE9F0411A
:101120005B4B04465F6800258AB0C7F3080685F369
:101130001188BFF36F8F02F07F43B3F17F4F06D169
:1011400002F00C03082B13D1524804F051FE002585
:101150002C464FF00008F31E8DF80780092B00F293
:101160008580DFE803F00A797D758383838383813B
:1011700010074CBF0C460125EBE74748444E04F0EE
:1011800037FE8DF80780F36A9A0704D5434804F0C8
:101190002FFE00232FE0F36A002B01DA4048F6E728
:1011A000F36A5B00F5D53F4804F022FE7369A2693B
:1011B00043F480737361BFF34F8FBFF36F8F736915
:1011C00032F8022C23F480737361BFF34F8FBFF3A7
:1011D0006F8F4DF602739A4208D0B36ADBB24BB3FD
:1011E00001200DF10701FFF73BFF33E021682E4896
:1011F00004F0FEFD23689DF80720C2B902AE04F199
:101200002007324620686168083403C2BC42164693
:10121000F7D1099AB5B3C2F3080121B96FEA522296
:101220006FEA42220992184602A9FFF705FE0AB0AA
:10123000BDE8F081B36A13F47F4F05D001200DF1B2
:101240000701FFF7B1FE05E0B36AB3F5803FA0D315
:10125000FFF756FE0346CEE700200DF10701C2E777
:1012600000200DF10701ECE7104890E7104B17F450
:10127000F87F1049104818BF1946A6F1100204F073
:10128000B7FD86E722F4FF7222F00102CAE700BF31
:1012900000ED00E084850000B0850000C8850000F6
:1012A000EA850000F98500001986000036860000F6
:1012B0006B850000568500005B860000064B5A696E
:1012C00042F010025A615A6942F480625A615A69C6
:1012D00022F008025A61704700ED00E0EFF3088049
:1012E000EFF3098101B57246FFF718FF01BD00BF9A
:1012F000002080F31488BFF36F8F002080F30A88EA
:1013000080F30B88104880F3088800200F4908708C
:1013100001F048F900200E490860BFF34F8F00F03C
:101320002DF8202080F311880A484FF400614018FE
:1013300080F30988EFF314800221084380F31488B6
:10134000BFF36F8F00F0F0F810340020CC220020A3
:1013500094ED00E0D0260020002318460649D1F87D
:101360009020C2F30722934200DB7047C1F8983007
:10137000C1F8A0000133F6E700ED00E010B572B649
:10138000002484F31388FFF7E7FF23464FF0FF3074
:101390000C4A03F120010133102B42F82100F8D14F
:1013A00000234FF0FF30074A03F160010133102B97
:1013B00042F82100F8D162B6BFF34F8FBFF36F8FB1
:1013C00010BD00BF00E100E0084B9B6883420BD1D9
:1013D000EFF3058343B1064B5A6842F080525A60DE
:1013E0005A6A22F400425A6202F0D2BDF81B002071
:1013F00000ED00E016498A684FF030001044EFF32A
:10140000098C80E8F01F202080F31288BFF36F8FD3
:10141000104F4FF000664A698A603E60D2F8B4000F
:101420000D4C2060D2F8B8000023C2F8B83080F329
:10143000118802F1300090E8F01F8CF3098802F166
:10144000000004B504F0CCFDBDE804407047000086
:10145000F81B002004ED00E0F81A00201EF0040F35
:101460000CBFEFF30880EFF30980816911F8021CCB
:101470000229FFD001B5724604F0A3FD01BD00BFF3
:1014800000B2002807DB01234109034A00F01F00D6
:10149000834042F82130704700E100E000B20028AC
:1014A0000CDB01220649430900F01F008240203373
:1014B00041F82320BFF34F8FBFF36F8F704700BFFA
:1014C00000E100E0054B420953F82220012300F01F
:1014D0001F0003FA00F01040704700BF00E100E079
:1014E00000B2002801F10101ACBF00F16040064BE1
:1014F0004FEA4111C9B2ABBF00F5614000F00F00E7
:1015000080F800131954704714ED00E0044B054AAD
:1015100023F07F039360BFF34F8FBFF36F8F70474C
:101520000000000000ED00E008B5FFF7EFFF074AFC
:10153000D2F8883023F47003C2F88830FFF754FCE7
:10154000FFF75EFC00F048F801F06CFF00ED00E0F2
:1015500042F8203C009B0B4942F81C3C019B21F0C7
:10156000010142F8183C029B42F8081C42F8143C66
:101570004FF0807342F8043C0023203A0265C0F823
:10158000B8307047710B000000B50E4B15469860DF
:10159000D0F8B4200C4B0E461A60D0F8A43083F378
:1015A0000B882C4686F309880020044B9847204678
:1015B000002100220023024C20470000F15F0000C0
:1015C000710B0000F81B0020F81A00201022014BBC
:1015D0001A61704700ED00E0002320210448C21882
:1015E0000133B3F5917F82F80013F8D1704700BF43
:1015F00000E100E008B5EFF30583064A103B02EB7B
:10160000C30152F8330049688847BDE80840FFF736
:1016100067BC00BF187500001FB5094C094A234676
:101620000121094800F0FAF800230393074B012138
:10163000E41A01A80193029400F0FAF804B010BD76
:1016400000FC072000000020407F0000680300200D
:1016500010B50C7A0B6804F01F0223F01F031A4325
:10166000CB68640923F01F03054943EA440343F0B0
:101670000103C1F89800C1F89C20C1F8A03010BD4A
:1016800000ED00E010B5074BD3F89030C3F307230B
:10169000013B984202D8FFF7DBFF10BD6FF0150049
:1016A000FBE700BF00ED00E02DE9F04F0F461446C8
:1016B00006464FF000084D4D85B0B84580F2928047
:1016C000D6F80490B9F1000F36D0B9F11F0F40F2EF
:1016D000878019F01F0F40F08380D6F800A01AF021
:1016E0001F0F7DD1504604F0A6FC834609EB0A008B
:1016F000013804F0A0FC834572D11BF1160F6FD0A6
:101700005C456DDDC5F898B0D5F89C10C5F898B06B
:10171000D5F8A03021F01F0143F01F0AD6E90032AE
:101720001A44994202F1FF391ED1CA4508D1314607
:101730005FFA8BF004F088FC08F101080C36BCE776
:101740003146C5F898B0D5F89C3022F01F0203F05E
:101750001F031343C5F89C30E0B204F075FC10F190
:10176000160F3DD0441CE7E7C5F898B0D5F8A02087
:10177000013B23F01F0302F01F021343CA45314609
:10178000E0B2C5F8A030E8D004F05EFC10F1160F0E
:1017900026D0C5F898B0D5F89C209DF808300AF1FD
:1017A000FF3A62F304038DF80830D5F8A0309DF8B5
:1017B00008205B0863F347128DF80820D6E9003251
:1017C0001344009323F01F035344A3EB0903013098
:1017D00023F01F036946C0B20393FFF753FFBEE730
:1017E0006FF01504204605B0BDE8F08F00ED00E075
:1017F0000522044BC3F89420BFF34F8FBFF36F8FC4
:10180000704700BF00ED00E0BFF35F8F0022024B86
:10181000C3F89420704700BF00ED00E010B5034C02
:101820002278FFF741FF207010BD00BFA9220020E1
:101830002DE9F74F294D8A4606464FF00008AB4682
:10184000274FD0451BDAD6F80490B9F1000F3FD0EE
:1018500031680846019104F0EEFB0199044609EB5A
:101860000100013804F0E7FB84424FF014021D4BE5
:1018700008D002FB08F36FF015024BF8032003B009
:10188000BDE8F08F14F1160F2C60F8D01978A14242
:10189000F5DD02FB08B0C7F89840C7F89840D7F8C4
:1018A0009C4000F10801007B64F304000871D7F844
:1018B000A0000C79400860F347140C71D7F89C1015
:1018C00021F01F016960D7F8A01021F01F012961E4
:1018D00008F1010814350C36B3E700BFFC1A0020EC
:1018E00000ED00E0A9220020F0B54149414CD1F8BB
:1018F00090302568C3F307239D4287B075D8002038
:10190000FFF782FF3C4BC1F8C030854216D13B4CFB
:1019100001A82570FFF754FA00250646384FAE425D
:1019200013D1002023783249D1F89020C2F3072246
:10193000934254DBFFF75CFF00202FE0616801EB6E
:101940000011FFF785FE0130DFE70199280101EB67
:101950000513DA683A40B2F5001F21D0B2F5800FC6
:101960002BD0B2F5801F38D15A689B680958013BCB
:1019700022F01F0003440120844623F01F0340EAA5
:101980004C10CDE902218DF8100002A920780593B2
:10199000FFF778FE00281DDA6FF0150007B0F0BDE4
:1019A0005A689B680958013B22F01F0003444FF01E
:1019B000020C012023F01F03E1E75A689B680958D5
:1019C000013B22F01F0003444FF0000C062023F0DF
:1019D0001F03D4E723780133237001359FE7C1F853
:1019E0009830C1F8A00001339EE74FF0FF30D5E7F3
:1019F00000ED00E04C7F0000AAFF4400A922002077
:101A00000000F0FF08B5024B1B689847002008BD96
:101A1000101B0020034B044A1860937843F0020324
:101A200093707047101B0020D400002008B50549B2
:101A3000054A21F007010548521A04F07FF90020F9
:101A400008BD00BF173C002000FC0720141B00202D
:101A500008B5234A234B1A6000F05EF84FF47A6110
:101A60002148D0F82436C3F30802C3F309434B439B
:101A700082F480721D49883201FB02334FF4FA214F
:101A80005B00B3FBF1F201FB12331949B3F57A3F66
:101A900028BF0132C1F80429D0F820364FF47A600B
:101AA000C3F30802C3F30943434342F21C5082F4D8
:101AB000807202F2172200FB02334FF47A701B0A85
:101AC000B3FBF0F200FB1233B3F5FA7F4FF00103E2
:101AD00028BF0132C1F81C27C1F80036002008BD1C
:101AE0000020A1077802002000C0FF00F82A008033
:101AF0000000125048B1054B054A1B68B3FBF2F3D6
:101B00005843044B43F00103184770477802002004
:101B100040420F00207F00000122024BC3F8042442
:101B2000704700BF002008E0084B70B5C31A0D468F
:101B300007499B10044659434022064804F0ABFA7B
:101B40002B4601462046BDE870401847341B002054
:101B5000B76DDBB678740000402373B50B4C00936F
:101B6000041B0B460D460A49A41061430646094A68
:101B7000094804F0BCFA011E05DA30462B4602B0D3
:101B8000BDE87040184702B070BD00BF341B002094
:101B9000B76DDBB659610000787400002DE9F0479D
:101BA0000022012107464FF48770FFF799FC124885
:101BB00000F06EFD0446D0B900F094FD25464FF0CC
:101BC0001C0A4FF00C08DFF834903E6949460AFBC6
:101BD000056004F069F9031E0CDB012308FB0566B0
:101BE0001D44032DF365F0D12046BDE8F0876FF06A
:101BF0000404F9E71C46F7E785610000747F0000E4
:101C00001FB500220123CDE902236B46084ACDF817
:101C100000D0CDF804D004F098FA002805DB43F694
:101C200009520023684601F02DFE05B05DF804FB63
:101C30007761000010B5EFF31184202383F312883D
:101C4000BFF36F8F074A136823F00201DB071160AF
:101C500002D4012004F0E2FC84F31188BFF36F8FFB
:101C600010BD00BFAC1B00200C22104B014602FB34
:101C70000033002030B4D3E915525865EFF31180DA
:101C8000202484F31288BFF36F8FDC6D04F0C0044E
:101C900044F00204DC6580F31188BFF36F8F1DB13F
:101CA0002B4630BC0248184730BC7047341B00201C
:101CB0007874000010B4EFF31182202383F31288AC
:101CC000BFF36F8F1648016841F002040460C80733
:101CD00007D482F31188BFF36F8F012010BC04F08A
:101CE00091BC1049D1F80C14C903F2D5EFF311805F
:101CF00083F31288BFF36F8F0B49CB6D03F0C003E2
:101D000043F00203CB6580F31188BFF36F8F82F33A
:101D10001188BFF36F8F002010BCFFF7A5BF00BF75
:101D2000AC1B002000E01050341B00202DE9F041D6
:101D3000012207463449D1E8EF3FC1E8E02F0028EF
:101D4000F9D133B9314932484B60CB608A6004F035
:101D5000BEF87B1E012B28D8012F06D12D4BD3F8BE
:101D6000503403F00303012B1FD004F004FF054699
:101D7000E8B9294B1B78D3B104220646254BC3F89A
:101D80000823244CDFF89480D4F84C24D4F84C3445
:101D9000D20315D503F00303012B01D0012F0FD17E
:101DA0006DB386F31188BFF36F8FBDE8F081EFF359
:101DB0001186202383F31288BFF36F8F0125E0E79C
:101DC000C5B1304604F028F9D4F8403413F0FF03CD
:101DD000DAD1D4F80821002AD6D0C4F80831D4F8D2
:101DE00008314FF480420123C4F84034C8F8A021E0
:101DF0002361C9E70021202002F072F8E4E7042201
:101E0000044BC3F80423D0E7301B0020201B002024
:101E1000501B002000E01050CC22002000E100E028
:101E200008B5074804F06AFE38B10648FFF7F2FD2E
:101E30000448FEF77FFE002008BD6FF01200FBE7AC
:101E4000F8740000491E00000A2838B50446074D02
:101E500004D1AB680D2128465B689847AB680348FE
:101E60005B68E1B29847204638BD00BFF8740000B7
:101E70002DE9F04340F206354768D00648BF4FF0E1
:101E8000030C3B7C02EA050558BFC2F3401C87B037
:101E900001F01F06B5F5837F144646EA43168DF818
:101EA00003C046D00DD8062D45D005D8A5B1022DCA
:101EB00012D06FF0150039E0B5F5807FF9D101251A
:101EC0000AE040F20222954237D0B5F5407F36D085
:101ED000B5F5007FEDD104250123220303FA01F1BA
:101EE0002FD57B685960B86880BB7F2E06F01F0332
:101EF0004FEA561173D83C4A52F8212084F48031BD
:101F000002EB8302D2F88030C1F30041C4F34044B5
:101F100023F4706344EA410423F00F031C4344EAB2
:101F20008C0444EA0524C2F88040002007B0BDE8D4
:101F3000F0830925D0E70825CEE70625CCE705255F
:101F4000CAE7630344BF7B689960CCE731460DF173
:101F5000020204F045FD14F4403F80460CD13146A6
:101F6000B86804F056FDB8F1000FDED19DF80210FC
:101F7000B86800F0A9FED8E74FF0000901ABCDE941
:101F80000199CDE90439CDF80C903146B86803AA1F
:101F900004F06AFC4845C8DB14F4003314D09DF803
:101FA000033084F48034C4F300448DF80E308DF88F
:101FB0000C508DF80D404B463146B86803AA00F02E
:101FC000D1FD0028CFDAB0E7CDE904330DF10303EA
:101FD00003933146B86803AA04F046FCF1E72033C6
:101FE00050F82330FFDE00BF987F00004209022A2C
:101FF000034670B503D0012A18D0CAB170BD0E4E89
:10200000326951680029F9D0012503F01F030C68DB
:102010009D400029F2D08A682A4002D030464B68A1
:1020200098473CB1236821461C46F2E7034EE7E798
:10203000034EE5E72346F6E7D8740000B8740000C5
:102040009874000038B54568A868C0B104F0DBFC9E
:102050000146A0B9A86800F0FFFD044688B9024611
:102060000949A86804F0B9FC22460121DB20FFF7EA
:1020700037FA2246012140F20D10FFF731FA002015
:1020800038BD6FF00400FBE7ED1F0000F0B54568B8
:102090001646A8682A7C01F01F0487B044EA42145F
:1020A000002868D0B6F5001F04D1214604F005FDD4
:1020B000002051E00020B6F5800F01AA0190506089
:1020C00039D1B3F1007F14BF052304238DF8043008
:1020D0000023CDE904230393EB680DF1030723FAF2
:1020E00001F111F0010139D1B6F1A07F36D104F030
:1020F0001F037F2C4FEA541003F120033ED8214ADE
:1021000052F8202052F82330DB0727D43A462146E4
:10211000A86804F065FC163018D002972146A8681C
:1021200003AA04F0A1FB002816DB01222146A868BF
:1021300004F071FCBCE7B3F1C06F05D0B3F1007FD0
:1021400014BF01230223C1E70323BFE73946A86870
:1021500000F0C4FD0028E0DA07B0F0BD3A462146A1
:10216000A86804F03DFC0028D8D19DF80310A868A9
:1021700000F0AAFDD2E76FF08500EDE751F82330BB
:10218000FFDE00BF987F0000036803F01F027F2B73
:1021900002604FEA53129ABF024B53F8220000200C
:1021A000704700BFE47F00002DE9F04F1546074659
:1021B00040F2FF19DFF868A1DFF868B185B000EBE5
:1021C0008101B94203D1002005B0BDE8F08F3A6823
:1021D000C2F3C323082BC2F3080400F29E804C45CF
:1021E00008BF4FF0FF34B2F1D05F1AF803804FEA16
:1021F000126310D2192B12D8DFE803F014226461A5
:10220000292F611111111111111111111111111138
:10221000111167717477382B6AD04E2B52D06FF042
:102220008500D1E7C5F80446601C14D0012603A838
:102230000394FFF7A9FF039B06FA03F3436004E04E
:10224000C5F80C46621C06D00026324613E0631C1B
:10225000C5F800465FD10437B3E7661CC5F80446ED
:10226000F9D0012603A80394FFF78EFF0122039BF8
:1022700002FA03F383603B68039403F400400028F0
:1022800018BF002203A818BF012601930092FFF790
:102290007BFF039C019B00EB8400D0F88040C3F3DC
:1022A000412C009A4FEA082343EA8C03134304EAC3
:1022B0000B04234343EA4603C0F88030CBE7C5F85C
:1022C0000846BFE7C5F81046AEE7C5F86045621C92
:1022D0003B68C0D0C3F30043002BC2D0A6E7C5F8CB
:1022E0006445F4E7C5F86845F1E7C5F86C45EEE7E5
:1022F00003A80394FFF748FF039B00EB8300D0F88B
:10230000803023F0E04343F08043C0F88030631C0A
:10231000A1D0012699E70026A4E76FF0150053E746
:10232000AD860000F0F0FCFF2DE9F04104460D46BB
:10233000476804F020FCA0B9274B1B788BB14FF005
:102340002008642663681B68D3F830318BBB0120FA
:1023500004F021F9013EF5D10021202001F0C0FD5B
:10236000EFE72021EFF311831A4681F31288BFF3C0
:102370006F8F60680068D0F8300120B983F311884E
:10238000BFF36F8FEEE77B6A00201D706368796A88
:102390001B68C3F83C170121C3F84017C3F830018C
:1023A000D3F83001196582F31188BFF36F8FBDE850
:1023B000F081EFF311831A4688F31288BFF36F8F11
:1023C00061680968D1F830110029DCD183F31188E4
:1023D000BFF36F8FC0E700BFCC22002070B40D4C5C
:1023E000D4E90065901B63EB0501400940EAC16038
:1023F0004101891945EBD065C4E900150024002589
:102400000549C1E90023054BC3E9004570BC01F053
:10241000C7BF00BF48040020300400204004002053
:1024200008B500220121E420FFF75AF8164A0020DF
:10243000D2F8183723F44033C2F8183700F082FD81
:10244000002820DB0120114900F008FE00281ADBDB
:1024500000F050FD0E4B20F01F00C3E900010D4BB2
:102460000022C3E900014FF0FF304FF0FF310A4B6B
:10247000C3E90001094B0A49187A00F04DFD6722B3
:102480000020084B1A6008BD00200E507402002086
:102490004804002028040020300400206C020020A2
:1024A000DD230000D41B002008B500F023FD064A00
:1024B000D2E90032C01A054B61EB0201C3E9000109
:1024C000400940EAC16008BD4804002040040020E3
:1024D000F7B5224B0146224F187A224BD7E9005616
:1024E000D3E900239E4208BF954211D1B1F1806F1C
:1024F0000ED24901012938BF012101224D1946F1AF
:102500000006C7E9005603B0BDE8F04000F03EBE4B
:10251000154BDFF858C0D3E90043DCE9002CA418C0
:1025200043EB0C0C4FF0200E22466346C1FB0E23FA
:10253000954276EB0301C7E900230DD2291B66EB18
:102540000C04C82974F10004B4BF012100210091DA
:1025500000F0E4FD03B0F0BD0021F8E76C020020BC
:1025600038040020300400204804002040040020EB
:1025700003689A070CD50368DB070DD50922074BC2
:10258000C3F80C250F22C3F8042501221A60FEE7C8
:10259000034B0360EF3B0360704700BF00801050A7
:1025A000F000FA5008B501232C4A2D48C2F8003833
:1025B000A2F55722D2F800242A4AD2F84023292A29
:1025C00004BF294AC2F80C34FFF7D2FF0830FFF7E6
:1025D000CFFF0830FFF7CCFF0830FFF7C9FF00F549
:1025E000F470FFF7C5FF214AD2F88C3043F4406302
:1025F000C2F88C300022D30003F57F0303F540437B
:10260000D3F8001401310AD0D3F8001439B1D3F84B
:1026100000140132D3F80434402A0B60EBD1144B80
:10262000D3F80026D20713D40021124A0F48C2F86B
:102630001815D0F88C3043F44063C0F88C30C2F8E1
:10264000A015A2F5A042D2F80034012BFBD008BDA2
:102650006FF00102C3F80026E6E700BF0000125049
:1026600000F50E5000C0FF000030055000ED00E006
:1026700000E0105000E00450014B1B68184700BFF9
:10268000D81B0020014B07201B681847D81B0020CF
:1026900010B5104C2379D3B9012323710E4B0028B8
:1026A000206018BF184600F0FDF890B923680B4869
:1026B000002B08BF184600F041F850B923680848BD
:1026C000002B08BF1846BDE8104000F081B96FF03C
:1026D000770010BDD81B002079260000016600009D
:1026E0008526000008B5074B1B6853B14FF487706F
:1026F000FEF7E8FE28B9BDE808404FF48770FEF702
:10270000BFBE08BDD81B002038B504230A4C42F2D6
:102710001075C4F80833012363610023C4F808313D
:10272000D4F80831D4F84C34DB0304D5012003F08D
:1027300032FF013DF6D138BD00E01050064A137952
:102740003BB9012110601171044A1846C2F84034A7
:1027500070476FF077007047E01B002000E01050DA
:1027600010B51D4B1D4CD3F84C14D3F84C2411F468
:10277000803F18D002F00302012A03D00AB1FFF70C
:10278000C3FF0022144BC3F840240022C3F80821E1
:10279000D3F8082101221A61226872B9D3F80821FE
:1027A000002AFBD011E0D3F84824D107E9D5D3F8AB
:1027B00050249207E3D422681AB10422C3F80423F8
:1027C00010BDD3F80821002AFBD00022C3F808214D
:1027D000D3F80831F4E700BF00E01050E01B002000
:1027E000F8B50125184C194ED4F80C3303F00C033E
:1027F00003B9F8BDB3FA83F30027C3F11F039A00AE
:1028000002F5807292B202F1A04202F587121760BF
:1028100005FA03F1022B1268D8B2C4F8081310D1DC
:10282000D4F84C34D4F84C349B070AD10423C4F8B0
:102830004054C4F804332561D4F80C3303F00C037E
:10284000D6E733689847F7E700E01050E01B002018
:10285000712238B5104B0021C3F80823012242F23F
:1028600010745A60C3F80011D3F800110B490A4DD7
:10287000D1F84013292908BFDA60D5F80C3413F4D5
:10288000803305D0012003F086FE013CF5D138BD30
:10289000034A5371FBE700BF00E0105000C0FF0087
:1028A000E81B0020054B0246187918B91A6001226E
:1028B0001A7170476FF07700704700BFE81B002067
:1028C0000022164BC3F81021D3F81011C3F81821B9
:1028D000D3F81811C3F81421D3F814111049D1F802
:1028E0004013292904BF01219960C3F80021D3F8BE
:1028F000002101221A600B4A126852B9074BD3F823
:102900000021002AFBD00022C3F80021D3F80031B7
:1029100070477122C3F80423704700BF00E01050D5
:1029200000C0FF00E81B0020F8B50126194C1A4D25
:10293000D4F80C3303F0710303B9F8BDB3FA83F391
:102940000021C3F11F039A0002F5807292B202F1D6
:10295000A04202F58712116006FA03F7042B1268F1
:10296000D8B2C4F8087308D0062B10D02B6898474B
:10297000D4F80C3303F07103DEE702236B71C4F863
:102980001411D4F814312023C4F80433EEE769712C
:10299000ECE700BF00E01050E81B002038B58023B2
:1029A0000A4C42F21075C4F808330123A3620023D5
:1029B000C4F81C31D4F81C31D4F86C34DB0304D5D2
:1029C000012003F0E8FD013DF6D138BD00E01050D4
:1029D000054B0246187918B91A6001221A7170471E
:1029E0006FF07700704700BFF01B002000220C4BF7
:1029F000C3F81C21D3F81C2101225A62094A12682B
:102A00001AB18022C3F804237047D3F81C21002A8E
:102A1000FBD00022C3F81C21D3F81C31704700BF43
:102A200000E01050F01B0020094BD3F804231206DD
:102A30000DD5D3F81C2152B10022C3F81C21D3F8C4
:102A40001C218022C3F80823024B1B6818477047DB
:102A500000E01050F01B0020036803F01F027F2BE2
:102A600002604FEA53129ABF024B53F82200002033
:102A7000704700BF5C800000034A4309D35C00F04C
:102A80001F001844C0B27047C1860000F0B58446EC
:102A9000002587B0DFF848E0124F019102AE1EF822
:102AA000013B06AA02EBD30212F8144C03F0070311
:102AB000DC4014F0010406D10135042DEFD10024CF
:102AC000204607B0F0BD97E80F0086E80F0056F8E3
:102AD0002520136A4CF825301362002BECD0EFE769
:102AE000D1860000007F0000F7B504460846FFF7D6
:102AF000C3FF06B204EB4606B38A0D46DB072BD5AF
:102B0000204603F08EFE2946204603F0FAFD58B118
:102B1000204603F00CFE0022276800B207EB80037A
:102B2000C3F81025C3F810252946204603F028FED7
:102B3000002101A8B1820195FFF78EFF019B00EBF8
:102B40008300D0F88020064B134043F00203C0F806
:102B50008030084603B0F0BD6FF01500FAE700BF03
:102B6000F0F0FCFF2DE9F043044685B00846164618
:102B70001D46FFF781FF0F46804636B3204603F01F
:102B8000CBFD18B9204603F0BCFD28BB0FFA88F92D
:102B900004EB4909B9F8143013F01C0F02D0737814
:102BA000012B19D001238DF80F3000233846CDE9D1
:102BB0000063721CB31C0DF10F0103F04AFDB9F85C
:102BC000143043F00303A9F81430002D40D03946E7
:102BD000204603F0A1FD20B96FF0150005B0BDE857
:102BE000F0830022297823684FEA810C03EB8103EC
:102BF000C3F81025C3F810250FFA88F204EB42023F
:102C0000938A23F4604323F0200393826E78FEB10D
:102C10002468A8786444D4F810550E4B36042B4031
:102C2000C4F8103541F6F07306F4403603EA071392
:102C30000005D4F81055334300F4801003432B43B0
:102C4000C4F81035938A43EA413343F0200393825A
:102C50000020C3E70FE0ECFF70B590F8B0400546E8
:102C600090F8B1604CBB84222146143004F0ADFAD8
:102C70002146134A2B6852F836608E4213D1002445
:102C800040F20D10C3F84441D3F844210D4A934259
:102C900008BFDB20FEF7F4FB0123204685F8B030A7
:102CA000C5F89C3070BDCAB2920002F58070442A0B
:102CB00004BF1C501A580131DFE76FF07700F1E7CD
:102CC0006C80000000A00D5090F8B100024B03EBA7
:102CD000800003F07CBC00BF7C02002010B5064BD6
:102CE00090F8B1000C4603EB800003F056FC00287E
:102CF000A4BF2070002010BD7C0200202DE9F04F01
:102D0000814659F8043B8DB0D3F8141390F8B140C4
:102D100000936C4BC9B241F40031804653F8342023
:102D2000009803F057FD810305463BD51022002192
:102D300008A804F04AFA634B08A803EBC4035B68D5
:102D400019460193FFF7A2FE042303EBC403039388
:102D50004FF0000B5C4B0DF1200A0293029A594987
:102D600012F8013B0292039A02EBD3028A5C03F051
:102D7000070322FA03F3DA071AD40BF1010BBBF1B4
:102D8000040F0AF1040AE9D14FF40031002200983F
:102D900003F020FD019908A8FFF778FE0028D7D19D
:102DA00025F400350124002D75D10DB0BDE8F08F5C
:102DB000464B5B440493DAF800100029DDD091FA09
:102DC000A1F1B1FA81F1049B1C7841EA4414204638
:102DD000FFF752FE08EB4000878AC808BB0805933E
:102DE00001231AF8002001F0070103FA01F122EA99
:102DF00001020AF8002007A80794FFF72DFE079AA2
:102E0000059B203250F82220C7F382065B07374625
:102E1000C2F3014223D54846D6B221463A4603F0D2
:102E200090FC07A80794FFF717FE079B203350F884
:102E30002330C3F301439E4207D10021204603F013
:102E400051FC3146204603F04DFC07A80794FFF7DC
:102E500003FE0122079B02FA03F30362ABE7022A97
:102E60000DD10321204603F03DFC06F00503012BA4
:102E7000EBD13A462146484603F063FCE5E70221E0
:102E80002046059203F02EFC032EF2D0059A032A69
:102E9000DBD1022EECE795FAA5F3B3FA83F30099A0
:102EA00004FA03F225EA020503F5A27251F8222082
:102EB00008EB43034846B3F8A010C2F3014203F005
:102EC00040FC70E76C800000D1860000D1860000D5
:102ED000074B027AD3F8101521F001010A43C3F819
:102EE00010250268C3F8A4264268C3F8AC267047D0
:102EF00000200E504FF0FF306FF0404130B5054CD0
:102F0000D4E90023904271EB0305F9D31046C3F3D3
:102F1000130130BD40270E5030B50C25074B1C184F
:102F200094F8544005FB0433C3E9031218750123D8
:102F3000034A8340C2F8243330BD00BF4000002064
:102F400000200E50F0B53D4D85B02C78002C6FD18F
:102F50003B4A01AB07CA83E807003A491846D1F853
:102F6000102522F00202C1F81025FFF7B1FF072358
:102F7000672202F001012144013BCCB24FEA520228
:102F8000F7D1052C57D119464FF0010C2B4E0024D8
:102F90006720CFB204E00CFA02F220EA020001340A
:102FA00090FAA0F25FFA84FEBE45B2FA82F2F2D342
:102FB0000131327505292A4482F8547006F10C0655
:102FC000E5D10121002420489A0801FA02F212F00A
:102FD000670F18BF1C500433302BF5D1E420FEF7E7
:102FE0004FFA184B1949D3F8102503F5C07322F096
:102FF0000202C3F8902340F6FF72C3F8A821002212
:103000001A60A3F5807004338B420260F8D101246A
:103010000C4B0F4A1C660F4B5D201B68B3FBF2F391
:1030200058430D4B2343984700202C7005B0F0BD4A
:103030006FF07700FAE76FF08B00F7E740000020B1
:10304000107F000000200E5000210E50B0210E50C5
:1030500040420F0078020020307F000073B52B4CF7
:103060000546636801A803F001030E46019303F0CF
:1030700094FA00283FDB002320753370636823F047
:1030800001036360A36843F00103A360204BD3F8FE
:103090001025900733D4D3F8102542F00202C3F86C
:1030A0001025C5B1D3F8482712F0010202BFD3F8AA
:1030B000481741F00101C3F84817154BD3F84017E2
:1030C000D3F844174900F9D42AB9D3F8482722F095
:1030D0000102C3F848270F4B0F4A1B68B3FBF2F3FA
:1030E0000B4A03EB43136BB1D2F84017D2F84407F5
:1030F00010F0804001D102B070BD013BF3E76FF0EA
:103100007700F8E76FF07300F5E700BF400000209C
:1031100000200E507802002040420F0070B51D467E
:103120001446184A9DF81060131893F8543000B2F2
:103130000C3302EBC30142F833404D60C5F3130179
:10314000AEB10201104E02F1A04202F562228000EF
:10315000C2F820450644C2F82415336833B1FFF79E
:10316000C9FEA042A94101D20023336070BD030112
:1031700003F1A04303F56223C3F82045C3F82415E7
:10318000F4E700BF4000002000210E50F0B50E4DC6
:103190002B1893F8543000010C3355F8334005EBED
:1031A000C3077E68641800F1A04021F0004146F199
:1031B000000641EAC27100F5622045F833407E60A6
:1031C000C0F82815F0BD00BF40000020F7B5284B1F
:1031D000284CD3F82C6304F188070EB903B0F0BD76
:1031E00096FAA6F00123B0FA80F08340DA43224930
:1031F00026EA0306231893F85450830019440C233D
:1032000003FB0543DB6873B3D7E8EF3F03EA020C27
:10321000C7E8EECFBEF1000FF6D1C340DB0719D5EA
:10322000020102F1A04202F56222D2F82435D2F85E
:103230002025D1F800C0BCF1000FCED04FF0000C1B
:10324000C1F800C00C2101FB054529690091E9681E
:103250008847C2E705F10C0304EBC30C54F8332094
:10326000DCF80430E5E70A68002AB6D00B60B4E762
:1032700000200E504000002000210E50044B40EA78
:103280000120C3F80005D3F80024D207FBD570470E
:1032900000E0045038B5EFF31185202383F3128842
:1032A000BFF36F8F064B9C6803F03BFC85F31188DE
:1032B000BFF36F8F2046BDE83840FEF785B800BFEA
:1032C000F81B002038B50A4B53F82040013053F862
:1032D0002050A54200D838BD606830B1037FDB07BD
:1032E00001D403F0F3FB0834F3E723689847FAE7C7
:1032F0007C800000012270B5294B032086B01A7033
:10330000FFF7E0FFFDF762FD0420FFF7DBFF254C30
:10331000254D2646AE4204F1300410D300F010FDD6
:10332000204C224EAC4226D300F01EFDFDF774FB6C
:103330001F4A137B23F00103137306B070BD54F8CA
:103340000C3C059354F8103C049354F8143C03933C
:1033500054F8183C029354F81C3C019354F8203C58
:10336000009354E90A2354E90C0100F0B1FA54F82F
:10337000303C5E65CDE7D4E90A23B3F1FF3F08BFD7
:10338000B2F1FF3F05D052EA0301206803D100F0FB
:10339000D5FD3034C6E73146183000F071FFF8E74C
:1033A000CC220020287E0000287E00005B6C0000FC
:1033B00010050020C02370B5144E86B003FB0066D4
:1033C000134B012205930F23CDE903320023CDE9EE
:1033D000013314234FF4A0720E4D0F4903FB005527
:1033E000044602FB00110D4B3046009500F070FAC8
:1033F000737B2C7423F004037373094B013403EBC8
:10340000C423EE606B6006B070BD00BF50040020A6
:10341000D5860000F81B0020D02E0020296B00006C
:10342000D0260020BFB50020FFF74CFF284B03F546
:10343000006282F3088883F30A880024E023254D84
:10344000254F85F82230EC772C766C76AC7685F8B3
:1034500020406B6A43F4E0236B6285F82340FDF75C
:103460002DFFFEF7B3F84FF0FF33AB62EB62FEF7D0
:103470003BFAFEF7D1F8194800F0BEFA0120FFF739
:1034800021FF0220164DFFF71DFF00F0A1FC154B98
:1034900015495D61154B4FF4806205930123284661
:1034A000CDE90343CDE901443B46009400F010FA16
:1034B00006466A7B284622F004026A7303F09BFBEF
:1034C0002046FFF777FF3A4631462846FEF75CF87C
:1034D000D026002000ED00E0F5320000D0050020ED
:1034E00010050020F81B002010300020DA860000B4
:1034F0002DE9F34104460E469DF8200004F108082A
:10350000EFF31187202181F31288BFF36F8F256AB3
:10351000E1688D4243D22568AC421AD0CDB128462D
:1035200003F00DFB05F1180003F0E1FBA268002495
:103530003146286903F03CFE2846C5F8BC4003F03C
:103540005AFB4046394600F0D5FB204602B0BDE8A4
:10355000F081A268A8B13146E06903F029FEE36971
:10356000A26813446269E361934201D12369E36174
:103570000020236A0133236287F31188BFF36F8F22
:10358000E4E7A1692369994208BF6369314608BF2E
:10359000A361A069801AA06103F00AFEE8E752EA7D
:1035A00003010AD00649404689680E61CDE900232F
:1035B0003946224600F00AFBC8E76FF02200DBE73D
:1035C000F81B0020F7B50446084604F10807EFF39E
:1035D0001186202181F31288BFF36F8F216A0029A1
:1035E0003AD0A268A16903F0E3FDA369A268256847
:1035F00013446269A361934204BF2369A361236AF0
:10360000AC4203F1FF33236234D02846002D32D080
:1036100003F095FA05F1180003F069FBA268296927
:10362000E06903F0C5FDE369A268284613446269B6
:10363000E361934204BF2369E361236A0133236298
:103640000024C5F8BC4003F0D6FA3846314600F0F5
:1036500051FB204603B0F0BD52EA030110D00A49E5
:1036600089680861CDE9002331462246384600F0DA
:10367000ADFAEFE7002086F31188BFF36F8FE9E71B
:103680006FF02200F7E700BFF81B00202DE9F3419F
:10369000044617461E46EFF31188202383F3128851
:1036A000BFF36F8FC368334A7BB1806891688842EB
:1036B00019D057EA060318D188F31188BFF36F8F2A
:1036C0006FF00F0002B0BDE8F081916891F90E1023
:1036D0000133E36093682161A36088F31188BFF32D
:1036E0006F8F0020EEE72169F2E791F90E1090F953
:1036F0000E306FF07E029942A8BF19469142B8BFC2
:1037000011468B422DDD03F02EFA05462246414636
:10371000CDE90076184800F059FA0028E1D0EFF31F
:103720001186202383F31288BFF36F8FA068D0B176
:10373000236821699C420AD04BB193F90E3099421B
:10374000A8BF19466FF07E039942B8BF194603F02F
:103750000AFA40B13146084800F0CCFA6FF00A008E
:10376000B0E70025D2E7002DF4D186F31188BFF32E
:103770006F8FF3E7F81B0020CD220020F8B5836897
:103780000546002B40D0234A926893423FD1C3683C
:10379000012B03D9013BC3600020F8BDEFF3118773
:1037A000202383F31288BFF36F8F0169806803F0D1
:1037B000DAF92C68A54207D10023C5E9023387F363
:1037C0001188BFF36F8FE7E7002CF5D0D4E9003202
:1037D000002613605A60637BC4E9006623F002038D
:1037E0006373A66004F1180003F081FAAC6094F9E9
:1037F0000E3020462B61C4F8BC6003F0FCF939465A
:10380000054800F077FAC7E76FF01500C5E74FF0FD
:10381000FF30C2E7F81B0020CD22002070B5EFF387
:103820001186202383F31288BFF36F8F0468A042B0
:103830001BD0D4B1D4E90032002513605A60637BF9
:10384000C4E9005523F002036373A56004F1180076
:1038500003F04DFA2046C4F8BC5003F0CCF93146D1
:10386000BDE87040064800F045BAD0E902329A42FD
:1038700018BF0133836086F31188BFF36F8F70BD6B
:10388000CD22002013B5EFF31181202484F3128898
:10389000BFF36F8F846844B1013C846081F3118869
:1038A000BFF36F8F002002B010BD52EA030406D1AF
:1038B00081F31188BFF36F8F6FF00F00F3E7CDE94D
:1038C00000230246014800F081F9ECE7CD220020F8
:1038D0002DE9F04F984685B000F15803C0E9163342
:1038E000129B002503730423D61D26F0070643739D
:1038F000119B01EB060A0F46C0E90655514685604B
:103900008373C5730446DDF838B0DDF84C90FDF7DD
:10391000C7FA109B073020F00700C4E92976C4F8E5
:10392000AC0002930F9BAAEB0006CDE900B3324630
:10393000434639462046FDF70BFE0F9BC4E91C8B1E
:10394000A367109B656584F86C50E367EFF3118300
:10395000202282F31288BFF36F8F104F3A6A3C62C5
:10396000C4F8802083F31188BFF36F8FB9F1000F83
:1039700011D01F22494604F1840003F040FC84F872
:10398000A350BB680BB1D3F8B0303046C4F8B030A8
:1039900005B0BDE8F08F84F88490F2E7F81B0020B2
:1039A000F0B5002587B00595109DDDE912760495E8
:1039B0000F9D044603950E9D02950D9D01950C9D4E
:1039C0000095FFF785FFB6F1FF3F08BFB7F1FF3F56
:1039D00005D056EA070305D1204600F0AFFA20468D
:1039E00007B0F0BD3A46334604F11800014900F033
:1039F00047FCF4E75B6C000040F201138381002375
:103A0000C0E92933C0F8B030014B9860704700BF5F
:103A1000F81B00206FF00A01094A9368C3F8BC1034
:103A20000849C3F8B8004B6843F080534B6000234B
:103A300083F31188BFF36F8F9368D3F8BC0070478E
:103A4000F81B002000ED00E070B590F90D20437BDD
:103A5000002A36DBD90634D11B4C63F07F032246A3
:103A6000437352F8183FE169934207D1C0E900213E
:103A70000860E06111E09942F8D01B68002BF5D096
:103A800090F90E5093F90E60B542F4D0AE42F2DDDB
:103A90005968C0E9003108605860A569954200D0B6
:103AA00005B9E568A3685A7BD20604D1DA897F2A72
:103AB00001D9AA6932B1AB4202D0284600F038FBE6
:103AC000656170BD6361FCE7F81B002038B590F9B3
:103AD0000D200146002A437B04DA03F07F03437381
:103AE00003F04FF80D4D2A4652F8184FAB68944238
:103AF00000D004B9EC688B4207D05A7BD20604D1BF
:103B0000DA897F2A01D9A2692AB1A34202D02046CC
:103B100000F00EFB23466B6138BD00BFF81B002090
:103B2000B3F1FF3F08BFB2F1FF3F03D002491830A5
:103B300000F0A6BB704700BF5B6C000070B590F949
:103B40000D200146002A437B04DA03F07F03437310
:103B500003F017F81C4C4B7B224663F07F034B733A
:103B600052F8183FE069934207D1C1E90020016093
:103B7000E16111E09842F8D01B68002BF5D091F973
:103B80000E5093F90E60B542F4D0AE42F2DD5868A3
:103B9000C1E9003001605960A569A368954200D071
:103BA00005B9E5688B4207D05A7BD20604D1DA8981
:103BB0007F2A01D9AA692AB1AB4202D0284600F077
:103BC000B7FA2B46636170BDF81B0020F8B5DDE93C
:103BD00006670D4B0C46986811460C4A1060EFF3CF
:103BE0001182202282F31288BFF36F8F9D682846CE
:103BF00002F0D9FF284632463B46FFF791FF2046A8
:103C0000BDE8F840FFF706BFF81B00201C1C002091
:103C1000F8B50446EFF31187202383F31288BFF32E
:103C20006F8F437B49B203F01F02002A0CBF0126AD
:103C3000002639D103F07F032D4D437302F0A1FF1D
:103C40002A46437B817363F07F03437352F8183F26
:103C5000934227D1E869C4E900200460EC610FE0D9
:103C60009842F8D01B68002BF5D093F90EC061453F
:103C7000F6D08C45F4DD5968C4E900310C605C6015
:103C8000AC69944200D004B9EC68AB689C4202D0A5
:103C9000204600F04DFA6C6187F31188BFF36F8FF7
:103CA0003046F8BDE869DEE79B071ED5856802F05F
:103CB00068FF81732B689D4209D16B68C4E900538A
:103CC0001C606C60E8E76A689342F6D01B68002BC2
:103CD000F3D093F90E209142F5D08A42F3DD5A6871
:103CE000C4E9003214605C60D6E78173D4E700BF9A
:103CF000F81B002049B9EFF3058030B9054B5A692C
:103D00009B689A4201D0FFF785BE81F31188BFF30B
:103D10006F8F7047F81B0020034648B9EFF3058208
:103D200032B9064A51699268914201D0FFF772BEDA
:103D300083F31188BFF36F8F704700BFF81B00201B
:103D4000EFF31181202383F31288BFF36F8F054BAC
:103D50009A68D37B013BD37381F31188BFF36F8FD4
:103D6000704700BFF81B002070B5EFF311862023C9
:103D700083F31288BFF36F8F144DAB68DA7B013287
:103D8000DA732A4652F8184F944200D004B9EC680E
:103D90005A7BD20604D1DA897F2A01D9A2692AB1D5
:103DA000A34202D0204600F0C3F923466B6186F39C
:103DB0001188BFF36F8FEFF31180202383F31288F4
:103DC000BFF36F8FBDE87040FFF7A6BFF81B002060
:103DD000024B03F11802C3E906227047F81B0020CA
:103DE00070B5EFF31186202383F31288BFF36F8F32
:103DF0001B4CA168E0690B68814214BF1A4600227F
:103E000049680B605960A368E1692AB9154AC3E99A
:103E100000210B60E3610CE093F90E0092F90E5063
:103E2000A84218D0854216DD5168C3E900210B6015
:103E30005360A5690B4B9D4200D005B9E568A368A6
:103E40009D4202D0284600F073F965613046BDE816
:103E50007040FFF7DFBD8A42D8D01268D5E700BFB7
:103E6000F81B0020101C0020F8B550EA010306469C
:103E70000C4603D1FFF7B4FF0020F8BDEFF3118724
:103E8000202383F31288BFF36F8F124D124BA86863
:103E90001860FFF71BFEA868234632460F4918300A
:103EA00000F0EEF9AA680446537B384643F0040359
:103EB0005373FFF7AFFDAB68D3E90A23B3F1004FAB
:103EC00008BF002AD8D102F03AFF201A20EAE07099
:103ED000D3E700BFF81B00201C1C00205B6C000017
:103EE00038B504460D46FFF7BFFFB5F1FF3F08BFE9
:103EF000B4F1FF3F0246204618D000234FF47A74F5
:103F000047F611201946C2FB040147F612229042DF
:103F100071F100020BD3084B834243F608538B41E7
:103F200007D347F612220023FCF7CEFA38BD184615
:103F3000FCE76FF00040F9E7ED85FFFF38B5044678
:103F4000EFF31185202383F31288BFF36F8F437B38
:103F50005B070FD5183002F0CAFE637B204623F0C2
:103F600004036373FFF770FD2946BDE83840044839
:103F7000FFF7C0BE85F31188BFF36F8F38BD00BF58
:103F8000CD220020014B9868704700BFF81B00202D
:103F90002DE9F8430446077BEFF31185202383F3D3
:103FA0001288BFF36F8F437B190705D585F31188FE
:103FB000BFF36F8FBDE8F883D90943F0080260D1E1
:103FC0004273A36813B1204602F0E3FD04F1180028
:103FD00002F08DFEA66D04F15808B04511D04FF0E7
:103FE000000976B1304602F0D4FD06F1180002F067
:103FF0007EFE3046C6F8BC90FFF726FDA66DB045A4
:10400000EFD1DFF8C480D8F808309C4241D1EFF3FB
:104010000589B9F1000918BF4FF00109D8F81860F7
:104020002A4A964200D00EB9D8F80C60B34202D0AA
:10403000304600F07DF82046C8F8146001F0D5FF46
:10404000204600F0CDF8B9F1000F02D02048FFF76C
:10405000D3FCD8F808309C4231D1EFF3058373BB11
:10406000227BD20718D42846FFF7D4FCFB07A1D542
:10407000002383F31188BFF36F8F0423184602DFF8
:1040800098E703F07F0343F00803437302F079FDE0
:1040900097E74FF00009C1E785F31188BFF36F8FF1
:1040A00083F31188BFF36F8F0423184602DFEFF309
:1040B0001180202383F31288BFF36F8FD4E785F339
:1040C0001188BFF36F8FD1E7F81B0020101C002070
:1040D000D00500200122044BC01A044BC0105843E5
:1040E000034B1A54704700BF90060020ABAAAAAA3F
:1040F000CD220020C3897F2B12D80A4B1B6863B1E5
:10410000094B90F90E201B689A4209DB437BDB06C2
:1041100006D1064BC31A18BF012303F001007047F4
:104120000023FAE784020020201C00205004002015
:1041300070B50E4B0E4C1E7C054606EB460304EB99
:10414000C304204602F0D3FD00220A4B28469A55AC
:10415000FFF7D0FF48B1084B2046BDE870401A6811
:104160000649013AD31700F08BB870BDF81B002048
:1041700090060020CD22002084020020D5400000BF
:1041800038B5EFF31185202383F31288BFF36F8FC7
:10419000104B114A9C681068A04206D1FFF7C8FF77
:1041A00085F31188BFF36F8F38BD00211B7C116030
:1041B0000A4AD35C002BF3D02046FFF79BFF002870
:1041C000EED0637BDB0602D12046FFF7B7FC20462A
:1041D000E4E700BFF81B00201C1C0020CD220020BB
:1041E000EFF31181202383F31288BFF36F8F0C4A02
:1041F000136A834208D1D3F88030136281F31188A7
:10420000BFF36F8F70471346002BF7D0D3F8802091
:104210008242F8D1D0F88020C3F88020EEE700BFBA
:10422000F81B0020024B1868984208BF0020704716
:1042300088020020034B1B680BB9FEF735B900203C
:10424000704700BF241C002030B570B10B4B5B6879
:1042500098420AD0036843B1D3E90421D0E9044568
:10426000121941EB0501C3E90421D0E900321360C2
:104270005A600023C0E9003330BD00BF880200202F
:10428000B3F1FF3F08BFB2F1FF3F2DE9F84F0446FD
:10429000994615461F467AD08160EFF31188202396
:1042A00083F31288BFF36F8FB9F1000FDFF8E4A03A
:1042B00020DBFFF7BFFFDAE90027013549F10009EC
:1042C0002D1849EBE07306464FF00109C4E9045389
:1042D000AD1843EB0707FFF7A5FF0346DFF8B8E08B
:1042E000DEF804A0EBB9C4E900EACAF80040CEF851
:1042F000044028E06FF00103DAE900125B1A4FF086
:10430000FF3161EB02025B1B62EB0902012B72F1D0
:104310000001BCBF012300224FF00009C0E90432B4
:10432000D9E7D3E9041CD4E904208A4270EB0C0BD2
:1043300024DA891A5A686CEB0000C3E90410C4E956
:10434000003214605C60FFF76DFF84420ED1134BA6
:104350001B685BB9B9F1000F02D1FFF76BFF06468E
:10436000304602F0ADFC0021FEF7B2F888F3118868
:10437000BFF36F8F28463946BDE8F88F521A60EBBD
:104380000C009A45C4E90420ADD01B68AAE70025BB
:104390002F46EFE7A806002088020020241C0020FA
:1043A0002DE9F047EFF31185202383F31288BFF343
:1043B0006F8FDFF8A0900026C9F800000027FFF7F4
:1043C00031FFDFF89480D9F80030D8E900ECD91734
:1043D00050B1D0E90442A34271EB020A1BDAE41A9D
:1043E00062EB0102C0E90442002413EB0E034CEB24
:1043F00001012046C8E90031C9F8004002F060FC24
:104400002146FEF765F885F31188BFF36F8FBDE88D
:10441000F047FFF7B5BE14EB0E024CEBE473C0E9B6
:104420000467C8E90023FFF70FFF85F31188BFF386
:104430006F8F83689847EFF31185202383F31288E9
:10444000BFF36F8FD9F800301B1BC9F80030FFF79E
:10445000E9FEB8E7241C0020A806002010B5EFF301
:104460001184202383F31288BFF36F8FFFF7E2FEDE
:104470000346054AD2E90001181841EBE37184F3C1
:104480001188BFF36F8F10BDA806002038B5064C09
:10449000064DAC4201D3002038BD2046D4E90112BC
:1044A00002F053FC1434F4E7C4020020C4020020DC
:1044B000F8B50D4E0D4C0E4D33680E489847677891
:1044C0002B680C48984733680B489847022F08D14F
:1044D0002478E31F5C425C412B68074898472046DC
:1044E000F8BD0024F8E700BFB4020020281C00201B
:1044F000B0020020140300200003002070B51D4E00
:104500001D4C33681D4898472378590744BF23F052
:104510000403237023789A0705D500F0C1F82378A7
:1045200023F002032370164D14482B689847336814
:1045300014489847637813B1134802F03BFC0023FA
:1045400004211148637000F0CBF82B680D489847A0
:1045500033680A4898472378DB0705D502F027FC23
:10456000237823F0010323702B680448BDE87040D2
:10457000184700BFB4020020281C002000030020C0
:10458000B0020020140300202C1C00202DE9F04173
:10459000FFF78EFF18B100242046BDE8F081364FAA
:1045A00036483B689847044620B16FF08F04FFF708
:1045B000A5FFF1E7324D2B78D80706D402F0F5FBC2
:1045C00004462B7843F001032B702E4E2B483368A2
:1045D000984710B1002CE8D0E9E7002CE7D13B6800
:1045E0002648984704460028DFD12B78990706D43F
:1045F00000F04EF804462B7843F002032B7033682A
:104600001E4898470028E5D1002CD0D13B681B48B4
:1046100098470028C9D13368184895F80080984712
:104620000028C2D13B681848984704460028BCD1EE
:104630006B7843B918F0010F05D0144802F0B8FBAD
:10464000022304466B7033680F4898470028C1D195
:10465000002CACD13B68094898470028A5D12B789D
:1046600006485A075CBF43F004032B703368984731
:10467000002890D099E700BFB4020020000300207A
:10468000281C0020B0020020140300202C1C002055
:104690000122024B002083F880257047301C002047
:1046A0002DE9F0410A4C002526464FF0010803276A
:1046B0002046C4F820802777013502F059FB202DD1
:1046C00004F12C04F4D1002386F88035BDE8F08194
:1046D000301C0020014B1B68184700BF90020020CF
:1046E00010B50A46044619B1024B00211B689847D1
:1046F00010BD00BF9402002010B50D4C206802F0E0
:10470000C9FC0C4A1368591C11605BB90A4A59204C
:10471000D2F8003443F00703C2F80034FCF7B0FECF
:1047200000F03CFC2068BDE8104002F0B9BC00BFBE
:104730009C020020B42100200090055038B5164D91
:10474000286802F0A7FC154B1C68013C1C60ECB902
:104750005920FCF7A3FE0722114BC3F80823D3F816
:10476000002422F00702C3F80024C3F80041D3F864
:104770000021C3F80441D3F804214FF00072C3F8BC
:104780000841D3F80831074BC3F888212868BDE8F1
:10479000384002F085BC00BF9C020020B4210020FC
:1047A0000090055000E100E070B5104D104E2B68F0
:1047B000B3420DD0FFF7A0FF00F048FD00F084FDEC
:1047C00040B102F004FB0446FFF7B8FF44B92E6085
:1047D000002405E000F0E2FA044618B1FFF7AEFF4E
:1047E000204670BD02F003FCEDE700BF98020020F8
:1047F000117365004FF480732DE9F04796B0804641
:1048000003A80393002402F06EFB4FF010091E4E24
:104810000DF12F0525F01F0506F1200A01221021B8
:104820001A4802F03FFB2B19009352461023202117
:104830001548CDF8049000F0EFFA0746F8B9D6E92C
:104840000C321034013342F10002302CC6E90C3234
:10485000E4D1B8F1000F04D022464146284602F0C8
:1048600014FB2E46084C0FCE0FC496E80F002035DF
:1048700084E80F0095E80F00103484E80F003846F4
:1048800016B0BDE8F08700BFB0060020D0060020BB
:10489000F0B5194D194FAB6B8DB0BB4229D0184EF6
:1048A000306802F0F7FB402300221946284602F048
:1048B00003FB3021684602F023FB044678B96846C2
:1048C000FFF798FF044690B9302302461946684620
:1048D00002F0F2FA01220023C5E90C23AF6330682D
:1048E00002F0DEFB204602F072FA0DB0F0BD0E249D
:1048F000F5E70020F9E700BFB0060020B4A5B4A595
:10490000A00200202DE9F04F99B00DF1570802F1F7
:104910000F0982460E46144628F01F084FEA19195F
:1049200022B100296FD0B2F5005F6CD8374F384DF7
:10493000386802F0AFFBD5E90C3213430BD1504677
:10494000FFF7A6FF834630B1386802F0A9FB58464E
:1049500019B0BDE8F08FD5E90C2319EB020943F13A
:104960000003B9F5803F73F1000314D3302102A88E
:1049700002F0C6FAE8B902A8FFF73CFF8346002818
:10498000E2D130230246194602A802F095FA00222D
:104990000023C5E90C234FF4807302A8029302F0B0
:1049A000A2FADFF870A03CB92046FFF723FF834648
:1049B000CAE76FF0920BC7E7102C4FF001024FF0DF
:1049C00010015046A14628BF4FF0100902F06AFAC4
:1049D000102352462021CDE900830D4800F01CFA37
:1049E00083460028B0D14A463046414602F0E0FBFB
:1049F000D5E90C32013342F10002C5E90C32A4EBD7
:104A000009044E44CFE76FF0860BA0E7A002002018
:104A1000B0060020D00600200022074BC3F810216A
:104A2000C3F80C21C3F80021C3F80421C3F80821FE
:104A3000C3F81821704700BF0090045008B5FFF775
:104A4000EBFF01230360104B0A6832B9D3F80C2145
:104A50001AB9D3F80821002AF6D00B687BB90B4BA2
:104A600099420ED0A3F58473D3F80831002B0CBF04
:104A70004FF0FF306FF00200FFF7CEFF08BD0020BF
:104A8000FAE74FF0FF30F7E7009004500891045028
:104A900038B505460C4691B10021012002F00FF80F
:104AA00008480949C0F80055C0F80445FFF7C6FF9B
:104AB00000210446084602F002F8204638BD6FF097
:104AC0000104FAE70090045000910450034B04499C
:104AD000C3F800050348FFF7B1BF00BF00900450C2
:104AE000049104500490045010B5044600210120A4
:104AF00001F0E5FF064B0749C3F800450648FFF7FC
:104B00009DFF00210446084601F0D9FF204610BD54
:104B100000900450089104500890045038B50C4699
:104B200059B1074D0749C5F800050748FFF786FF4B
:104B300010B9D5F80835236038BD6FF00100FBE7E8
:104B400000900450109104500C9004502DE9F04F47
:104B500089B006460F4690461D4602F025FA0446E7
:104B600078B973690090C3F3013262F305148DF8CC
:104B7000004014F0300408D1B168890710D06FF0FC
:104B80008604204609B0BDE8F08F102C08D1BDF88E
:104B9000023023F4F87343F4A873ADF802304EE00A
:104BA000DBB2F82B02D06FF08504EAE700234FF068
:104BB000010B9E4619461846D6F808C0DFF8CC917E
:104BC00059F804AB1CEA0A0F08D00BFA00F343EAC9
:104BD0000E0303F07F0E012341EA0A01013007288A
:104BE000EED12BB19DF803306EF347038DF80330FF
:104BF0003CEA0101D7D17388FF2B35D005D8802B33
:104C000034D0C02BCFD1022303E0B3F5807FCAD1CB
:104C100004239DF8021063F306118DF8021014B9F5
:104C20001CF0030FABD13379022B2BD020D8012BF2
:104C3000A5D1BDF8021063F3C811ADF80210012A26
:104C40006FD0032A23D0002A99D13388B3F5105F9F
:104C5000A9D1182D6DD0202D70D0102D8FD1DFF857
:104C600030A101251F261AE00323D2E70123D0E754
:104C7000032B01D0FF2B82D10221BDF8023061F35A
:104C8000C8138AE7BDF8023043F4C07385E7412DAD
:104C90003DD104254F26DFF8FCA008F101080024CF
:104CA000381902F055F900286CD00134AC42F7D124
:104CB0001F2E07D02946384602F05EF90446002828
:104CC0007FF45FAF009B4FF0FF39079300239B46B3
:104CD000CDF818A0BDF802204344C2F3C1120592DA
:104CE00001AC03F1100C224618685968083303C25E
:104CF00063451446F7D101A907EB0B00FFF7C8FE87
:104D0000044630B302F050F96FF0920439E7182DE1
:104D100019D0202D1AD0102D7FF431AFDFF874A0F8
:104D20009FE7302D7FF42BAF03253F26DFF868A0E7
:104D3000B5E7DFF85CA002252726B0E7DFF850A032
:104D400002252F26ABE7DFF84CA0F4E7DFF844A0FC
:104D5000F6E71C2101A80BF1010B02F0B8F8AB45F6
:104D600006D00AEB0B12CDE906294FEA0B13B1E787
:104D70001F2E3FF406AFBA20FFF7B6FE00283FF41F
:104D800000AFC1E76FF08A04FBE600BF948000002B
:104D900000FF0720000000201094055010B590B0CF
:104DA0001C22002101A802F010FAF82002F0D0F82D
:104DB00008B3202200200DEB0201FFF7A3FD0446FB
:104DC000F8B901A84FF4807102F0CCF80E4B0F49EE
:104DD00004930F4BCDE901130E4BF82106932023CA
:104DE0000DEB0302FFF7B2FE202104460DEB01009C
:104DF00002F06DF805E0F92002F0AAF80028D8D1F9
:104E00000446204610B010BD0010C004002400016C
:104E1000014B4E80F800FF7F2DE9F3411D464FF412
:104E20008073284C8046002017460E46019300F000
:104E300097F901AB23601123234A0121C4E902231E
:104E400004F11003636040F61103E36104F12003F1
:104E500063612123089AE3621C4B46F000561A60F6
:104E6000099A45F0005542F00052C3E90112202290
:104E7000C4F81080A6612762A5626162DA60BFF3A0
:104E80005F8F134A1460BFF35F8FBFF35F8F1361AF
:104E9000BFF35F8FBFF35F8F03235363BFF35F8F56
:104EA000BFF35F8F9363BFF35F8F00F039F8431C4C
:104EB0000446FAD0002000F07DF9204602B0BDE89B
:104EC000F08100BFC821002004000020B82100208C
:104ED0000000015038B5BFF35F8F104CE569BFF398
:104EE0005F8FBFF35F8F10236363BFF35F8F01207A
:104EF00002F0EBF8BFF35F8F00236363BFF35F8FB4
:104F0000BFF35F8FE36BBFF35F8F5B06F8D425B110
:104F1000BFF35F8FE561BFF35F8F38BD00000150C5
:104F200008B500F0A7F9104A20B9BFF35F8F906A67
:104F3000BFF35F8FBFF35F8FD36BBFF35F8F10F053
:104F4000240F03F0230304D0FFF7C4FF6FF01F000A
:104F500008BD4FF0FF30002BFAD1BFF35F8F106315
:104F6000BFF35F8F1846F3E700000150BFF35F8F78
:104F7000094A1368BFF35F8F43F48071BFF35F8FFB
:104F80001160BFF35F8F23F48073BFF35F8F1360F3
:104F9000BFF35F8F704700BF00100150BFF35F8FFA
:104FA0001522064B5A62BFF35F8FBFF35F8F40F24B
:104FB00037129A62BFF35F8F704700BF0010015035
:104FC00008B5FFF7D3FFBFF35F8F064A1368BFF33F
:104FD0005F8F43F00103BFF35F8F1360BFF35F8FF9
:104FE00008BD00BF0010015070B50026C0E9006682
:104FF00005460C46FFF780FB01232B70FFF7B6FF39
:10500000BFF35F8F204BDB68BFF35F8F9B08013BD3
:10501000ACB3226842B19A4205D9FFF78FFB6FF01B
:105020003F002E7070BD1346D4E90115E0680029D9
:1050300008BF4FF40071002808BFF1202469BFF3B6
:105040005F8F114A9360BFF35F8FBFF35F8F15646B
:10505000BFF35F8FBFF35F8F5064BFF35F8FBFF30A
:105060005F8F5163BFF35F8F44F4802444F00104E9
:10507000BFF35F8F1460BFF35F8F0020D2E74FF460
:105080000071F1202546DAE70010015070B5037871
:105090000D461446002B53D0BFF35F8F2D4A136B80
:1050A000BFF35F8F5908C3F34203052B4BD011F0B8
:1050B000060F02D14FF0FF3070BD4368D3B9BFF384
:1050C0005F8F5368BFF35F8F032BF3D9224B2349C4
:1050D000BFF35F8FD2F88060BFF35F8FBFF35F8F46
:1050E00043F8046BBFF35F8F8B42F1D1FFF768FF8A
:1050F00001234360BFF35F8F164B9A68BFF35F8F46
:105100000132B4EB021F21D8BFF35F8F5A68BFF39F
:105110005F8FB4EB820FCDD884B1BFF35F8FD3F82C
:105120008020BFF35F8F291D05F8012B8D424FEAC8
:10513000122204F1FF34EFD0002CF5D10020BBE7A0
:105140006FF02000B8E76FF05100B5E76FF03F0057
:10515000B2E700BF001001501010015020100150A4
:1051600010B50446FFF7C8FA104B186801F092FF1B
:105170000CB101232370BFF35F8F00220C4BDA6167
:10518000BFF35F8FBFF35F8F4FF0FF321A63BFF340
:105190005F8FBFF35F8F3422DA61BFF35F8F01222D
:1051A00003F59223C3F8042310BD00BFA40200201E
:1051B0000000015010B5044638B9FFF7BFFABDE84A
:1051C0001040074B186801F06BBF03783BB1FFF745
:1051D000B5FA034B186801F063FF0023237010BD7C
:1051E000A402002038B5154CD4F80051BDB1BFF36E
:1051F0005F8F134B996ABFF35F8FBFF35F8F4FF0E1
:10520000FF321A63BFF35F8F0023C4F80031D4F874
:1052100000310C4B1868BDE8384001F054BFD4F899
:10522000083153B100F06EF801F002FFC4F80851E4
:10523000D4F808310121044BECE738BD009005504B
:1052400000000150AC020020A802002008B5074B66
:10525000186801F027FF064B186801F023FFBDE82E
:105260000840002259201146FCF73AB9AC02002050
:10527000A802002038B5094B1C7864B1084B4FF0E8
:10528000FF311D68284601F00FFF4FF0FF31044643
:10529000284601F016FF204638BD00BFCC22002072
:1052A000AC02002010B5064C236D3BB9214651F8E5
:1052B000503B986901F0C0FE01232365014810BDF1
:1052C000F82100204822002038B500240B4D0C4B5B
:1052D000EC662B6003F5C0436B60FFF7E3FF50B152
:1052E0006B6D2046B3F5007FCCBF4FF480634FF465
:1052F0000073AB6038BD0E20FCE700BFF821002032
:105300000020015000487047F82100202DE9F043AB
:105310004FF0000985B00546CDF8049000F10C0768
:10532000EFF31188202383F31288BFF36F8F836814
:10533000594003EA02060A4053400E4901AACDE94A
:10534000023901F09BFC019C3CB12046C4F8BC90A2
:105350000021246E01F05EFCF6E7DDE9023223EA6B
:10536000020338464146AB60FEF7C4FC304605B048
:10537000BDE8F083557100000EB470B589B00546E4
:105380001C2200210DAC01A854F8046B01F01DFF94
:10539000012301A8224631468DF80630054B0595BC
:1053A0000393009400F062FA09B0BDE8704003B0C6
:1053B000704700BFBD7300002DE9F04F43688DB00A
:1053C00015468046029383789A0740F10D810024A8
:1053D0000E78002E00F00A81252E0BD04B1C039373
:1053E000013441463046029B98470028C0F2F680BF
:1053F0000399EDE74E788B1C252E0393F0D0002700
:10540000B946BB46BBF11F0F38D8A6F12003102BBD
:105410000AD8DFE803F02A09093009090921090936
:105420000928092D09091F00A6F13003092B33D9DA
:105430002A2E37D11BF0400F55F8043B40F08280F4
:10544000002BA7BF4BF0200B9946C3F100094BF08E
:10545000280B01E04BF0010B039B13F8016B039346
:10546000002ECFD130E04BF0020B4BF0040BF3E7F2
:105470004BF0080BF0E74BF0100BEDE7BBF17F0FA3
:1054800019D8A6F13003092BD2D81BF0400F03D056
:105490000A2101FB0737DFE70A214BF0200B01FB54
:1054A0000939D9E72E2E06D11BF0400F40F09E801F
:1054B0004BF0400BD0E76C2E31D02BD8682E36D075
:1054C0006A2E3CD04C2E3AD0002F46F02003B8BFB5
:1054D0002BF04002A3F16501BCBF00271FFA82FB3D
:1054E000022901D9612B2FD107350727DFF8ACA29C
:1054F00025F0070508351BF0080F66D00AEB070BEF
:1055000056465E4563D1A4EB0A0AA9EB070906EBF0
:105510000A026FE1742E9FD07A2E9DD0D4E71BF043
:10552000800F18BF4BF4007B4BF0800B94E71BF40B
:10553000807F18BF4BF4007B4BF4807B8CE74BF4EF
:10554000207B89E71F4687E7A6F16301122900F255
:10555000F080DFE811F013004F00EE00EE00EE00E7
:10556000EE004F00EE00EE00EE00EE00EE00FE005A
:10557000E900EE00EE001B00EE00AF0055F8043B22
:1055800001270DF1180A8DF81830B4E755F804AB6F
:10559000834BBAF1000F08BF9A461BF0400F5046EC
:1055A00014BF39464FF0FF3101F039FE0746A2E73C
:1055B00041462020029B984700280FDB013EB7425E
:1055C000F6D34C44B146A41B98E74E46F7E7414654
:1055D00016F8010B029B9847002892DA98F80230DF
:1055E00043F0040388F802304FF0FF3420460DB03A
:1055F000BDE8F08F1BF0800F34D01BF4007F2CD05F
:10560000073525F00705AA4669685AF8080B2BF0FC
:1056100010050029ADB237DA404245F4806561EBF0
:1056200041010DF1180B0A235A4601F004FEA0EBCC
:105630000B0301936B0662D5019B25F001019F428C
:1056400089B240F3A180002E00F0998015F010027D
:1056500040F09C80BB460D4623E0AA465AF8040B56
:10566000C117D4E7AA461BF4807F5AF8041B01D166
:105670000846F5E71BF4007F19BF48B241F3C0119B
:1056800008B241F3C031C2E750EA0103C9D11BF0AF
:10569000400FC6D0002FC4D12BF01102BB4601979A
:1056A00095B240F2064115EA01021CBF0BF1010B55
:1056B00000222CE02BF010020A231FFA82FB1BF0C1
:1056C000800C49D01BF4007115BF0735AA4625F0A0
:1056D00007055AF8040B1EBFAA4669685AF8080B5A
:1056E00050EA010545D12BF016051BF0400FADB275
:1056F00042D0002F40D12BF01702019795B215F040
:10570000100248D0019B002E42D103F1010B290762
:105710005AD4EB0706D5D9456FDDA9EB0B030199E8
:10572000CB465F185B4649E04BF0100B1023782600
:10573000C5E7782B04D1C6F1780343F01003BEE728
:1057400041462520029B98470028FFF647AF0234C8
:1057500047E608230026B2E7AA461BF480715AF8F0
:10576000040BBDD01BF400711ABFC0B2614680B2F9
:10577000B6E72BF0060295B20DF1180B54E725F0B1
:105780001105BB46ADB28CE70D46B8E73B460D466A
:1057900003F1020BBBE7DDF804B082E7E686000008
:1057A000DF860000CDE9043241462020029B984765
:1057B0000028FFF613AF049B059A01339945F1DCED
:1057C000A4EB0B019B46CC180AB341463020029B48
:1057D00098470028FFF602AF8EB901342744391BE1
:1057E000019B994224DC1D4655BB019AA9EB0B098C
:1057F000554622441446914433E0019F92E7023417
:1058000041463046029B98470028E7DAE6E640F238
:1058100006410D42E2D015F0020F04F101044146A9
:1058200014BF2B20202015F4806F18BF2D20E9E72E
:1058300041463020029B013498470028CFDACDE65C
:1058400006AB013D4146585D029B98470028CBDAE4
:10585000C4E641462020029B013498470028FFF609
:10586000BDAEA9EB0403002BF3DCC1E52DE9F04F3D
:105870008046002089B08246029207900D4615F8B6
:10588000014BACB1202C17D0A4F10903042B13D980
:10589000252C17D007A9404601F023FD031EC0F2B6
:1058A000CD80DBB2A3420BD007AA414601F023FD15
:1058B000504609B0BDE8F08F07A9404601F023FD2E
:1058C0002946DBE74C788D1C252CE3D02A2C20D1EF
:1058D000CD1C8C780126002706E00A2246F002063D
:1058E00015F8014B02FB0737A4F13003DBB2092B9B
:1058F000F3D916F0020F08BF4FF0FF376C2C33D0EE
:1059000009D8682C24D06A2C3CD04C2C35D034B922
:10591000CEE70026DFE7742C31D07A2C2FD0214639
:105920009E4801F01BFD0028C2D016F0010303932E
:1059300011BF4FF00009029B53F8049B02936E2C99
:1059400023D1079A00234846009601F0F1FCB7E7FF
:105950002C78682C03D046F020060135D7E746F0B6
:1059600030066C780235D2E72C786C2C02D046F0E9
:105970000406F2E746F00C06F3E746F00C0615F8CD
:10598000014BC4E746F00806F9E7632C18D116F07E
:10599000020F08BF012707A9404601F0A2FC00281A
:1059A0004CDBB9F1000F01D009F8010B013FF2D136
:1059B000039B002B84D10AF1010A5FFA8AFA7FE780
:1059C0005B2C54D12B7800245E2B06BF01354FF0A1
:1059D000010B4FF0000B07A9404601F082FC0022AA
:1059E0002E4605F1010E9446114616F8013BFBB117
:1059F000764508D05D2B12D02D2B04D132B90B4641
:105A000001221946F1E7002A08BF194688424FF0E3
:105A10000002F6DB9842D8BF4FF0010CF1E70028F6
:105A200005DBE34511D107AA414601F064FCACB99E
:105A300098F8023013F00C0F3FF43AAFBAF1000FB0
:105A400014BF50464FF0FF3033E7B9F1000F01D0DB
:105A500009F8010B013F4FF00104BCD1B9F1000F6F
:105A600001D13546A4E7002389F80030F9E707A9FA
:105A7000404601F048FC0028E0DB6F2C58D031D8BC
:105A8000642C57D0693C18BF0124240107A9404663
:105A900001F027FC2B2803D02D2809D146F0400621
:105AA000013FC5D007A9404601F01BFC0028BFDB21
:105AB00030286ED17B1E049306D007A9404601F022
:105AC00010FC0028049B37DA0027BB46730602D57A
:105AD0007F426BEB4B0B3A465B464846009601F023
:105AE00027FC65E7732C0BD0752C0CBF0A241024FF
:105AF000CCE7B9F1000F01D009F8010B013F0FD03D
:105B000007A9404601F0EDFB002809DB202803D05F
:105B1000A0F10903042BECD807AA414601F0EBFBE6
:105B2000B9F1000F3FF444AF002389F800303FE79C
:105B30000824ABE70A24A9E740F0200246F08006DB
:105B4000782A0ED134F010020ED1BB1E0493BBD0C4
:105B500007A9404601F0C5FB0028049BB4DB1024D4
:105B600002E0002C08BF08240027BB463928024663
:105B700082BF00F1FF3242F02002263A303A9442CE
:105B80000ED807AA414601F0B6FB32067FF550AFAA
:105B90009CE73B46002CE7D10A24E5E7EE860000AF
:105BA000A4FB077146F08006D71904FB0B1141F1E5
:105BB000000B013BCDE9043388D007A9404601F032
:105BC00090FB0028049BD1DA80E700BF70470346B2
:105BD0000A4619790123006803FA01F103691B6879
:105BE000194218BF82F0010212B18368DB681847BE
:105BF00083681B69FBE7F0B4D40213468768066923
:105C000006D512F4402F03D0DA0748BF83F44023AF
:105C1000012534688D4023F48012DB074CBF2C43F0
:105C2000AC4334603B68F0BC1847836800EBC101AB
:105C3000B3F5004F2CBF51F8220031F81200704725
:105C400000EBC1018068B0F5004F2CBF41F8223055
:105C500021F812307047012208B5FFF7E6FFD04067
:105C600008BD836800EBC101B3F5004F08D34B6852
:105C70001AB143F001034B60704723F00103FAE7C8
:105C80004B881AB143F001034B80704723F00103A6
:105C9000FAE753000122FFF7D3BF8368481CB3F52E
:105CA000004F34BF042308230833A0EBD300B0FA1D
:105CB00080F0C0F11F0070472DE9F0410D46866865
:105CC0000446FFF7C8FFB6F5004F014601D301288F
:105CD00032D02046FFF7E1FF04EB80010E6996B950
:105CE0000122E36882401343E36002220D612B46E8
:105CF00029462046FFF7A4FF032229462046BDE897
:105D0000F041FFF79DBF022231462046FFF78DFF8D
:105D10000746034629462046FFF792FF03223346F3
:105D200029462046FFF78CFF39462B462046FFF7D1
:105D300087FF02223146E1E7BDE8F081B2F5802F0E
:105D40002CBF082304232DE9F0410026D21A8C1819
:105D5000CD1D25F0070524F00704641BE408056049
:105D600021462846AC60EE60FFF797FF421D920087
:105D7000013002F107074FEAD7073146A2F11002BE
:105D800005F11000B8BF324601F01FFA3A4631461D
:105D90002846FFF77EFF3346324631462846FFF756
:105DA0004FFFA4EB0708284631460122FFF759FFB1
:105DB00042463946FFF76DFF3B4632463946284694
:105DC000FFF73EFF21462846FFF763FF4346324672
:105DD00021462846FFF734FF214628460122FFF7D7
:105DE00040FF3946BDE8F041FFF766BF002070472D
:105DF0000FB407B504A951F8040B0191FAF7A0FEFE
:105E000003B05DF804EB04B07047038B13F0070395
:105E100005D10368002B0CBF002003207047022B24
:105E200005D1408BB0FA80F0400980007047012B0B
:105E300005D10368002B0CBF00200520704700200F
:105E4000704710B50C4600B111B96FF0150010BDC8
:105E5000081D00F093F80028F9D1A368032BF6D9A8
:105E6000F3E72DE9F0410D4607461946281D9046F7
:105E70001E4600F094F8044638B13346424629469F
:105E80003846A446BDE8F0416047BDE8F08110B453
:105E9000EFF31182202484F31288BFF36F8F4161E6
:105EA00010BC0121FAF77EBE38B50C46054658B144
:105EB00051B10B6843B14B6833B11C22002101F092
:105EC00084F900202C6138BD6FF01500FBE770B538
:105ED00005460E46FFF7B5FF041E14DBEFF31182F3
:105EE000202383F31288BFF36F8F4FF6FF716B8B04
:105EF0002C8B8B4204F0070407D182F31188BFF387
:105F00006F8F6FF00A04204670BD022C0CD1013354
:105F10006B8382F31188BFF36F8F002322463146D3
