:10000000402B002005100000B14D0000F10F000052
:10001000F10F0000F10F0000F10F0000F10F0000E0
:10002000000000000000000000000000C1110000FE
:10003000F10F00000000000081110000F10F00002E
:100040002D1300002D1300002D1300002D130000B0
:100050002D1300002D1300002D1300002D130000A0
:100060002D1300002D1300002D1300002D13000090
:100070002D1300002D1300002D1300002D13000080
:100470002D1300002D1300002D13000053B94AB9AD
:10048000002908BF00281CBF4FF0FF314FF0FF309C
:1004900000F00CB8ADF1080C6DE904CE00F012F8D4
:1004A000DDF804E0DDE9022304B07047704700BFC7
:1004B00010F8012B11F8013B012A28BF9A42F7D00E
:1004C000D01A70472DE9F04786468C460846089EAC
:1004D000154674461946002B40F0C1808542B2FA99
:1004E00082F245D94AB1C2F1200300FA02FC9540DC
:1004F00094402EFA03F343EA0C0C4FEA154EA8B2CF
:10050000230CBCFBFEF80EFB18CC08FB00F943EAF9
:100510000C43994528D9EB1808F1FF3704D29945C7
:1005200002D9A8F102072B44A3EB0903A4B2B3FB41
:10053000FEFC0EFB1C330CFB00F044EA0344A0421B
:1005400014D92C190CF1FF3304D2A04202D9ACF11A
:1005500002032C44241A43EA07401EB1D44000236E
:1005600034607360BDE8F0874746DDE76346F1E736
:1005700092BB431B01214FEA154EAFB2200CB3FBD7
:10058000FEFC0EFB1C330CFB07F840EA03439845C6
:1005900061D9EB180CF1FF3004D2984502D9ACF1C7
:1005A00002002B44A3EB0803A4B2B3FBFEFC0EFB3A
:1005B0001C330CFB07F744EA0344A7424DD92C191E
:1005C0000CF1FF3304D2A74202D9ACF102032C4450
:1005D000E41B43EA0040C0E7C2F120039540944089
:1005E00020FA03F12EFA03F34FEA154E9040AFB212
:1005F0000343B1FBFEFC0EFB1C10190C0CFB07F8AF
:1006000041EA0041884522D969180CF1FF3004D233
:10061000884502D9ACF102002944A1EB08019BB244
:10062000B1FBFEFC0EFB1C110CFB07F743EA014378
:100630009F420ED9EB180CF1FF3104D29F4202D930
:10064000ACF102012B44DB1B41EA004193E7604619
:10065000E3E76146F7E76046A4E76346B8E783420D
:1006600006D916B9002108467CE7C6E900E0F9E79B
:10067000B3FA83F78FB9834201D3724508D8BEEB32
:10068000020460EB030301209C461EB9002169E7C8
:100690003846FAE7C6E9004CF8E7C7F1200CBB4042
:1006A0000EFA07F522FA0CF42EFA0CF1BA401C43AC
:1006B00020FA0CF3B8404FEA144901431FFA84FEB4
:1006C000B3FBF9F809FB18300B0C08FB0EFA43EAF0
:1006D00000439A4540D9E31808F1FF3004D29A4507
:1006E00002D9A8F102002344A3EB0A0389B2B3FBA9
:1006F000F9F809FB183308FB0EFE41EA03418E4569
:100700002CD9611808F1FF3304D28E4502D9A8F123
:100710000203214443EA0040A1EB0E01A0FB029832
:100720004145CE46434602D306D14D4504D2013859
:10073000B9EB020E68EB0403002EA7D0B5EB0E0256
:1007400061EB030101FA0CFC22FA07F3F9404CEAD1
:100750000303C6E9003199E74046C5E74346D9E7B8
:10076000F7B51B4CA568EB6B03BBEB6A23BB184FBB
:10077000184DA3681B69EBB1012238460DF1070142
:100780009847012816D19DF807202B680A2A01D026
:100790000D2A16D1002BECDD00260F49CE54002285
:1007A00000230E4802F002FF2E60E2E72046984741
:1007B0000028DAD103B0F0BD054898470028D6D10B
:1007C000F8E73E2BDFBF591C29600349CA54D0E724
:1007D000F85900009804002094190020840100209A
:1007E0002DE9F74F1D4E1E4FDFF87880337823B97F
:1007F0004FF4FA7004F02BFFF8E704F070FF4FF4A9
:100800007A74A0FB0405002304FB015147F6122271
:10081000FFF734FE4FF480794FF0000A3B68124C2A
:10082000DFF848B0C51A237C63B12368AB4209D80E
:1008300023796179A2685BB92B46584604F0C9F95F
:1008400084F810A0B9F1010904F11404EBD1CFE749
:1008500000954046E36804F0BCF9F1E7D4190020A4
:100860009C040020CF640000A0040020AC640000C1
:1008700030B5052287B04349044604F04FFFB8B9AC
:1008800004F02DFF4FF47A74A0FB040547F6122202
:10089000002304FB0151FFF7F1FD01223A4B1860E0
:1008A0003A4B3B481A7007B0BDE8304004F091B9AC
:1008B00020463849FFF7FCFD60B90246334B1870FB
:1008C000354B0130B0F5807F1A7403F11403F8D171
:1008D0003248E8E723784D2B26D163783A2B1BD199
:1008E00005AB009320462E4904AB03AA03F064FC39
:1008F000032819D1284A00231146107C70B914220C
:100900005343059CCA18CC509DF80C30107153719C
:10091000049B93600123137407B030BD0133B3F51A
:10092000807F02F11402E8D12378532BF4D163784D
:100930003A2BF1D105AB019304AB00932046194942
:1009400003AB0DF10B0203F037FC0428E4D1124A8B
:1009500000231146107C70B9142253430598CA181D
:10096000C85001239DF80B101371517103999160C8
:100970000499D160CFE70133B3F5807F02F114020F
:10098000E8D1C9E7FC6400009C040020D4190020D1
:10099000026500001F650000A0040020246500001F
:1009A000326500003D65000010B598B01C4C204633
:1009B00004F064FD002830D0A3682BB11B6C1BB180
:1009C0000022204617499847A3681B6A0BB11448B8
:1009D000984700220023CDE9062300230122CDE918
:1009E0000133CDE9032310494FF4806200930F488F
:1009F0000F4B02F035FF0F4804F0EBF80E4C4FF0B0
:100A0000FF324FF0FF33204608A902F01FFE0028F6
:100A1000F5D108A8FFF72CFFF1E718B010BD00BF13
:100A2000F859000061070000001A0020B001002002
:100A3000E10700004B65000084010020014B1B68AA
:100A4000184700BF00000020014B1860704700BF2E
:100A50000000002030B585B004460D46102200216C
:100A6000684604F053FE02238DF80230044B2A46F8
:100A700021466846019303F0BFFB05B030BD00BFBF
:100A80003D0A000080B505460E461746984603F01D
:100A90007DF9034604F056FF0446DFF818904246FD
:100AA00049F8003039463046A84754F8090000F0AC
:100AB00015FB00BF080000002DE9F047058B044638
:100AC0002807904611D4022905F0070540F0CC8094
:100AD000204604F08BF878B10138218B042811D816
:100AE000DFE800F0C2106D85950001290CBF45F0CC
:100AF000100545F02005258388F31188BFF36F8F1B
:100B0000BDE8F08701F0070AAA4500F0A58000279C
:100B1000B9463E46A368002B00F0BC8041F00801B6
:100B2000218388F31188BFF36F8FA168002900F03B
:100B3000BA800D68002900F0B68033465246204640
:100B4000D1F80480C047002D76D02B6829461D4679
:100B5000F0E701F007035A1F012A1BD8002221F0F9
:100B60000701062B276889B2C4E9002209D13B4658
:100B700003E0628B013262831B68002BF9D141F0E4
:100B800002012046218304F031F800287AD041F098
:100B9000200176E0042B0AD121F0070189B220461A
:100BA000218304F023F810B141F020012183218B2F
:100BB00001F0070AAA454FD00027B946AAE72369E2
:100BC00021F0070141F00601062DD3F800902183A2
:100BD0002DD1B9F1000F3FD041F00801218388F3F6
:100BE0001188BFF36F8F20463949C84729E021F0AB
:100BF0000701236941F0040189B2042DD3F8049060
:100C00002183E6D000274FF0040A3E4682E721F018
:100C10000701236941F0050189B2052DD3F8089039
:100C20002183D6D000274FF0050A3E4672E7002701
:100C30004FF0060A3E466DE72B4687E7B9F1000FF5
:100C4000D1D1EFF31188202383F31288BFF36F8F84
:100C5000238B23F008032383258BEA062ED525F06A
:100C60001003238305F007056669218B002EBFF66C
:100C700070AF00232768C4E9003321F0070141F079
:100C800001012183218B4FF0000901F0070AAA45D9
:100C90007FF440AF002F9CD041F00801218388F3FE
:100CA0001188BFF36F8F002FC8D03D683946334697
:100CB0005246204603F0C6FF2F46F4E7AB067FF509
:100CC0001BAF25F02003238305F0070500E700BFD5
:100CD000714C0000014B0360002070470863000066
:100CE00008B5044803F075FFBDE80840024803F06A
:100CF00070BF00BF70650000A565000030BFFFF742
:100D0000FDBF00BF2DE9F04105460B4EDFF82C80FA
:100D1000324606EB0807CC1B2046094904F0E9FCE3
:100D2000A01942460021083C04F0F0FCC5F8A4409C
:100D300007F10800BDE8F081000000000400000099
:100D4000C8620000074A936893F90E10002907DB78
:100D5000526993421FBF044A536843F08053536063
:100D6000704700BF6019002000ED00E0154B9A6A43
:100D700012F0007F9A6A14BF1E201D2012F0807F9F
:100D80009A6A18BF1F2012F4801F9A6A18BF0220A7
:100D900012F4002F9A6A18BF212012F4802F9A6A49
:100DA00018BF222012F4003F9A6A18BF232012F4C1
:100DB000803F9A6A18BF24206FEA02426FEA12420B
:100DC0009A62704700ED00E010B5194B0246986A30
:100DD0009C6A10F4805F14BF1720162014F4006F73
:100DE0009C6A18BF1820A40509D5986B986A00045E
:100DF00004D51AB19A6A22F400429A6219200C4B67
:100E00009A6A12F4806F9A6A18BF1A20D2050CD41D
:100E10009B6A13F4005F18BF1C20054A936A43F4D1
:100E20007F43936200230B7010BD1B20F5E700BFCA
:100E300000ED00E010B51C4B0246986A9C6A10F069
:100E4000100F14BF1120102014F0080F9C6A18BF57
:100E50001220A40709D5586B986A000604D51AB168
:100E60009A6A22F080029A6213200F4B9A6A12F05B
:100E7000010F9A6A18BF142012F0200F9A6A18BF47
:100E80001520D40658BF9B6A074B9A6A920642BF48
:100E90005A6A22F400525A629A6A42F0FF029A6237
:100EA00000230B7010BD00BF00ED00E0F0B5474B14
:100EB00004465B6800258BB0C3F3080385F31188F3
:100EC000BFF36F8F02F07F40B0F17F4F11D102F07E
:100ED0000C0008280DD010074CBF0C46012500223D
:100EE000033B8DF80720032B05D8DFE803F02462CD
:100EF000665F2C46F3E700239DF80720CAB902AECF
:100F000004F12007324620686168083403C2BC42FD
:100F10001646F7D1099A002D53D0C2F3080121B922
:100F20006FEA52226FEA42220992184602A903F0A0
:100F300035FF0BB0F0BD254BDA6A9107DBD4DA6AD6
:100F4000002AD8DBDA6A5200D5D55A69A16942F481
:100F500080725A61BFF34F8FBFF36F8F5A6931F8B8
:100F6000021C22F480725A61BFF34F8FBFF36F8F60
:100F70004DF60272914209D09A6AD2B242B1012072
:100F80000DF10701FFF756FF0346B5E72368B3E706
:100F90009A6A12F47F4F05D001200DF10701FFF787
:100FA00013FFF1E79B6AB3F5803FA4D3FFF7DEFEA2
:100FB000EAE700200DF10701E4E700200DF1070149
:100FC000EDE722F4FF7222F00102ADE700ED00E050
:100FD000064B5A6942F010025A615A6942F4806223
:100FE0005A615A6922F008025A61704700ED00E028
:100FF000EFF30880EFF3098101B57246FFF756FF62
:1010000001BD00BF002015490870002080F314883E
:10101000BFF36F8F002080F30A8880F30B8801F004
:101020004FF900200E490860BFF34F8F0D4880F341
:10103000088800F02DF8202080F311880A484FF42A
:101040000061401880F30988EFF3148002210843FF
:1010500080F31488BFF36F8F00F0F4F8F8190020C4
:1010600094ED00E0402B0020001E002000231846D5
:101070000649D1F89020C2F30722934200DB704763
:10108000C1F89830C1F8A0000133F6E700ED00E0A8
:1010900010B572B6002484F31388FFF7E7FF2346E8
:1010A0004FF0FF300C4A03F120010133102B42F8BE
:1010B0002100F8D100234FF0FF30074A03F160010F
:1010C0000133102B42F82100F8D162B6BFF34F8FE5
:1010D000BFF36F8F10BD00BF00E100E0084B9B68BD
:1010E00083420BD1EFF3058343B1064B5A6842F0BC
:1010F00080525A605A6A22F400425A6204F0B4BA2A
:101100006019002000ED00E06FF00A01094A9368C1
:10111000C3F8AC100849C3F8A8004B6843F08053EB
:101120004B60002383F31188BFF36F8F9368D3F86C
:10113000AC0070476019002000ED00E0EFF3118370
:10114000202383F31288BFF36F8F4FF00061094AA9
:1011500053699360084A5160D3F8A410074A11609C
:101160000021D3F8A820C3F8A81082F31188BFF398
:101170006F8F70476019002000ED00E0A01800207C
:101180000E498A684FF030001044EFF3098C80E874
:10119000F01F74467046FFF7D1FFA64607498A68DC
:1011A00002F1300090E8F01F8CF3098802F1000092
:1011B00004B503F008FEBDE8044070476019002044
:1011C0001EF0040F0CBFEFF30880EFF30980816974
:1011D00011F8021C0229FFD001B503F0E5FD01BDA5
:1011E00000B2002807DB01234109034A00F01F0079
:1011F000834042F82130704700E100E0054B42098E
:1012000053F82220012300F01F0003FA00F01040E1
:10121000704700BF00E100E000B2002801F10101C9
:10122000ACBF00F16040064B4FEA4111C9B2ABBF01
:1012300000F5614000F00F0080F80013195470476A
:1012400014ED00E00B4A08B50B4B22F07F029A60C8
:10125000BFF34F8FBFF36F8FD3F8882022F4700253
:10126000C3F8882002F0F2F802F03AFE00F04EF8DF
:1012700002F030F90000000000ED00E042F8203CF0
:10128000009B0B4942F81C3C019B21F0010142F8F4
:10129000183C029B42F8081C42F8143C4FF0807343
:1012A00042F8043C0023203A0265C0F8A830704799
:1012B000850A000000B50E4B15469860D0F8A420B2
:1012C0000C4B0E461A60D0F8943083F30B882C46F2
:1012D00086F309884FF00000074B984720464FF0EF
:1012E00000014FF000024FF00003044C204700BF04
:1012F00060190020A0180020D14D0000850A0000D0
:101300001022014B1A61704700ED00E000232020FD
:1013100040F20F1210B5044CE1180133934281F8EA
:101320000003F9D110BD00BF00E100E008B5EFF304
:101330000583064A103B02EBC30152F833004968AB
:101340008847BDE80840FFF7FDBC00BF0C5A00000D
:101350001FB5094C094A23460121094800F0FAF853
:1013600000230393074B0121E41A01A8019302947F
:1013700000F0FAF804B010BD00F0022000000020D8
:1013800008630000B001002010B50C7A0B6804F06F
:101390001F0223F01F031A43CB68640923F01F03C5
:1013A000054943EA440343F00103C1F89800C1F83A
:1013B0009C20C1F8A03010BD00ED00E010B5074B37
:1013C000D3F89030C3F30723013B984202D8FFF7CC
:1013D000DBFF10BD6FF01500FBE700BF00ED00E084
:1013E0002DE9F04F0F46144606464FF000084D4DCC
:1013F00085B0B84580F29280D6F80490B9F1000F1C
:1014000036D0B9F11F0F40F2878019F01F0F40F05E
:101410008380D6F800A01AF01F0F7DD1504603F04C
:10142000FAFC834609EB0A00013803F0F4FC83451B
:1014300072D11BF1160F6FD05C456DDDC5F898B009
:10144000D5F89C10C5F898B0D5F8A03021F01F0150
:1014500043F01F0AD6E900321A44994202F1FF39DB
:101460001ED1CA4508D131465FFA8BF003F0DCFC8F
:1014700008F101080C36BCE73146C5F898B0D5F83C
:101480009C3022F01F0203F01F031343C5F89C3069
:10149000E0B203F0C9FC10F1160F3DD0441CE7E7A1
:1014A000C5F898B0D5F8A020013B23F01F0302F047
:1014B0001F021343CA453146E0B2C5F8A030E8D058
:1014C00003F0B2FC10F1160F26D0C5F898B0D5F88D
:1014D0009C209DF808300AF1FF3A62F304038DF86E
:1014E0000830D5F8A0309DF808205B0863F3471258
:1014F0008DF80820D6E900321344009323F01F032F
:101500005344A3EB0903013023F01F036946C0B223
:101510000393FFF753FFBEE76FF01504204605B0B5
:10152000BDE8F08F00ED00E00522044BC3F89420E5
:10153000BFF34F8FBFF36F8F704700BF00ED00E028
:10154000BFF35F8F0022024BC3F89420704700BFA7
:1015500000ED00E010B5034C2278FFF741FF20704A
:1015600010BD00BFD51900202DE9F74F294D8A463F
:1015700006464FF00008AB46274FD0451BDAD6F899
:101580000490B9F1000F3FD031680846019103F093
:1015900042FC0199044609EB0100013803F03BFCD1
:1015A00084424FF014021D4B08D002FB08F36FF089
:1015B00015024BF8032003B0BDE8F08F14F1160FAD
:1015C0002C60F8D01978A142F5DD02FB08B0C7F80D
:1015D0009840C7F89840D7F89C4000F10801007B7C
:1015E00064F304000871D7F8A0000C79400860F398
:1015F00047140C71D7F89C1021F01F016960D7F8CF
:10160000A01021F01F01296108F1010814350C36E2
:10161000B3E700BFA418002000ED00E0D5190020BA
:10162000F0B54149414CD1F890302568C3F3072308
:101630009D4287B075D80020FFF782FF3C4BC1F870
:10164000C030854216D13B4C01A82570FFF742FB04
:1016500000250646384FAE4213D100202378324988
:10166000D1F89020C2F30722934254DBFFF75CFFCE
:1016700000202FE0616801EB0011FFF785FE0130CB
:10168000DFE70199280101EB0513DA683A40B2F56A
:10169000001F21D0B2F5800F2BD0B2F5801F38D1BA
:1016A0005A689B680958013B22F01F00034401203F
:1016B000844623F01F0340EA4C10CDE902218DF847
:1016C000100002A920780593FFF778FE00281DDAA4
:1016D0006FF0150007B0F0BD5A689B680958013BD0
:1016E00022F01F0003444FF0020C012023F01F03DF
:1016F000E1E75A689B680958013B22F01F00034448
:101700004FF0000C062023F01F03D4E723780133A9
:10171000237001359FE7C1F89830C1F8A00001336C
:101720009EE74FF0FF30D5E700ED00E014630000C6
:10173000AAFF4400D51900200000F0FF08B5024BB5
:101740001B689847002008BDB8180020034B044AC6
:101750001860937843F0020393707047B818002024
:101760000400002008B50649064821F00701C1F130
:10177000005202F53C3203F0D2F9002008BD00BF50
:1017800047330020BC18002008B500F083FD00F0AE
:1017900063F841F6F8732548D0F82416C1F308021F
:1017A00003EA5133132182F48072883201FB023341
:1017B0001F4A590ADB0548BF0131C2F80419D0F8A5
:1017C00020364FF47A60C3F30801C3F3094343435F
:1017D00042F21C5081F4807101F2172100FB0133A9
:1017E0004FF47A701B0AB3FBF0F100FB1133B3F531
:1017F000FA7F28BF01310D4BC2F81C17D3F84013F4
:101800001C290CD1D3F84433012B08D13423C2F85E
:101810002436D2F83C3623F40023C2F83C360122A9
:10182000034B0020C3F8002608BD00BF00C0FF0026
:101830000000125048B1054B054A1B68B3FBF2F398
:101840005843044B43F00103184770474000002001
:1018500040420F00F06200000122024BC3F8042452
:10186000704700BF002008E0084B70B5C31A0D4652
:1018700007499B10044659434022064803F0FBFAEF
:101880002B4601462046BDE870401847DC18002072
:10189000B76DDBB6A8590000402373B50B4C00931D
:1018A000041B0B460D460A49A41061430646094A2B
:1018B000094803F00CFB011E05DA30462B4602B046
:1018C000BDE87040184702B070BD00BFDC180020B2
:1018D000B76DDBB6394F0000A859000010B5EFF323
:1018E0001184202383F31288BFF36F8F084A136893
:1018F00023F00201DB07116005D4012003F0F0FCA6
:101900000122044BDA6084F31188BFF36F8F10BD9E
:101910002C19002000E0105070B50022012104466F
:1019200040F20510FFF778FC0F4800F0C7FD0F4BA1
:10193000984215D100F0D2FD26690D49304603F0DA
:10194000A4F900280BDB012535642469084904F15A
:101950001C0003F09AF9002801DB0020E56470BD4B
:101960006FF00400FBE700BF711A00000000AD0B30
:101970003C6300001FB500220123CDE902236B4622
:10198000084ACDF800D0CDF804D003F0CEFA0028F4
:1019900005DB43F609520023684601F0D5FE05B089
:1019A0005DF804FB574F00000C22104B014602FB70
:1019B0000033002030B4D3E90E529863EFF3118066
:1019C000202484F31288BFF36F8F1C6C04F0C004D2
:1019D00044F002041C6480F31188BFF36F8F1DB1C3
:1019E0002B4630BC0248184730BC7047DC1800203A
:1019F000A859000010B4EFF31182202181F312885E
:101A0000BFF36F8F1748036843F0020413F0010F10
:101A10000460154B08D182F31188BFF36F8F01204A
:101A2000986010BC00F070BDD3F80C04C003F2D570
:101A3000EFF3118081F31288BFF36F8F0B490B6CAA
:101A400003F0C00343F002030B6480F31188BFF37B
:101A50006F8F82F31188BFF36F8F002010BCFFF7E8
:101A6000A3BF00BF2C19002000E01050DC1800209C
:101A700010B1012804D07047034B1B6C5B0701D1E8
:101A8000FFF792BF704700BFDC1800202DE9F0413E
:101A9000012207463449D1E8EF3FC1E8E02F002892
:101AA000F9D133B9314932484B60CB608A6003F0D9
:101AB000FFF87B1E012B28D8012F06D12D4BD3F820
:101AC000503403F00303012B1FD003F015FD05462E
:101AD000E8B9294B1B78D3B104220646254BC3F83D
:101AE0000823244CDFF89480D4F84C24D4F84C34E8
:101AF000D20315D503F00303012B01D0012F0FD121
:101B000065B386F31188BFF36F8FBDE8F081EFF303
:101B10001186202383F31288BFF36F8F0125E0E73E
:101B2000BDB1304603F068F9D4F8403413F0FF0338
:101B3000DAD1D4F80821002AD6D0C4F80831D4F874
:101B4000083120220123C4F84034C8F8A0212361C1
:101B5000CAE70021202002F0F9F8E5E70422054B4E
:101B6000C3F80423D1E700BFD8180020C81800200C
:101B7000F818002000E01050F819002000E100E003
:101B800008B5074803F07AFC38B10648FFF7DEFDD8
:101B90000448FEF759FF002008BD6FF01200FBE774
:101BA000F8590000A91B00000A2838B50446074D63
:101BB00004D1AB680D2128465B689847AB680348A1
:101BC0005B68E1B29847204638BD00BFF859000075
:101BD00038B545682B69E3B11035284601F0FAF8AD
:101BE0000446B0B90146284601F0B6F80B4B9842BE
:101BF00011D1224628460A4901F082F822460121E5
:101C0000DB20FFF709FB2246012140F20D10FFF710
:101C100003FB002038BD6FF00400FBE70000AD0BB4
:101C2000A91D00002DE9F04340F206354668D006B4
:101C300048BF0320337B02EA050558BFC2F34010BA
:101C400087B001F01F07B5F5837F144647EA4317B5
:101C50008DF8030046D00FD8062D45D007D8B5B172
:101C6000022D14D06FF0150007B0BDE8F083B5F574
:101C7000807FF7D101250AE040F20222954235D05B
:101C8000B5F5407F34D0B5F5007FEBD104250123B5
:101C9000220303FA01F12DD573685960326972BBD2
:101CA0005F2F07F01F034FEA571175D83C4A52F8CF
:101CB000212084F4803102EB8302D2F88030C1F31A
:101CC0000041C4F3404423F4706344EA410423F028
:101CD0000F031C4344EA800444EA0524C2F8804010
:101CE0000020C1E70925D2E70825D0E70625CEE781
:101CF0000525CCE7630344BF73689960CEE71036CF
:101D0000394630460DF1020201F008F814F4403F64
:101D100080460CD13946304603F0A7FB214B98454D
:101D2000DED130469DF8021001F062F8D8E74FF09E
:101D3000000901AB3946304603AACDE90439CDE9A3
:101D40000199CDF80C9000F051FE164B984289D1C4
:101D500014F4003315D09DF8033084F48034C4F3B8
:101D600000448DF80E3039464B46304603AA8DF8B4
:101D70000C508DF80D4000F02FFF0A4B9842CDD04B
:101D800070E7CDE9043339460DF10303304603AA69
:101D9000039300F02BFEF0E7203352F82330FFDEF0
:101DA000746300000000AD0B4209022A034670B5BF
:101DB00003D0012A18D0CAB170BD0E4E32695168E5
:101DC0000029F9D0012503F01F030C689D4000296C
:101DD000F2D08A682A4002D030464B6898473CB11E
:101DE000236821461C46F2E7034EE7E7034EE5E78A
:101DF0002346F6E7E4590000D0590000BC59000022
:101E0000F0B5406801F01F04057B87B044EA451433
:101E10000569002D63D0B2F5001F00F1100506D151
:101E20002146284603F023FB002007B0F0BD002721
:101E3000B2F5800F01AE019777603BD1B3F1007F1F
:101E400014BF052304238DF804300023CDE9046377
:101E50000393836823FA01F111F001011CD1B2F15F
:101E6000A07F19D104F01F035F2C4FEA541003F137
:101E700020033AD81E4A52F8202052F82330DB07BC
:101E80000AD40DF1030632462146284600F046FFEB
:101E9000184B984219D002962146284603AA00F012
:101EA000A5FD154B98421DD101222146284600F080
:101EB000B7FFB9E7B3F1C06F05D0B3F1007F14BF2E
:101EC00001230223BFE70323BDE73146284600F084
:101ED0009BFF094B9842DED06FF00B00A5E76FF037
:101EE0008500A2E76FF015009FE751F82330FFDE71
:101EF000746300000400AD0B0000AD0B036803F039
:101F00001F025F2B02604FEA53129ABF024B53F835
:101F100022000020704700BFEC6300002DE9F04F65
:101F20001546064640F2FF18DFF83C91DFF83CA169
:101F300085B000EB8101B14203D1002005B0BDE8BE
:101F4000F08F3368C3F3C322082AC3F3080400F2F6
:101F500084801B0E444508BF4FF0FF3419F802700F
:101F6000192B7DD8DFE803F00D1C47604A50607CD8
:101F70007C7C7C7C7C7C7C7C7C7C7C7C7C7C636DC9
:101F80007073C5F80446621C3CD04FF0010B03A8E7
:101F90000394FFF7B3FF039B0BFA03F3436005E0E1
:101FA000C5F80C46601C2DD04FF0000B5A46336824
:101FB000039403F40040002818BF002203A818BFB0
:101FC0004FF0010B01930092FFF798FF039C019BD8
:101FD00000EB8400D0F88040C3F3412C009A3B0210
:101FE00043EA8C03134304EA0A04234343EA4B0302
:101FF000C0F8803006E0C5F81046C4E7631CC5F899
:10200000004627D1043696E7601CC5F80446F9D08F
:102010004FF0010B03A80394FFF770FF0122039B0D
:1020200002FA03F38360C2E7C5F80846BAE7C5F8C9
:102030006045621C3368E5D0C3F30043002BE7D052
:10204000A3E7C5F86445F4E7C5F86845F1E7C5F8C6
:102050006C45EEE74FF0000BDCE76FF015006DE725
:102060006FF085006AE700BF11660000F0F0FCFF2A
:102070002DE9F04104460D46476803F03DFAA0B94A
:10208000274B1B788BB14FF02008642663681B68D0
:10209000D3F830318BBB012003F020F9013EF5D19C
:1020A0000021202001F052FEEFE72021EFF3118301
:1020B0001A4681F31288BFF36F8F60680068D0F80A
:1020C000300120B983F31188BFF36F8FEEE73B6ACD
:1020D00000201D706368396A1B68C3F83C17012132
:1020E000C3F84017C3F83001D3F83001196582F303
:1020F0001188BFF36F8FBDE8F081EFF311831A46AB
:1021000088F31288BFF36F8F61680968D1F83011C6
:102110000029DCD183F31188BFF36F8FC0E700BFC4
:10212000F819002073B514461D46684600F040FFBC
:10213000009BA342019BAB4114D30B4AD2E900613F
:10214000A41B24F01F0365EB010064099B1941EBFC
:10215000000144EAC060C2E9003102B0BDE870404D
:1021600001F098BF02B070BD6002002010B50022DF
:102170000121E420FFF750F8002000F04BFF114B45
:102180000446984208D101200F4900F0D9FFA0422F
:1021900005D00E4B984211D04FF0FF3010BD672292
:1021A0000B4B02201A60FFF771FC0A4A0020D2F89C
:1021B000183723F44033C2F81837EFE76FF00B00FD
:1021C000ECE700BF0000AD0B3C0000200200AD0BAF
:1021D0005419002000200E5007B5684600F0E8FEB4
:1021E0000098074AD2E90032C01A019B4FEA50100A
:1021F00063EB020340EAC36003B05DF804FB00BF79
:10220000600200207FB5431C18BF20EAE07502A8D9
:1022100008BF6FF0004500F0CBFE02990E4B202066
:10222000D3E900268C1A039961EB06032146C5FB0E
:102230000013402973F1000436BF014621F01F014D
:10224000002352184FF0010146EB030300910348AD
:1022500000F0DAFF04B070BD6002002034000020FE
:1022600003689A070CD50368DB070DD50922074BD5
:10227000C3F80C250F22C3F8042501221A60FEE7DB
:10228000034B0360EF3B0360704700BF00801050BA
:10229000F000FA50064BD3F80438012B05D0032B7D
:1022A00002D1044B044A1A607047024B034AFAE712
:1022B00000001250400000200090D0030020A10731
:1022C000012208B52A4B2B48C3F80028FFF7C8FFA6
:1022D0000830FFF7C5FF0830FFF7C2FF0830FFF7EF
:1022E000BFFF00F5F470FFF7BBFF234AD2F88C3034
:1022F00043F44063C2F88C300022D30003F57F031F
:1023000003F54043D3F8001401310AD0D3F8001488
:1023100039B1D3F800140132D3F80434402A0B60E9
:10232000EBD1134BD3F84024EAB1144BD3F840233C
:102330001C2A0CD1D3F84423012A08D1D3F8342322
:102340000F4B9A429EBF0A4B0E4AC3F840260A4AD8
:10235000D2F88C3043F44063C2F88C3000220A4B30
:10236000C3F8A02508BDC822C3F84024DDE700BF9C
:102370000000125000C50D5000ED00E000C0FF004D
:10238000001D0A1840E0A91E00B0045030B50468D2
:10239000ACB1B4FA84F30122C3F11F03DBB29A405B
:1023A00024EA0202D0E8EF5FA54204D1C0E8EC2F96
:1023B000BCF1000FF6D1EAD102480B7030BD0248E3
:1023C000FCE700BF0000AD0B0200AD0B10B50368C9
:1023D000CB40DB0710D401238B40026843EA0201A3
:1023E000D0E8EF4F944204D1C0E8EC1FBCF1000FDD
:1023F000F6D1F2D1014810BD0148FCE70000AD0B59
:102400000400AD0BF7B5044618B1012822D003B083
:10241000F0BD0422284B0646C3F8082301225A6166
:10242000C3F80801D3F80831002342F21075224F97
:102430008DF80730D4B1012CE9D1D7F80C3403F46E
:1024400080338EBB002BE2D0012002F047FF013D1C
:10245000F3D1DCE70022184B0DF10706C3F808039F
:102460005860C3F80021D3F80031DDE7D7F84C34C9
:1024700003F480333EB9002BC9D0012002F02EFFB7
:10248000013DF3D1C3E7D7F84C2402F003023270C8
:10249000002BBCD09DF80730002BB8D1012002F0F2
:1024A0001DFF013DC6D1B2E7002B0CBF0123002365
:1024B0003370EFD1ABE700BF00E01050044B1A7946
:1024C00022B9012218601A71024870470248704709
:1024D000581900200000AD0B0C00AD0B08B5084BDF
:1024E0001B6843B140F20510FEF788FE18B940F2B0
:1024F0000510FEF775FE0022024BC3F8402408BD0C
:102500005819002000E0105010B510B1012844D037
:1025100010BD274BD3F84C14D3F84C24C80323D553
:1025200002F00303012B04D013B10020FFF76AFF70
:1025300000231F4A0420C2F8403410224FF4847351
:10254000002103F1A04303F5871319601C680124DF
:1025500002F1A04202F587121460164A126802B313
:10256000134BC3F80403D3E7D3F84824D107DFD5CE
:10257000D3F850249207D8D40E4A12681AB1042214
:10258000C3F80423C4E7D3F80821002AFBD00022B3
:10259000C3F80821D3F80831BAE700224FF480735A
:1025A000CEE71A68002AFCD019601B68B0E700BFAC
:1025B00000E010505819002010B51E4BD3F8002130
:1025C00052B10020C3F80001D3F800210122C3F862
:1025D0000823194B1B689847164BD3F8082172B192
:1025E0000022C3F80821D3F80821D3F84C24D3F8EB
:1025F0004C24920714D10122C3F840241A610D4BD8
:10260000D3F80421A2B100220220C3F80421D3F898
:102610000421C3F80803084BBDE810401B681847A5
:102620000422C3F80823044B01201B689847E6E7FF
:1026300010BD00BF00E0105058190020036803F0DF
:102640001F025F2B02604FEA53129ABF024B53F8EE
:1026500022000020704700BF88640000034A43093D
:10266000D35C00F01F001844C0B27047256600001C
:1026700070B505460846FFF7F1FF36212A79174B5A
:1026800001FB0202083233F81200C10525D56C2483
:102690000026C0F3432120F4F85023F812002A79D1
:1026A00004FB02340E3434F8020F10F4807F03D0A0
:1026B000C0F34320814210D00136232EF3D16C2089
:1026C0000024424302EBC1029C502A79BDE87040CD
:1026D00000FB02306030FFF779BE70BD440000207F
:1026E000F0B50646002487B0114F019117F8012B71
:1026F00006AB03EBD20313F8143C02F00702D340FD
:1027000013F0010306D10134032CEFD10023184646
:1027100007B0F0BD074A03AD07CA85E8070055F8C2
:1027200024100A6A46F824200A62002AEBD0EEE759
:1027300035660000D062000010B504460846FFF779
:102740008DFF362303FB0400024B083033F81000E2
:10275000400B10BD4400002010B504460846FFF7AA
:102760007DFF362303FB0400034B083033F81000D1
:10277000C0F3400010BD00BF4400002010B5044667
:102780000846FFF76BFF362303FB0400034B0830BA
:1027900033F81000C0F3401010BD00BF440000200B
:1027A0002DE9F04F0D46D0F8141387B0C9B241F4AB
:1027B0000031AA6D009002F00CFE810306462ED572
:1027C0000023696E03A8CDE903330593FFF788FF63
:1027D000DFF868A1DFF868B10DF10C091AF8013BC8
:1027E00005EBD30292F8642003F0070322FA03F307
:1027F000DA076AD4534B09F1040953450BF1010B75
:10280000ECD14FF40031AA6D009802F0E2FD696E40
:1028100003A8FFF765FF0028DAD126F4003601246B
:10282000002E73D107B0BDE8F08F91FAA1F1B1FA93
:1028300081F19BF8004041EA44142046FFF70EFF67
:10284000083035F81080C8084FEA98030193012337
:1028500019F8002001F0070103FA01F122EA010250
:1028600009F8002002A80294FFF7E8FE029A019BF3
:10287000203250F82220C8F382075B07B846C2F323
:10288000014227D52846D7B22146424602F082FDB2
:1028900002A80294FFF7D2FE029B203350F82330A7
:1028A000C3F301439F4207D10021204602F063FD9C
:1028B0003946204602F05FFD02A80294FFF7BEFEF3
:1028C0000122029B02FA03F30362D9F800100029E7
:1028D000ABD18FE7022A0DD10321204602F04BFD38
:1028E00007F00503012BE7D142462146284602F0B6
:1028F00051FDE1E702212046019202F03CFD032F49
:10290000F2D0019A032AD7D1022FECE796FAA6F368
:10291000B3FA83F304FA03F226EA0206009A284681
:1029200002EB8303D3F81015D3F81025C1F3081177
:10293000C2F3014202F02EFD72E700BF35660000CF
:1029400035660000386600002DE9F7430546084665
:10295000FFF784FE36222B79204F02FB0303083356
:1029600037F813300E46DB07044635D5284602F00B
:1029700057FD95F8049031464846FFF7FFFE60B1D9
:102980004846FFF7D9FE0022D5F8008000B208EBD8
:102990008003C3F81025C3F8102528463146FFF7F9
:1029A00067FE36222B7901A802FB0344002308347A
:1029B00027F814300196FFF741FE019B00EB8300DE
:1029C000D0F88020064B134043F00203C0F880305B
:1029D000044803B0BDE8F0830348FAE74400002050
:1029E000F0F0FCFF0000AD0B0400AD0B2DE9FF473C
:1029F000174604460846FFF731FE3E6888460546FE
:102A000076B394F804904846FFF7A6FE18B14846FE
:102A1000FFF7B4FEA0BB00234046CDE900338DF89C
:102A20000E308DF80F300DF10F0233460DF10E010F
:102A300002F058FC36202379644A00FB0353083324
:102A400032F8131021F0020122F81310237900FB51
:102A50000353083332F8131041F0010122F8131028
:102A60007B68002B45D026794146304693F800908C
:102A7000D3F804A0FFF770FE20B1BAF1000F22D006
:102A8000534839E04FF0360C0CFB06564F490836D8
:102A900031F8163023F4604323F0200321F8163078
:102AA000BAF1000F0FD0B9F1030FE9D87B6826689F
:102AB0005B68187806EB8006B9F1000F1FD1C6F8E5
:102AC0001095C6F8109536202379404A00FB035331
:102AD000083332F8131021F01C0122F81310237967
:102AE00000FB0353083332F8131041EA890122F83E
:102AF0001310BB6863BB374804B0BDE8F087D6F855
:102B0000102522F00302C6F81025226802EB80038C
:102B1000D3F8102522F4473222F47C72C3F8102532
:102B200041F6F072D3F8106502EA081242EA09424F
:102B30003243C3F8102523790CFB0353083331F8D3
:102B4000132042EA403242F0200221F81320BAE773
:102B50004146D3E900972046FFF78AFDB9F1000FFF
:102B6000C9D06C232079194E4343F218F358994584
:102B700004D153689F4201D100210CE06C2303FB78
:102B800000600DF10F016030FFF700FC114B98421F
:102B9000B2D19DF80F106C222379534303EBC1038C
:102BA00046F8039023795343362203EBC1033344A1
:102BB0005F60237902FB0353083336F8132042EA9F
:102BC000412242F4807226F8132094E7440000204A
:102BD0000400AD0B0000AD0B2DE9FF47054608468C
:102BE00017461E46FFF73AFD8946044687B395F817
:102BF00004804046FFF7B0FD18B94046FFF7BEFD20
:102C000068BB362303FB0848DFF8E4A008F1080896
:102C10003AF8183013F01C0F02D07B78012B1ED02D
:102C200001238DF80F3000237A1CCDE9007348464C
:102C3000BB1C0DF10F0102F055FB36222B7902FB74
:102C4000034308333AF8132042F003022AF8132012
:102C5000002E4BD049462879FFF77EFD18B925484C
:102C600004B0BDE8F08700214FF0360C30782B68B7
:102C7000820003EB8003C3F81015C3F810152B79FD
:102C80001B490CFB0343083331F8137027F46047EA
:102C900027F0200721F8137077783FB32B68B678B8
:102CA0001A44D2F810E5144B3F040EEA0303C2F8AD
:102CB000103541F6F07307F4403703EA091336057F
:102CC000D2F810E53B4306F48016334343EA0E0383
:102CD000C2F810352B790CFB0344083431F814305A
:102CE00043EA403343F0200321F814300348B7E7A8
:102CF000440000200400AD0B0FE0ECFF0000AD0B22
:102D000030B56C250479044B05FB0434A1600179CE
:102D100005FB0133DA6030BD4400002070B5067950
:102D200014463046FFF72AFD68B10846FFF796FCC7
:102D3000362303FB0600054B083033F810300448F7
:102D40005B0B237070BD0348FCE700BF440000200C
:102D50000000AD0B0400AD0B2DE9F04106460779EC
:102D60006C20194D00FB075898F868404CBB404652
:102D700021464622103002F0C9FC21463068D8F8BE
:102D800058608E4213D10023C0F84431D0F844314A
:102D9000C0F308300130FEF723FA6C2303FB07551C
:102DA00001230A4885F868302B66BDE8F081CBB274
:102DB0009B0003F58072442B04BF8450835801317B
:102DC000DFE70348F1E700BF440000200000AD0B3F
:102DD0000C00AD0B6C210279044B01FB023393F81C
:102DE0006800003818BF0120704700BF4400002071
:102DF0006C235C22007913FB002302481844FFF780
:102E0000E5BA00BF440000206C235C22007913FB6C
:102E1000002302481844FFF7B9BA00BF440000205D
:102E20002DE9F34103681746D3F8142304469203AF
:102E30005CBF4FF40032C3F8142306790D463046C8
:102E4000FFF79CFC08B33046FFF786FC8046E0B9EC
:102E50003046FFF771FC05B22168AD0005F58072C0
:102E600041F802808A5821682944D1F8102542F09F
:102E70000102C1F810252FB10122216802FA00F3E6
:102E8000C1F8143302B0BDE8F0812846FFF7E6FB35
:102E9000362303FB06000F4B083033F81030C3F322
:102EA0008203042B11D0052B11D001A80195FFF747
:102EB000C5FB019AC368D34003F00103991C28465F
:102EC00002B0BDE8F04102F056BA0321F7E7022153
:102ED000F5E700BF4400002001490248FFF760BC4D
:102EE0004400002000A00D5001490248FFF758BCE3
:102EF000B000002000C0105070B5002367240126E8
:102F0000027A94FAA4F1B1FA81F1914203F1010538
:102F100018D100210C24120102F1A04202F5622214
:102F2000C2F82C150A4ADBB204FB03230168D960FE
:102F3000416819610121007A1875936881400B433B
:102F4000936070BD06FA01F12B4624EA0104D8E72C
:102F50001C010020074B027AD3F8101521F0010163
:102F60000A43C3F810250268C3F8A4264268C3F8D0
:102F7000AC26704700200E50012303FA00F010F039
:102F8000670F0AD0064B5B68DB4303F0670303421D
:102F9000044B054818BF184670470448704700BFE7
:102FA0001C0100200000AD0B0400AD0B0800AD0BB0
:102FB000002300222DE9F048C0E90023114BD3F88B
:102FC00010359B071CD5EFF31181202383F3128862
:102FD000BFF36F8F4FF0FF356FF040440A4ED6E9D4
:102FE00000BC5D4574EB0C07F9D3CCF31303C0E9C7
:102FF00000B381F31188BFF36F8F0448BDE8F088F8
:103000000348FBE700200E5040270E500000AD0B98
:103010000100AD0BF0B53F4C85B02578002D75D182
:103020003D4A01AB07CA83E807003C491846D1F87E
:10303000102522F00202C1F81025FFF78BFF0723AD
:10304000672202F001012944013BCDB24FEA52024E
:10305000F7D1052D5CD11A4601272E480025672699
:103060005FFA82FC96FAA6F15FFA85FEE645B1FAB0
:1030700081F145D30132052A017500F10C00EDD133
:103080000120002526499A0800FA02F212F0670F83
:103090001CBF5D505A580433302BF4D1E420FEF7A6
:1030A0009FF81E4B1F49D3F8182703F5C07322F46D
:1030B000403242F48032C3F89825D3F8902322F0AE
:1030C0000202C3F8902340F6FF72C3F8A821002241
:1030D0001A60A3F5807004338B420260F8D1012599
:1030E0000E4B114A1D66114B5D201B68B3FBF2F3BA
:1030F00058430F4B2B4398470E48257005B0F0BD41
:1031000007FA01F126EA01060135ABE70A48F5E7BF
:103110000A48F3E71C010020DC62000000200E508A
:1031200000210E50B0210E5040420F004000002000
:10313000006300000000AD0B0C00AD0B0100AD0BF7
:1031400073B52A4C054663680E4603F0010304F18B
:10315000140101A80193FFF719F9254B98423DD1BD
:1031600000233370636823F001036360A36843F0B6
:103170000103A3601F4BD3F81025960732D4D3F870
:10318000102542F00202C3F81025C5B1D3F8482734
:1031900012F0010202BFD3F8481741F00101C3F851
:1031A0004817144BD3F84017D3F844174C00F9D400
:1031B0002AB9D3F8482722F00102C3F848270E4B5A
:1031C0000E4A1B68B3FBF2F30A4A03EB43135BB1ED
:1031D000D2F84017D2F84417490001D402B070BDAC
:1031E000013BF4E70648F9E70648F7E71C01002031
:1031F0000000AD0B00200E504000002040420F00A8
:103200000C00AD0B0700AD0B2DE9F0410446007A30
:103210001D46FFF7B1FE1A4B1746984206469DF829
:10322000188029D12046FFF767FEEFF31180202395
:1032300083F31288BFF36F8F227A124B92001344EC
:1032400000221A60217AC5F31305090101F1A0419A
:1032500001F562211B68C1F82075C1F8245580F37F
:103260001188BFF36F8FB8F1000F05D00123227AC8
:103270009340054AC2F824333046BDE8F08100BFD0
:103280000000AD0B00210E5000200E50F7B5254A6E
:10329000002053689268DB4303F0670313401C4629
:1032A000012607460CBB01271F4B1E4DD3F8206398
:1032B0000640287D07FA00F333420FD0E96869B170
:1032C0000201D5F810C002F1A04202F56222D2F844
:1032D0002435D2F82025CDF800C088470134052CCC
:1032E00005F10C05E5D103B0F0BD94FAA4F5B5FAEB
:1032F00085F5AA0002F58071920806FA02F21342DF
:103300000BD001F1A04101F56221D1F800C0BCF160
:10331000000F02D00F600968104306FA05F524EA91
:103320000504BFE71C01002000200E5038B5EFF364
:103330001185202383F31288BFF36F8F064B9C689F
:1033400002F0AFF885F31188BFF36F8F2046BDE818
:103350003840FDF7C3BE00BF6019002038B5094BE7
:1033600053F82040013053F82050A54200D838BD12
:10337000636823B1204602F097F80834F5E7236824
:103380009847FAE794640000012270B52A4B0320A5
:1033900086B01A70FFF7E2FFFDF7A2FC02F0A0F87A
:1033A0000420FFF7DBFF254C254D2646AE4204F1F5
:1033B000300410D300F00CFC204C224EAC4226D33B
:1033C00000F01AFCFDF7F0FA1F4A137B23F001030B
:1033D000137306B070BD54F80C3C059354F8103CC0
:1033E000049354F8143C039354F8183C029354F893
:1033F0001C3C019354F8203C009354E90A2354E9FF
:103400000C0100F0C7F954F8303C5E65CDE7D4E913
:103410000A23B3F1FF3F08BFB2F1FF3F05D052EAE4
:103420000301206803D102F06DF83034C6E731465D
:10343000183000F0B5FDF8E7F819002084620000AC
:1034400084620000115600001803002008B50348EC
:10345000034A0021121A02F03FF808BDB001002013
:10346000FC190020B02370B5144E86B003FB006633
:10347000134B012205930F23CDE903320023CDE93D
:10348000013314234FF4A0720E4D0F4903FB005576
:10349000044602FB00110D4B3046009500F07AF90E
:1034A000737B2C7423F004037373094B013403EB17
:1034B000C423EE606B6006B070BD00BF68020020E0
:1034C000386600006019002000260020E354000048
:1034D000001E0020BFB50020FFF740FF2B4B03F577
:1034E000006282F3088883F30A880024E023284DD1
:1034F000284E85F82230EC772C766C76AC766B6AA9
:10350000254F43F4E0236B6285F82340FDF760FD0F
:10351000FDF7F6FE4FF0FF33AB62EB62FEF780F88B
:10352000FDF716FF40F201121C4B1D4D9A81B3604E
:10353000C3E92544C3F8A04001F09FFF0120FFF735
:103540000DFF0220FFF70AFF00F076FB154B7561B7
:103550000593012314494FF48062CDE903432846C3
:103560003B46CDE90144009400F014F906466A7B1D
:10357000284622F004026A7302F000F82046FFF7A2
:1035800071FF3A4631462846FDF794FE001E0020A2
:1035900000ED00E06019002089330000C80300201E
:1035A000180300203D660000402700202DE9F3416C
:1035B00004460E4600F10808EFF31187202181F33D
:1035C0001288BFF36F8F056AC1688D422BD202F05B
:1035D00023F831460546A26880B10024406902F014
:1035E00088F82846C5F8AC4001F0C8FF4046394687
:1035F00000F0AAFA204602B0BDE8F081E06902F0CE
:1036000078F80020E369A26813446269E361934299
:1036100004BF2369E361236A0133236287F31188BE
:10362000BFF36F8FE7E752EA03010AD006498968C2
:103630004E61CDE9002339460246404600F058FA73
:10364000D9E76FF02200E9E760190020F7B50446DA
:10365000084604F10807EFF31186202181F3128850
:10366000BFF36F8F216A002932D0A268A16902F0EE
:1036700040F8A369A268204613446269A36193429B
:1036800004BF2369A361236A013B236201F0C4FFE5
:10369000054668B34169A268E06902F02AF8E36967
:1036A000A268284613446269E361934204BF236918
:1036B000E361236A013323620024C5F8AC4001F0C2
:1036C0005DFF3846314600F03FFA204603B0F0BDBA
:1036D00052EA03010AD0094989684861CDE900230B
:1036E00031462246384600F003FAEFE76FF0220039
:1036F00086F31188BFF36F8FE8E700BF60190020E1
:1037000038B50446EFF31185202383F31288BFF305
:103710006F8F01F081FF50B10022C0F8AC2001F0A2
:103720002DFF2946BDE83840064800F00DBAD4E91F
:1037300002329A4218BF0133A36085F31188BFF3A8
:103740006F8F38BDF919002013B5EFF311812024D4
:1037500084F31288BFF36F8F846844B1013C8460A6
:1037600081F31188BFF36F8F002002B010BD52EAC1
:10377000030406D181F31188BFF36F8F6FF00F0040
:10378000F3E7CDE900230246014800F0B1F9ECE788
:10379000F91900202DE9F04F984685B000F1580343
:1037A000C0E91633129B002503730423D61D26F0AF
:1037B00007064373119B01EB060A0F46C0E9065545
:1037C000514685608373C5730446DDF838B0DDF873
:1037D0004C90FDF797FA109B073020F00700C4E9E2
:1037E0002576C4F89C0002930F9BAAEB0006CDE956
:1037F00000B33246434639462046FDF73FFD0F9B56
:10380000C4E9188BA366109B6565E366EFF311832B
:10381000202282F31288BFF36F8F104F3A6A3C6206
:10382000226783F31188BFF36F8FB9F1000F11D0B6
:103830001F22494604F1740001F082FF84F893507E
:10384000BB680BB1D3F8A0303046C4F8A03005B047
:10385000BDE8F08F84F87490F2E700BF6019002093
:10386000F0B5002587B00595109DDDE91276049529
:103870000F9D044603950E9D02950D9D01950C9D8F
:103880000095FFF787FFB6F1FF3F08BFB7F1FF3F95
:1038900005D056EA070305D1204600F067F9204617
:1038A00007B0F0BD3A463346024904F1180000F073
:1038B00077FBF4E71156000038B50D4D2B4653F851
:1038C000184F9C4200D004B9EC68AB6838B95A7BF9
:1038D000D20604D1A26912B9DA897F2A05D89C429E
:1038E00002D0204600F086FA23466B6138BD00BF47
:1038F0006019002008B590F90D200146002A437B8D
:1039000004DA03F07F03437301F0FEFD044B986873
:10391000431A58425841BDE80840FFF7CDBF00BFE9
:103920006019002070B490F90D30427B002B29DB28
:10393000D30627D183692BBB134962F07F02427300
:103940000A4652F8184F944218BF2346CC6923B94F
:10395000C0E900242060C8610CE090F90E5093F992
:103960000E60B5420AD0AE4208DD5A68C0E90032A6
:1039700010605860002070BCFFF79EBF9C42E7D0EB
:103980001B68E4E770BC704760190020002A2DE92D
:10399000F0410E460CBF10210821427B0446114223
:1039A0000FD141EA0203D20918D1437308291BD071
:1039B0000120FFF781FFBFF35F8F637B23F060037C
:1039C00063732C4B9B68A3424ED1EFF30583002B0E
:1039D0004AD13046BDE8F041FDF796BB03F07F03C6
:1039E000437301F091FDE1E7A36813B1204601F0B4
:1039F00093FD04F1180001F059FEA56D04F158077C
:103A0000AF4211D04FF0000875B1284601F084FD97
:103A100005F1180001F04AFE2846C5F8AC80FFF712
:103A200081FFA56DAF42EFD1124DAB689C4206D02D
:103A30000120FFF741FF204600F034FABBE7EFF327
:103A40000583002BF4D00120FFF736FF204600F05D
:103A500029FA40F20112084B9A810022AB60C3E9B7
:103A60002522C3F8A020A6E786F31188BFF36F8F45
:103A7000BDE8F08160190020C803002070B590F9FE
:103A80000D200146002A437B04DA03F07F034373D1
:103A900001F03AFD154A4B7B104663F07F034B73F0
:103AA00050F8183FD469834208BF002323B9C1E905
:103AB00000042160D1610CE091F90E5093F90E6081
:103AC000B5420ED0AE420CDD5868C1E9003001604D
:103AD00059609068BDE87040431A58425841FFF75A
:103AE000EBBE9C42E3D01B68E0E700BF60190020FA
:103AF000F8B5124B0C46DDE9067611469868104A77
:103B00001060EFF31182202282F31288BFF36F8FCF
:103B10009D68284601F00AFDB6F1FF3F08BFB7F1E6
:103B2000FF3F06D03A463346064905F1180000F03B
:103B300037FA2046BDE8F840FDF7E6BA60190020E4
:103B4000841900201156000049B9EFF3058030B9FF
:103B5000054B5A699B689A4201D0FDF7D5BA81F3AB
:103B60001188BFF36F8F70476019002010B5EFF315
:103B70001184202282F31288BFF36F8F427B51079A
:103B800004D484F31188BFF36F8F10BD22F00402B8
:103B90004273FFF7C7FE2146BDE810400148FFF71A
:103BA000D3BF00BFF9190020034648B9EFF30582DF
:103BB00032B9064A51699268914201D0FDF7A4BA20
:103BC00083F31188BFF36F8F704700BF6019002027
:103BD000EFF31181202383F31288BFF36F8F054B1E
:103BE0009A68D37B013BD37381F31188BFF36F8F46
:103BF000704700BF6019002038B5EFF3118520240D
:103C000084F31288BFF36F8F0A4B00209A68D37B2E
:103C10000133D373FFF750FE85F31188BFF36F8F25
:103C2000EFF3118084F31288BFF36F8FBDE8384043
:103C3000FFF7BABF60190020024B03F11802C3E975
:103C40000622704760190020F8B5EFF31185202394
:103C500083F31288BFF36F8F19498868437B03F0A1
:103C60007F03437301F050FC08468B685A7B62F077
:103C70007F025A7350F8182FCC69824208BF002285
:103C800022B9C3E900042360CB610CE093F90E6014
:103C900092F90E70BE420ED0B7420CDD5168C3E9F6
:103CA00000210B6053600120FFF706FE2846BDE8A7
:103CB000F840FDF729BAA242E3D01268E0E700BF5E
:103CC0006019002050EA01032DE9F04105460E4637
:103CD00003D1FFF7B9FF00202BE0831C71F1FF3304
:103CE00029DB01F0F8FC2C18EFF31188202383F373
:103CF0001288BFF36F8F124F124BB8681860FFF72E
:103D0000F9FDB86810492A463346183000F048F9E2
:103D1000BA684046537B43F010035373FDF7F4F940
:103D200001F0D9FC201A63EB0303012873F10003AF
:103D3000D1DBBDE8F0816FF00104241AD4E700BFA5
:103D4000601900208419002011560000B1F1FF3FD6
:103D500008BFB0F1FF3F38B506D10B4B986801F0B2
:103D60001CFC4FF0FF3038BDFFF7ACFF4FF47A7505
:103D70000446002147F6112047F612220023C4FB17
:103D80000501FCF77BFBEEE760190020014B98680A
:103D9000704700BF601900200122044BC01A044B79
:103DA000C0105843034B1A54704700BF78040020DA
:103DB000ABAAAAAAF9190020C3897F2B12D80A4BF3
:103DC0001B6863B1094B90F90E201B689A4209DB0E
:103DD000437BDB0606D1064BC31A18BF012303F051
:103DE000010070470023FAE78C1900208819002091
:103DF0006802002070B50E4B0E4C1E7C054606EB8B
:103E0000460304EBC304204601F050FC00220A4B99
:103E100028469A55FFF7D0FF48B1084B2046BDE829
:103E200070401A680649013AD31700F0B9B870BD5E
:103E30006019002078040020F91900208C19002056
:103E4000993D000038B5EFF31185202383F31288E4
:103E5000BFF36F8F104B114A9C681068A04206D1C7
:103E6000FFF7C8FF85F31188BFF36F8F38BD0021BE
:103E70001B7C11600A4AD35C002BF3D02046FFF76D
:103E80009BFF0028EED0637BDB0602D12046FFF7C4
:103E9000F5FD2046E4E700BF6019002084190020EA
:103EA000F9190020EFF31181202383F31288BFF367
:103EB0006F8F0A4A136A834207D11B6F136281F323
:103EC0001188BFF36F8F70471346002BF7D01A6F1E
:103ED0008242F9D1026F1A67F1E700BF6019002032
:103EE00008B50648064A0749121A01F0F7FABDE874
:103EF0000840054A0549064801F0F0BA00000020D4
:103F0000AC01002060660000000000006066000058
:103F100000000020034B1B680BB9FEF75DB90020C1
:103F2000704700BF9019002030B570B10B4B5B6833
:103F300098420AD0036843B1D3E90421D0E904458B
:103F4000121941EB0501C3E90421D0E900321360E5
:103F50005A600023C0E9003330BD00BF700100206B
:103F600010B50E4B1C689C4204D1FFF7D3FF6FF0D5
:103F7000004010BDFFF7CEFF002CF8D0D4E904328A
:103F80001B1A62EBE072B3F1004F72F10001EEDA3E
:103F9000002AACBF18460020EBE700BF70010020EC
:103FA000B3F1FF3F08BFB2F1FF3FF8B504461D462D
:103FB00016465ED08160EFF31187202383F31288C9
:103FC000BFF36F8F013275F1FF3324DA6FF0010315
:103FD0002D49D1E900209B1A4FF0FF3262EB00001F
:103FE0009E1B60EB0500012E70F1000301DA012633
:103FF0000020C4E90460254ED6F800C07568B445B9
:1040000008BF4FF0000CBCF1000F0DD1C4E90065F2
:104010002C6074601CE0FFF77DFF013645F1000560
:10402000361845EBE070E4E7DCE90420D4E904311C
:10403000934271EB000E1DDAD21ADCF8043060EB0B
:104040000100CCE90420C4E900C31C60CCF80440A2
:104050003368B34209D09C4207D10D4B1C6824B988
:10406000FFF77EFF2146FEF7CDF887F31188BFF3F7
:104070006F8FF8BD9B1A61EB0001AC45C4E90431B8
:10408000C4D0DCF800C0BEE790040020700100201E
:10409000901900202DE9F84FEFF3118C202383F3C2
:1040A0001288BFF36F8FDFF8B0A0DFF8B090002464
:1040B000C9F80000DAF800000025504508BF0020CC
:1040C000274FE046D7E90021D9F8003078B3D0E98E
:1040D000046C4FEAE37EB3427EEB0C0B05DAF61A72
:1040E0006CEB0E04C0E9046421E0B21841EBE67108
:1040F000C0E90445C7E90021FFF716FF88F31188DE
:10410000BFF36F8F83689847EFF31188202383F301
:104110001288BFF36F8FD9F80030DAF800009B1BCC
:104120005045C446C9F80030CBD1D7E9002100245E
:104130009A1841EBE373C7E90023C9F80040FFF781
:104140000FFF2146FEF75EF888F31188BFF36F8FEB
:10415000BDE8F84FFFF776BE7001002090190020EF
:104160009004002010B5EFF31184202383F312880C
:10417000BFF36F8FFFF7CEFE0346054AD2E9000179
:10418000181841EBE37184F31188BFF36F8F10BDF2
:104190009004002038B5064C064DAC4201D30020F7
:1041A00038BD2046D4E9011201F09BFA1434F4E73B
:1041B00082010020820100200EB470B589B005464E
:1041C0001C2200210DAC01A854F8046B01F09EFAEA
:1041D000012301A8224631468DF80630054B05958E
:1041E0000393009400F062FA09B0BDE8704003B098
:1041F000704700BFFF5800002DE9F04F43688DB0B5
:1042000015468046029383789A0740F10D81002479
:104210000E78002E00F00A81252E0BD04B1C039344
:10422000013441463046029B98470028C0F2F68090
:104230000399EDE74E788B1C252E0393F0D00027D1
:10424000B946BB46BBF11F0F38D8A6F12003102B8F
:104250000AD8DFE803F02A09093009090921090908
:104260000928092D09091F00A6F13003092B33D9AC
:104270002A2E37D11BF0400F55F8043B40F08280C6
:10428000002BA7BF4BF0200B9946C3F100094BF060
:10429000280B01E04BF0010B039B13F8016B039318
:1042A000002ECFD130E04BF0020B4BF0040BF3E7C4
:1042B0004BF0080BF0E74BF0100BEDE7BBF17F0F75
:1042C00019D8A6F13003092BD2D81BF0400F03D028
:1042D0000A2101FB0737DFE70A214BF0200B01FB26
:1042E0000939D9E72E2E06D11BF0400F40F09E80F1
:1042F0004BF0400BD0E76C2E31D02BD8682E36D047
:104300006A2E3CD04C2E3AD0002F46F02003B8BF86
:104310002BF04002A3F16501BCBF00271FFA82FB0E
:10432000022901D9612B2FD107350727DFF8ACA26D
:1043300025F0070508351BF0080F66D00AEB070BC0
:1043400056465E4563D1A4EB0A0AA9EB070906EBC2
:104350000A026FE1742E9FD07A2E9DD0D4E71BF015
:10436000800F18BF4BF4007B4BF0800B94E71BF4DD
:10437000807F18BF4BF4007B4BF4807B8CE74BF4C1
:10438000207B89E71F4687E7A6F16301122900F227
:10439000F080DFE811F013004F00EE00EE00EE00B9
:1043A000EE004F00EE00EE00EE00EE00EE00FE002C
:1043B000E900EE00EE001B00EE00AF0055F8043BF4
:1043C00001270DF1180A8DF81830B4E755F804AB41
:1043D000834BBAF1000F08BF9A461BF0400F5046BE
:1043E00014BF39464FF0FF3101F0BAF90746A2E792
:1043F00041462020029B984700280FDB013EB74230
:10440000F6D34C44B146A41B98E74E46F7E7414625
:1044100016F8010B029B9847002892DA98F80230B0
:1044200043F0040388F802304FF0FF3420460DB00B
:10443000BDE8F08F1BF0800F34D01BF4007F2CD030
:10444000073525F00705AA4669685AF8080B2BF0CE
:1044500010050029ADB237DA404245F4806561EBC2
:1044600041010DF1180B0A235A4601F085F9A0EB22
:104470000B0301936B0662D5019B25F001019F425E
:1044800089B240F3A180002E00F0998015F010024F
:1044900040F09C80BB460D4623E0AA465AF8040B28
:1044A000C117D4E7AA461BF4807F5AF8041B01D138
:1044B0000846F5E71BF4007F19BF48B241F3C0116D
:1044C00008B241F3C031C2E750EA0103C9D11BF081
:1044D000400FC6D0002FC4D12BF01102BB4601976C
:1044E00095B240F2064115EA01021CBF0BF1010B27
:1044F00000222CE02BF010020A231FFA82FB1BF093
:10450000800C49D01BF4007115BF0735AA4625F071
:1045100007055AF8040B1EBFAA4669685AF8080B2B
:1045200050EA010545D12BF016051BF0400FADB246
:1045300042D0002F40D12BF01702019795B215F011
:10454000100248D0019B002E42D103F1010B290734
:104550005AD4EB0706D5D9456FDDA9EB0B030199BA
:10456000CB465F185B4649E04BF0100B10237826D2
:10457000C5E7782B04D1C6F1780343F01003BEE7FA
:1045800041462520029B98470028FFF647AF02349A
:1045900047E608230026B2E7AA461BF480715AF8C2
:1045A000040BBDD01BF400711ABFC0B2614680B2CB
:1045B000B6E72BF0060295B20DF1180B54E725F083
:1045C0001105BB46ADB28CE70D46B8E73B460D463C
:1045D00003F1020BBBE7DDF804B082E74966000097
:1045E00042660000CDE9043241462020029B9847F4
:1045F0000028FFF613AF049B059A01339945F1DCBF
:10460000A4EB0B019B46CC180AB341463020029B19
:1046100098470028FFF602AF8EB901342744391BB2
:10462000019B994224DC1D4655BB019AA9EB0B095D
:10463000554622441446914433E0019F92E70234E8
:1046400041463046029B98470028E7DAE6E640F20A
:1046500006410D42E2D015F0020F04F1010441467B
:1046600014BF2B20202015F4806F18BF2D20E9E700
:1046700041463020029B013498470028CFDACDE62E
:1046800006AB013D4146585D029B98470028CBDAB6
:10469000C4E641462020029B013498470028FFF6DB
:1046A000BDAEA9EB0403002BF3DCC1E52DE9F04F0F
:1046B0008046002089B08246029207900D4615F888
:1046C000014BACB1202C17D0A4F10903042B13D952
:1046D000252C17D007A9404601F0A4F8031EC0F20C
:1046E000CD80DBB2A3420BD007AA414601F0A4F86B
:1046F000504609B0BDE8F08F07A9404601F0A4F884
:104700002946DBE74C788D1C252CE3D02A2C20D1C0
:10471000CD1C8C780126002706E00A2246F002060E
:1047200015F8014B02FB0737A4F13003DBB2092B6C
:10473000F3D916F0020F08BF4FF0FF376C2C33D0BF
:1047400009D8682C24D06A2C3CD04C2C35D034B9F4
:10475000CEE70026DFE7742C31D07A2C2FD021460B
:104760009E4801F09CF80028C2D016F00103039384
:1047700011BF4FF00009029B53F8049B02936E2C6B
:1047800023D1079A00234846009601F072F8B7E754
:104790002C78682C03D046F020060135D7E746F088
:1047A00030066C780235D2E72C786C2C02D046F0BB
:1047B0000406F2E746F00C06F3E746F00C0615F89F
:1047C000014BC4E746F00806F9E7632C18D116F050
:1047D000020F08BF012707A9404601F023F800286F
:1047E0004CDBB9F1000F01D009F8010B013FF2D108
:1047F000039B002B84D10AF1010A5FFA8AFA7FE752
:104800005B2C54D12B7800245E2B06BF01354FF072
:10481000010B4FF0000B07A9404601F003F80022FE
:104820002E4605F1010E9446114616F8013BFBB1E8
:10483000764508D05D2B12D02D2B04D132B90B4612
:1048400001221946F1E7002A08BF194688424FF0B5
:104850000002F6DB9842D8BF4FF0010CF1E70028C8
:1048600005DBE34511D107AA414600F0E5FFACB9ED
:1048700098F8023013F00C0F3FF43AAFBAF1000F82
:1048800014BF50464FF0FF3033E7B9F1000F01D0AD
:1048900009F8010B013F4FF00104BCD1B9F1000F41
:1048A00001D13546A4E7002389F80030F9E707A9CC
:1048B000404600F0C9FF0028E0DB6F2C58D031D80B
:1048C000642C57D0693C18BF0124240107A9404635
:1048D00000F0A8FF2B2803D02D2809D146F0400670
:1048E000013FC5D007A9404600F09CFF0028BFDB70
:1048F00030286ED17B1E049306D007A9404600F0F5
:1049000091FF0028049B37DA0027BB46730602D5C7
:104910007F426BEB4B0B3A465B464846009600F0F5
:10492000A8FF65E7732C0BD0752C0CBF0A2410244C
:10493000CCE7B9F1000F01D009F8010B013F0FD00E
:1049400007A9404600F06EFF002809DB202803D0AD
:10495000A0F10903042BECD807AA414600F06CFF34
:10496000B9F1000F3FF444AF002389F800303FE76E
:104970000824ABE70A24A9E740F0200246F08006AD
:10498000782A0ED134F010020ED1BB1E0493BBD096
:1049900007A9404600F046FF0028049BB4DB102422
:1049A00002E0002C08BF08240027BB463928024635
:1049B00082BF00F1FF3242F02002263A303A9442A0
:1049C0000ED807AA414600F037FF32067FF550AFF8
:1049D0009CE73B46002CE7D10A24E5E7516600003E
:1049E000A4FB077146F08006D71904FB0B1141F1B7
:1049F000000B013BCDE9043388D007A9404600F005
:104A000011FF0028049BD1DA80E700BF704783685C
:104A100000EBC101B3F5004F2CBF51F8220031F873
:104A20001200704700EBC1018068B0F5004F2CBF49
:104A300041F8223021F812307047012208B5FFF703
:104A4000E6FFD04008BD836800EBC101B3F5004F1D
:104A500008D34B681AB143F001034B60704723F051
:104A60000103FAE74B881AB143F001034B8070470A
:104A700023F00103FAE753000122FFF7D3BFB0F59B
:104A8000004F34BF04230823481C0833A0EBD30095
:104A9000B0FA80F0C0F11F0070472DE9F0410D46DB
:104AA00086680446FFF7C9FFB6F5004F014601D3FB
:104AB000012832D03046FFF7E2FF04EB80010E6997
:104AC00096B90122E36882401343E36002220D613C
:104AD0002B4629462046FFF7A5FF032229462046FC
:104AE000BDE8F041FFF79EBF022231462046FFF7A6
:104AF0008EFF0746034629462046FFF793FF032211
:104B0000334629462046FFF78DFF39462B4620467F
:104B1000FFF788FF02223146E1E7BDE8F081B2F5F8
:104B2000802F2CBF082304232DE9F0410026D21A40
:104B30008C18CD1D25F0070524F00704641BE4083C
:104B4000056021462046AC60EE60FFF798FF421DED
:104B50009200013002F107074FEAD7073146A2F170
:104B6000100205F11000B8BF324600F0CFFD3A4602
:104B700031462846FFF77FFF334632463146284606
:104B8000FFF750FFA4EB0708284631460122FFF744
:104B90005AFF42463946FFF76EFF3B4632463946DA
:104BA0002846FFF73FFF21462846FFF764FF4346AC
:104BB000324621462846FFF735FF21462846012286
:104BC000FFF741FF3946BDE8F041FFF766BF00201F
:104BD00070470FB407B504A951F8040B0191FBF716
:104BE00039FF03B05DF804EB04B07047038B13F09A
:104BF000070305D10368002B0CBF0020032070477A
:104C0000022B05D1408BB0FA80F04009800070473C
:104C1000012B05D10368002B0CBF00200520704735
:104C20000020704710B50C4600B111B96FF01500A7
:104C300010BD081D00F093F80028F9D1A368032BDC
:104C4000F6D9F3E72DE9F0410D4607461946281D30
:104C500090461E4600F094F8044638B1334642466A
:104C600029463846A446BDE8F0416047BDE8F081DA
:104C700010B4EFF31182202484F31288BFF36F8FF6
:104C8000416110BC0121FBF717BF38B50C46054642
:104C900058B151B10B6843B14B6833B11C220021AC
:104CA00000F034FD00202C6138BD6FF01500FBE7EB
:104CB00070B505460E46FFF7B5FF041E14DBEFF393
:104CC0001182202383F31288BFF36F8F4FF6FF7199
:104CD0006B8B2C8B8B4204F0070407D182F3118875
:104CE000BFF36F8F6FF00A04204670BD022C0CD109
:104CF00001336B8382F31188BFF36F8F0023224649
:104D000031462846FFF79EFFEEE7062C14D8DFE871
:104D100004F004131313041A0400002333606B68B7
:104D20003BB9C5E90066ACB902212846FBF7C4FED1
:104D3000DAE71E606E60F6E782F31188BFF36F8FCB
:104D40006FF00404D0E782F31188BFF36F8F6FF028
:104D50008504C9E782F31188BFF36F8FC4E7034668
:104D600058B1426802F00302012A03D0032A04D199
:104D7000026812B10020986070476FF0150070470C
:104D80004268034602F00302032A4FF000028160EA
:104D900014BF104600685A6070477047012801D15F
:104DA000EFF30583FEF7C2BA01460068FFF7F6BFCE
:104DB00008B5FBF7A3FFBDE80840FBF7C3BF002120
:104DC0000120FFF7EBBFD0F8943083F30B887047D6
:104DD00061B662B680F31188BFF36F8F704772B609
:104DE000002383F31188BFF36F8FBFF34F8F30BF62
:104DF00062B6BFF36F8F704772B6002383F31188DA
:104E0000BFF36F8FBFF34F8F20BF80F31188BFF3C5
:104E10006F8F62B6704740E800F313F4803FD8B25A
:104E200008BF6FF01500704730B50C684B6885B04F
:104E30000A894D890094013B24F01F04234402F0A9
:104E40001F0242EA451223F01F0369468DF808202D
:104E50000393FCF7B3FA05B030BD08B5FCF76EFC60
:104E6000002008BD0C220369C9B201FB0233186C93
:104E700000F00700704770B5C9B20369EFF3118500
:104E8000202484F31288BFF36F8F0C2606FB0134B5
:104E9000246C14F0C00408D0A24206D085F3118817
:104EA000BFF36F8F4FF0FF3070BD012206FB01335F
:104EB0001A6485F31188BFF36F8F436803EBC10356
:104EC0005B6898470020EFE78022FFF7D4BFF8B572
:104ED000069F0469C9B2EFF31186202585F3128875
:104EE000BFF36F8F0C2505FB0144256C05F0070C03
:104EF000BCF1010F0CD1276486F31188BFF36F8FCB
:104F0000C4E90E23436853F8313098470020F8BDB8
:104F100005F0C005AF4286F31188BFF36F8F0CBF59
:104F20006FF077004FF0FF30F1E713B58024009465
:104F3000FFF7CDFF02B010BD10B41C240069CBB246
:104F400003FB0400002110BC10470020FDF7DCBA71
:104F5000002000F0C5B91046FEF7D2BB4368002020
:104F60005B68DB680B607047436802EA01005B68BE
:104F700021EA0201586000209960704743680020D0
:104F80005B6859607047436800205B6899607047B0
:104F900043685A68136821EA03000B405060002000
:104FA0009360704710B503695868F8B1884219D109
:104FB0009C680868A142586000D198600020086091
:104FC0002AB15A680A609A68596002B9996000204B
:104FD00010E0814206D10868206098688142EDD1D6
:104FE0009C60EBE7044600680028F2D1002AE8D173
:104FF0006FF0150010BD30B543681360057A446842
:1050000004EBC504A34202D36FF0010030BD5C790C
:105010008C4201D00833F0E70020F7E710B40269B2
:10502000436814681B68D3F830115CB161B100218A
:1050300021611468A47B3CB14FF48050C3F808038D
:105040001368997310BC7047D3F8141121B1002173
:10505000C3F81411D3F8143112681368002BF1D07F
:10506000516810BC184743681B68D3F88004C3F824
:105070008004704742681368D3F84C0150B1002097
:10508000526A12780A70C3F84C01D3F84C210122FD
:105090009A6270474FF0FF307047002A0FDD426878
:1050A0001368D3F84C0158B10020C3F84C01D3F871
:1050B0004C010120526A12780A70986270470020F1
:1050C000704710B5436819680369EFF31182202017
:1050D00080F31288BFF36F8F002418688473012057
:1050E0001B68D8734FF48053C1F8043382F31188DE
:1050F000BFF36F8F10BD012103691A6891730022FD
:105100001B68DA737047026903461168C87B40B1B7
:105110005B681B68D3F8300118B100230B6113687A
:105120009889704743681B68D3F84C01003818BF52
:10513000012070474FF4002243681B68C3F8042322
:1051400070474FF4002243681B68C3F80823704778
:10515000202243681B68C3F8042370472022436859
:105160001B68C3F80823704738B5436804461D68B8
:10517000D5F80433DB0405D4D5F8040310F400207B
:1051800006D138BDFFF7BFFF0028F5D00120F8E7B2
:105190002046FFF7C7FF003818BF0120F1E70120C4
:1051A00070470369186801601B685A60704737B51B
:1051B000044600220121C620FCF72EF8C620FCF789
:1051C0000FF8626853691068C0F82435917E537EE9
:1051D000D58B0B43918B127E294389B20B4313432A
:1051E000C0F86C3561680B68D3F8002242F4802265
:1051F000C3F800220822C3F800250A6A0121C3F877
:105200003C270022C3F840271965D3F83011002944
:10521000FBD0C3F8002563680021DD6801AA284699
:10522000FFF7E9FE002805DB019B2A681979186859
:10523000FCF774FE082162681368C3F80015117A40
:1052400051B9526AC3F804270122C3F80827C3F8EA
:105250004C11D3F84C119A62002003B030BDF8B560
:1052600006690546336801279C8910339442A8BF1C
:105270001446D3E8EF2F002A03D1C3E8E07F0028CB
:10528000F7D10CBF3B46002325D1336822469868EE
:1052900000F02FFAEFF31180202383F31288BFF37D
:1052A0006F8F6B6831681B68D3F830213AB91446A8
:1052B0000A6180F31188BFF36F8F2046F8BD8A68BA
:1052C000C3F83C270022C3F84047C3F83021D3F885
:1052D00030211F65EDE71C46EFE7004700F0C9B835
:1052E000FDF790B8F7B51646DDE90847019001A82B
:1052F0001D46FDF7A3F9019BB6F1000C18BF4FF056
:10530000010C00EB83000B1E18BF0123002D43EAA4
:105310004C0314BF4FF00C0C4FF0000C002C43EA70
:105320000C0314BF4FF4706C4FF0000C002F43EAD5
:105330000C0314BF4FF4403C4FF0000CD0F8802019
:1053400043EA0C0322EA030301B109780EB136786F
:10535000760019430DB12D78AD0031430CB124789E
:10536000240229430FB13F783F040C433C43C0F86B
:10537000804003B0F0BD1FB50DF10F030193002372
:105380008DF80F101A4619460093FFF7ABFF05B0D2
:105390005DF804FB70B5044608461646FDF75EF955
:1053A000083034F810300D46DA0509D5C3F343232D
:1053B00004EBC3023146284654F83330526898470C
:1053C000A3682BB131462846E268BDE87040184713
:1053D00070BDF0B50446002001270546844695427D
:1053E0000AD1D4F8443133B10023C4F84431D4F89D
:1053F000443140F40030F0BDEBB29B0003F5807601
:105400009B0807FA03F3194208D054F806E0BEF1EE
:10541000000F03D044F806C0A65918430135DEE753
:1054200070B50679044630460D46FDF7A7F9B0B1D0
:105430003046FDF791F990B93046FDF77DF901232B
:1054400022688340C2F81833226803B202EB830358
:10545000D3F8102522F00302C3F8102570BD2846AA
:10546000BDE870400021FFF786BFFDF76DBAFFF77A
:10547000D7BF08B1FCF7DEB97047704740B1C368C9
:10548000587810F001001EBF1878B0FA80F040097B
:105490007047EFF31183202383F31288BFF36F8FDC
:1054A000FEE708B5FFF7F5FF10B5D0E9003433B9D2
:1054B0000020E268537843F00103537010BD20468A
:1054C00098470028F4D00028B8BF4042FF28A8BF62
:1054D000FF20E3681870ECE700F018B900F009B994
:1054E0007047202408B5EFF3118384F31288BFF3CB
:1054F0006F8FFFF774FCF6E7EFF30580003818BFF5
:1055000001207047FEF732BBD0E9003213605A60C9
:105510000023C0E90033704708B5FFF7F5FF437B70
:1055200023F0020343730023836008BD38B50446AB
:105530000D46FEF7DFF9637B43F002036373E5B1C9
:10554000A5602B689D4209D16B68C4E900531C60BB
:105550006C6012E06A689A42F6D01B68002BF3D0A8
:1055600094F90E2093F90E108A42F3D09142F1DDA6
:105570005A68C4E9003214605C6038BD10B5EFF3BE
:105580001184202383F31288BFF36F8FFEF7CAF9CB
:1055900084F31188BFF36F8F10BD10B50446183027
:1055A00000F084F8EFF31181202383F31288BFF316
:1055B0006F8F627B12F0100204D081F31188BFF369
:1055C0006F8F10BD2046BDE81040FEF7DFB938B53B
:1055D0000446EFF31185202383F31288BFF36F8F06
:1055E000437B13F0280F0BD183680BB1FFF794FFB7
:1055F000637B51B903F0FB0320466373FEF792F916
:1056000085F31188BFF36F8F38BD03F0EB03F3E729
:1056100001211838FFF7DBBF38B5EFF311852023E0
:1056200083F31288BFF36F8F0468A0420DD034B1AA
:105630002046FFF771FF04F1180000F037F885F3FA
:105640001188BFF36F8F204638BD0024F7E708B5F7
:10565000C3171F3043F10003400940EAC360C1177C
:10566000FEF730FB400108BDEFF31181202282F3E9
:105670001288BFF36F8F027BD2070CD581F311889C
:10568000BFF36F8F002383F31188BFF36F8F042361
:10569000184602DF7047437B1B0704D581F311884E
:1056A000BFF36F8F70470122FEF770B910B5EFF3AB
:1056B0001184202282F31288BFF36F8F03683BB1FD
:1056C000FEF732FC002084F31188BFF36F8F10BD0A
:1056D0006FF01500F7E708B5FEF744FD08BDFEF7CB
:1056E00041BD10B400F10C04C0E9034410BCFFF745
:1056F00016BA0A44431E914200D1704710B511F802
:10570000014B914203F8014FF9D110BD0244034609
:10571000934200D1704703F8011BF9E710B56AB155
:105720000139841810F8012B11F8013F9A4203D176
:10573000A04201D0002AF5D1D01A10BD1046FCE7D6
:1057400010B50139044632B111F8013F013A00F8B1
:10575000013B002BF7D10021FFF7D8FF204610BDF9
:105760000246014410B58A42134603D01C78013228
:10577000002CF8D1181A10BDF0B5C3F13707044654
:1057800003F01F031046FFB2082BE6B232D0102BF5
:105790003DD06508A40845EAC17544EA81748A08C9
:1057A0002D1942EB5102290941EA02716D1842EBB1
:1057B0001212290A41EA02616D1842EB1222290CE9
:1057C00041EA02416D1842EB1242AD1842F100026B
:1057D000EC0844EA4274D10804EB8402A6EB4205CB
:1057E000EDB2092D0CD90134A5F10A0541F10001F2
:1057F000EDB212E0E40806F0070544EA4174C90876
:10580000303554EA010200F8015BBDD1F0BD240936
:1058100006F00F0544EA01740909092D84BFED194A
:10582000EDB2EDE710B50C4600F046F80028A2BF37
:1058300023680133236010BD0028A2BF136803F161
:10584000FF33136000F065B870B505460E4631466B
:105850002846FFF7E7FF041E09DB202CF7D0A4F150
:105860000903042BF3D932462946FFF7E5FF20460A
:1058700070BDBDF8001068B111F0100F01D00270BA
:10588000704711F0080F02D0C0E9002370474B07A2
:1058900001D5026070478B06FBD502807047C9B204
:1058A0000346184613F8012B12B18A42F9D170470A
:1058B000002918BF0020704710B583780446DA0726
:1058C00005D443F004034FF0FF30A37010BD4FF038
:1058D0000002D4E85F3FC4E8512F0029F9D19BB200
:1058E00013B1581EC0B2F1E7A36898470028F9DA4F
:1058F0000130A37814BF082204221343E3E70269AE
:105900000346107810B101321A6170476FF0010040
:1059100070478B78DA0702D44FF0FF307047431C92
:10592000FAD0C0B2431CD1E8DF2F002A04D1C1E86D
:10593000DC3FBCF1000FF6D1EED18B7823F00803E9
:105940008B7070470148006870470000A018002065
:1059500060ABFF7F0100000089170000000000001D
:1059600019190000A859000095410000000000002E
:10597000D11B0000D0590000D11B0000BC59000011
:10598000D11B0000E4590000AF510000F85900009D
:10599000811B0000000000006D21000000000000DD
:1059A0006517000000000000E26500004863000089
:1059B0005863000078010020DC180020EF6500002B
:1059C00080630000C86300007A01002030190020C5
:1059D000FB65000098630000C86300007C010020A4
:1059E0003C19002006660000B0630000C863000098
:1059F0007E010020481900201A660000F8630000AC
:105A00004464000080010020140000200000000019
:105A1000BF4D000000000000BF4D0000000000006E
:105A2000BF4D000000000000BF4D0000000000005E
:105A3000BF4D000000000000BF4D0000000000004E
:105A4000BF4D000000000000BF4D0000000000003E
:105A5000BF4D000000000000BF4D0000000000002E
:105A6000BF4D000000000000BF4D0000000000001E
:105A7000BF4D000000000000BF4D0000000000000E
:105A8000BF4D000000000000BF4D000000000000FE
:105A9000BF4D000000000000BF4D000000000000EE
:105AA000BF4D000000000000BF4D000000000000DE
:105AB000BF4D000000000000BF4D000000000000CE
:105AC000BF4D000000000000BF4D000000000000BE
:105AD000BF4D000000000000BF4D000000000000AE
:105AE000BF4D000000000000BF4D0000000000009E
:105AF000BF4D000000000000BF4D0000000000008E
:105B0000BF4D000000000000BF4D0000000000007D
:105B1000BF4D000000000000BF4D0000000000006D
:105B2000BF4D000000000000BF4D0000000000005D
:105B3000BF4D000000000000BF4D0000000000004D
:105B4000BF4D000000000000BF4D0000000000003D
:105B5000BF4D000000000000BF4D0000000000002D
:105B6000BF4D000000000000BF4D0000000000001D
:105B7000BF4D000000000000BF4D0000000000000D
:105B8000BF4D000000000000BF4D000000000000FD
:105B9000BF4D000000000000BF4D000000000000ED
:105BA000BF4D000000000000BF4D000000000000DD
:105BB000BF4D000000000000BF4D000000000000CD
:105BC000BF4D000000000000BF4D000000000000BD
:105BD000BF4D000000000000BF4D000000000000AD
:105BE000BF4D000000000000BF4D0000000000009D
:105BF000BF4D000000000000BF4D0000000000008D
:105C0000BF4D000000000000BF4D0000000000007C
:105C1000BF4D000000000000BF4D0000000000006C
:105C2000BF4D000000000000BF4D0000000000005C
:105C3000BF4D000000000000BF4D0000000000004C
:105C4000BF4D000000000000BF4D0000000000003C
:105C5000BF4D000000000000BF4D0000000000002C
:105C6000BF4D000000000000BF4D0000000000001C
:105C7000BF4D000000000000BF4D0000000000000C
:105C8000BF4D000000000000BF4D000000000000FC
:105C9000BF4D000000000000BF4D000000000000EC
:105CA000BF4D000000000000BF4D000000000000DC
:105CB000BF4D000000000000BF4D000000000000CC
:105CC000BF4D000000000000BF4D000000000000BC
:105CD000BF4D000000000000BF4D000000000000AC
:105CE000BF4D000000000000BF4D0000000000009C
:105CF000BF4D000000000000BF4D0000000000008C
:105D0000BF4D000000000000BF4D0000000000007B
:105D1000BF4D000000000000BF4D0000000000006B
:105D2000BF4D000000000000BF4D0000000000005B
:105D3000BF4D000000000000BF4D0000000000004B
:105D4000BF4D000000000000BF4D0000000000003B
:105D5000BF4D000000000000BF4D0000000000002B
:105D6000BF4D000000000000BF4D0000000000001B
:105D7000BF4D000000000000BF4D0000000000000B
:105D8000BF4D000000000000BF4D000000000000FB
:105D9000BF4D000000000000BF4D000000000000EB
:105DA000BF4D000000000000BF4D000000000000DB
:105DB000BF4D000000000000BF4D000000000000CB
:105DC000BF4D000000000000BF4D000000000000BB
:105DD000BF4D000000000000BF4D000000000000AB
:105DE000BF4D000000000000BF4D0000000000009B
:105DF000BF4D000000000000BF4D0000000000008B
:105E0000BF4D000000000000BF4D0000000000007A
:105E1000BF4D000000000000BF4D0000000000006A
:105E2000BF4D000000000000BF4D0000000000005A
:105E3000BF4D000000000000BF4D0000000000004A
:105E4000BF4D000000000000BF4D0000000000003A
:105E5000BF4D000000000000BF4D0000000000002A
:105E6000BF4D000000000000BF4D0000000000001A
:105E7000BF4D000000000000BF4D0000000000000A
:105E8000BF4D000000000000BF4D000000000000FA
:105E9000BF4D000000000000BF4D000000000000EA
:105EA000BF4D000000000000BF4D000000000000DA
:105EB000BF4D000000000000BF4D000000000000CA
:105EC000BF4D000000000000BF4D000000000000BA
