:10000000C0CC0020FD1A00003D7E0000E91A00006F
:10001000E91A0000E91A0000E91A0000E91A0000D4
:100020000000000000000000000000007D1C000037
:10003000E91A000000000000151C0000E91A000089
:10004000311E0000311E0000311E0000311E000074
:10005000311E0000311E0000311E0000311E000064
:10006000311E0000311E0000311E0000311E000054
:10007000311E0000311E0000311E0000311E000044
:1004C000311E0000311E000010F8012B11F8013B15
:1004D000012A28BF9A42F7D0D01A704700B583B0DE
:1004E0008DF804008DF805104023022201A903486D
:1004F00007F0AEF903B05DF804FB00BF58AE000092
:100500000F2834D800B583B08000C0B206308DF813
:10051000000091B900238DF801308DF802308DF87C
:10052000033010238DF8043040230522694611481A
:1005300007F08EF903B05DF804FB40F6FE739942B4
:100540000AD900238DF8013010228DF802208DF891
:1005500003308DF80430E7E700238DF801308DF883
:1005600002308DF80310090A8DF80410DCE76FF0F3
:100570001500704758AE00000346B0B17E2816D86B
:1005800000FB03F3522202FB03F30A48A0FB032003
:100590001B1A00EB5300400B1230C0EB0030064B2F
:1005A000A3FB0030C0F34F1070470020704740F6A7
:1005B000FF70704751200C041F85EB510F2803D8A2
:1005C000024B53F8200070470148704774C0000088
:1005D000A8B8000008B5064B00221A605A60012234
:1005E0001A72044807F08CFA034807F089FA08BD2C
:1005F0000C0A0020ACB80000E4B8000010B582B0CE
:10060000134807F07DFA00241AE0E0B2114904EB28
:1006100084034FEA830C01EB8303002241F80C2092
:100620005A609A60DA601A619870FFF7C7FF00900D
:1006300004F1240322462146074807F061FA0134F9
:100640000F2CE2DD054807F05BFA02B010BD00BFD9
:100650001CB90000180A002044B90000E0BA0000EC
:1006600008B509F071FF002243181CD213440F4A49
:10067000A2FB03CE2EF0030C0CEB9E0CA3EB0C03A1
:10068000C01A61F100014FF0CC3300FB03F302FB11
:100690000133A0FB02021344400840EAC370044B3C
:1006A0001B68C01A08BD0122E0E700BFCDCCCCCC4E
:1006B0006C8B002008B5024804F0F4F908BD00BFB7
:1006C0007809002070B590B0234807F0A1F8002801
:1006D00040D0214B9B68DB6A83B11F4898470028B4
:1006E00038D01D4B9B681B69002B33D040226946D4
:1006F00019489847051E2DDD002407E06FF05700CC
:10070000EDE7164B1B68002B15DC0134AC42E8DA30
:1007100004F140036B4413F8403C0A2BF1D00D2B3D
:10072000EFD00E4A12687E2A10DC501C0B4908607C
:100730000B498B54E9E70A490026CE5400220023D6
:10074000084809F04AFC054B1E60DEE7034B002217
:100750001A60DAE710B070BD3CAE000088090020D6
:100760008C0900200C04002000B583B0009001919A
:10077000002200236946054809F02FFC10B903B098
:100780005DF804FB024807F0BBF9F8E7E40300203A
:1007900068B9000008B502460A21034807F017F8B7
:1007A000052004F0FDFD08BD04AE000038B5044688
:1007B000084D01220921284607F009F8204604F0D7
:1007C000EFFD00220921284607F001F8204604F039
:1007D000E7FD38BD04AE000001B97047F8B5074623
:1007E00016460D46FFF7D6FF214B01225A72002410
:1007F00014E0C4F1C80306FB03F35B001D4AA2FB2F
:10080000032306EB931000E03046FFF7CFFF012FE4
:100810001CD0174A1368013B13600134AC421AD252
:10082000B5F5C87FF0D9C72CE3D9A5F1C803A34219
:100830000AD2601BC83006FB00F040000D4BA3FB42
:10084000003006EB9010E0E73046DEE7084A136818
:1008500001331360E1E7064A1368074981FB03018E
:10086000DB17C3EB2113536000235372F8BD00BFA5
:100870000C0A00201F85EB5167666666F8B50D46C9
:10088000021E06DB40F24E239A4203DD40F24E2266
:1008900000E0002202EB82000E4B1B68D3EBC0038A
:1008A00000D1F8BD002BD4BF0027012783EAE374F1
:1008B000A4EBE374074E23467168074807F020F95C
:1008C0002A4621463846FFF787FF7168034807F03C
:1008D00017F9E6E70C0A002080B90000A0B9000073
:1008E00038B504460D464FF0FF324FF0FF3318483D
:1008F00003F0A0FE04F500439B889BB21BB304F5F4
:10090000004CBCF802309BB204EB031494E80F00D7
:1009100085E80F00BCF802309BB20133C3F30A0331
:10092000ACF80230BCF804309BB2013B9BB2ACF88F
:100930000430DCF80C300133CCF80C30044803F000
:10094000F9FE012038BD024803F0F4FE0020F9E76B
:100950005803002038B504460D464FF0FF324FF0E3
:10096000FF330E4803F066FE04F500439B889BB2FC
:1009700073B104F500435B889BB204EB031494E865
:100980000F0085E80F00054803F0D4FE012038BDB4
:10099000024803F0CFFE0020F9E700BF5803002013
:1009A00038B504460D464FF0FF324FF0FF331D4877
:1009B00003F040FE04F500439B889BB2B3F5006F43
:1009C00023D204F5004CBCF800309BB204EB0314B6
:1009D00095E80F0084E80F00BCF800309BB20133AB
:1009E000C3F30A03ACF80030BCF804309BB2013307
:1009F0009BB2ACF80430DCF808300133CCF8083096
:100A0000084803F097FE012038BD04F5004423692F
:100A100001332361034803F08DFE034807F070F8AB
:100A20000020F1E758030020B4B9000010B584B0ED
:100A3000044603208DF8000001918DF808208DF800
:100A40000930BDF81830ADF80A30ADF80C4000237D
:100A50008DF80E3069460548FFF7A2FF08B104B0D3
:100A600010BD2146024807F04BF8F8E7580B00206C
:100A7000C8B9000038B504460B4D4FF0FF324FF0B7
:100A8000FF33284603F0D6FD04F50043002199808A
:100A9000598019804FF4004220460AF00AF828468F
:100AA00003F048FE38BD00BF5803002010B51D22DA
:100AB0004021204807F024F81F4809F061FA18B3D4
:100AC00010210020FFF70AFD20BB4FF4FA7004F05C
:100AD00067FC1D21FE20FFF701FDF0B92121FFF782
:100AE000FDFCE8B94FF4FA7004F05AFC042101202F
:100AF000FFF7F4FCB8B906F0B9FE0446B0B90F48E8
:100B000006F0FEFF204610BD0D4806F0F9FF6FF01D
:100B10001204F7E76FF00404F4E76FF00404F1E760
:100B20006FF00404EEE76FF00404EBE76FF00404E9
:100B3000E8E700BFE4B9000058AE000064BA000066
:100B400024BA000010B582B0234806F0D9FF23482C
:100B500006F0D6FF41F2883006F0A5FE204806F0E8
:100B6000CFFF204809F00CFAE8B11E4C4FF4B01248
:100B70000921204606F0F3FD4FF4B0120A21204669
:100B800006F0EDFD4FF4B0120B21204606F0E7FD14
:100B900001220B21204606F01AFE642006F083FE97
:100BA000FFF718FD0CE0104806F0AAFF02B010BDD8
:100BB00000990E4806F0A4FF01990098FFF75EFE29
:100BC0004FF0FF324FF0FF336946094803F0B0FCA5
:100BD0000028F5D1ECE700BF7CBA0000ACBA0000F9
:100BE000E4BA000004AE00000CBB00002CBB000007
:100BF000E403002008B509F0A7FC002243181ED228
:100C00001344104AA2FB03CE2EF0030C0CEB9E0CF7
:100C1000A3EB0C03C01A61F100014FF0CC3300FBD1
:100C200003F302FB0133A0FB02021344400840EA35
:100C3000C370054B1860054806F062FF08BD01222D
:100C4000DEE700BFCDCCCCCC6C8B002044BB0000D9
:100C50000F284DD82DE9F04182B004460D461646C6
:100C600071B3244B00EB800203EB820703F82210E0
:100C70004FF0010887F80180FE60FFF7F1FC786013
:100C8000386105EB850292001B4BA3FB0213D21ABD
:100C900003EB52039B090833BB6087F8038040F6DF
:100CA000FF71B878FFF72CFC3B69019300962B4647
:100CB000BA782146114806F023FF02B0BDE8F08162
:100CC0000C4B00EB8005AA0003EB8505002199542D
:100CD0006970E970E960A878FFF712FCAD78FFF75A
:100CE000BFFC03462A462146054806F009FFE4E713
:100CF000704700BF180A00201108040250BB000012
:100D000084BB00002DE9F04385B0FFF7A9FC054640
:100D100000241FE0DFF8A88004EB84034FEA830976
:100D200008EB83070022FA7018F82300FFF724FC71
:100D300006460146B878FFF7E3FB224B0293019584
:100D4000009618F80930BA7821461F4806F0D8FEF8
:100D500017E001340F2C30DC04EB8402184B03EB5A
:100D600082035B78002BF4D0154B03EB8203DB7816
:100D70003BB1134B03EB82035A68AA1A9B689A4251
:100D8000C8D204EB84020E4B03EB8203DA68002A1C
:100D9000DFD004EB84010A4B03EB81031B69EB1AE0
:100DA0009A42D6D8074B00932B462146074806F0B7
:100DB000A7FEE0B206F087FDCBE705B0BDE8F08303
:100DC000180A00201CC50000A4BB0000D8BB00000E
:100DD00010B50A4806F094FE06F048FD00230AE02C
:100DE000074C03EB830290002118002222544A7022
:100DF000CA70CA6001330F2BF2DD10BD00BC0000C9
:100E0000180A002010B584B02FE04FF4FA719DF855
:100E10000800FFF7A9FC2BE09DF80830A3F124029D
:100E2000D2B2132A04D8243B1F4AD056002808DA2D
:100E30009DF80930E3B19DF808101C4806F060FEEB
:100E400016E0BDF80A209DF80910C0B2FFF700FFB8
:100E5000EEE71748FFF70EFEFFF7BAFF08E0FFF7CF
:100E6000C9FE05E0322004F09BFAFFF7F9FB0446C7
:100E700069460F48FFF76EFD0028F3D0019BA3429F
:100E8000F0D869460A48FFF72BFD9DF80030032B88
:100E9000EED801A252F823F05F0E0000530E0000BE
:100EA0000B0E0000190E0000B4C000000CBC0000C6
:100EB000580B002010B592B004460422894909F06D
:100EC00025FE002832D088492046FFF7FDFA002889
:100ED00035D08649204609F0F4FD00282FD023782C
:100EE0004D2B36D02378532B02D163783A2B55D033
:100EF0000DAB03930EAB02930FAB019310AB0093BA
:100F00000BAB11AA7A49204605F0FEFF062800F037
:100F1000AE800FAB10AA7749204605F0F5FF0228F6
:100F200000F0C080744806F0EBFD10E07348FFF756
:100F3000A1FDFFF75FFE724806F0E2FD07E0FFF754
:100F400047FF6E4806F0A8FC6E4806F0D9FD12B0C7
:100F500010BD63783A2BC5D106AB009305AB0DF1FC
:100F600033026949204605F0CFFF0328BAD1002398
:100F70000793089309930A9302238DF81C30069B6C
:100F800008939DF814308DF824309DF833308DF897
:100F90002A3007A95948FFF703FDD8E70DAB0293A4
:100FA0000EAB01930FAB009310AB0DF13302574919
:100FB000204605F0A9FF052818D00EAB01930FAB12
:100FC000009310AB0DF133025149204605F09CFF10
:100FD00004288DD1109B7F2B04D80F9A002A01DBA7
:100FE0007F2A2ADD4B4806F08BFDB0E7109B7F2B54
:100FF00004D80F9A002A01DB7F2A03DD454806F05A
:101000007FFDA4E700210791089109910A9103212E
:101010008DF81C100E9908918DF824308DF825203C
:10102000BDF83430ADF826309DF833308DF82A30D5
:1010300007A93248FFF7B4FC89E70021079108911E
:1010400009910A9103218DF81C100E9908918DF8D1
:1010500024308DF825203223ADF826309DF833302A
:101060008DF82A3007A92548FFF79AFC6FE79DF80D
:101070002C308DF83330109A7F2A04D80F9B002B28
:1010800001DB7F2B03DD234806F03AFD5FE7BDF867
:1010900034100091DBB2D2B20E99BDF84400FFF7D4
:1010A000C5FC54E7109B7F2B17D80F99002914DB40
:1010B0007F2912DCDAB2243AD2B2132A3FF647AFC4
:1010C000DBB2243B144AD0560028FFF640AF002282
:1010D000C9B2C0B2FFF7BCFD39E70E4806F010FDFB
:1010E00035E700BF14BC00003CBC000044BC00005D
:1010F000ACBC0000A4BC0000C0BC0000580B002029
:101100001CBC00004CBC00005CBC000068BC0000C3
:101110009CBC00007CBC0000B4C00000F0B5A9B0CD
:10112000514806F0EDFC514806F0EAFC504806F044
:10113000E7FC504806F0E4FC4F4806F0E1FC642070
:1011400006F0B1FBFFF7B2FC002869DBFFF756FAA7
:10115000FFF750FD14220023CDE90023474804F097
:10116000C3FC122300931C2308220221444806F0EA
:10117000C7FC4449444808F0BEFF444806F08CFBD5
:101180004FF40061424806F0BBFC00260027414DA9
:10119000CDE90667002404946FF00E0303930294D4
:1011A000019400943C4B4FF480523C49284608F08F
:1011B000EDFF3B49284603F0D1FC3A4806F0A0FC7D
:1011C000394DCDE9066704946FF00D030393029443
:1011D00001940094354B4FF480523549284608F06D
:1011E000D5FF3449284603F0B9FC334806F088FCA3
:1011F000324806F085FC324806F082FC314808F09F
:10120000BFFE88B9304806F07BFC21464C1C2F48B5
:1012100006F076FC4FF47A7006F045FB2146F5E7C0
:101220002B4806F06DFC91E7264C00222949204608
:1012300006F0DAFA204606F0E5FA002402E008A8F3
:10124000FFF738FE42F21072002308A9224803F08B
:101250006FF90028F3D0651C204B5A6821462048BE
:1012600006F04EFC2C46EDE7E0BA0000F0BC0000B2
:101270009CBD0000DCBD00001CBE0000200300205F
:10128000F0BE0000050D000078090020580B00207A
:1012900038BF000010050020050E000080A30020CC
:1012A00058BF000064BF000050040020450B000040
:1012B0008093002080BF000088BF0000A4BF000012
:1012C000BCBF00003CAE0000F0BF000008C0000042
:1012D000C8BE0000C50600000C0400200C0A002057
:1012E00014C0000008B5024B1B68984708BD00BF3A
:1012F000F0000020014B1860704700BFF000002094
:1013000000B585B00A46002300930193029303932E
:1013100002238DF80230044B01930146684605F024
:1013200013FE05B05DF804FBE512000080B505462C
:101330000E461746984604F08DF8034609F0EEFC79
:101340000446DFF8189049F80030424639463046E6
:10135000A84754F8090000F043FC00BF0800000053
:101360002DE9F04383B0044608461546238B13F05D
:10137000080F05D103F0070600230093019354E002
:10138000012909D043F02003238385F31188BFF39B
:101390006F8F03B0BDE8F08343F010032383F4E7BD
:1013A000204606F0E5FB42E0D4F814904A46694630
:1013B000204606F0F6FB4FF00008238B03F00707EA
:1013C000B74269D0A268002A66D0012243F0080320
:1013D000238385F31188BFF36F8F002A64D1009BAC
:1013E0002BB14B463A466946204606F053FCB8F10D
:1013F000000F02D034492046C047EFF31185202367
:1014000083F31288BFF36F8F238B23F008032383AA
:10141000238B13F0100F4DD023F0100323830120F2
:10142000268B06F007060028AFD00228B8D0002887
:10143000ABD0013804282BD801A353F820F000BF0B
:10144000A913000091140000551400006914000055
:101450007D1400002369D3F800800621204606F0A1
:101460005DFB4FF00009A8E72369D3F8048004214D
:10147000204606F053FB4FF000099EE72369D3F89E
:1014800008800521204606F049FB4FF0000994E74B
:101490004FF00008C14690E7009A0AB1002295E794
:1014A000B8F1000F92D1B3E74A463946204606F01C
:1014B0003DFB94E713F0200F04D023F02003238397
:1014C0000220ADE70020ABE7C37C0000014B0360C6
:1014D00000207047C8C0000008B5044806F010FBA3
:1014E000034806F00DFB002008BD00BFC8C0000087
:1014F00000C1000008B50348034A121A002106F093
:101500008FFC08BD500400207C93002008B50648DD
:10151000064A121A064906F087FC0648064A121ABD
:10152000064906F081FC08BD600000204C04002044
:10153000E8C700006000002060000020E8C700004D
:1015400010B50446836842680168094806F0D8FA75
:1015500063692269E168074806F0D2FAE169064842
:1015600006F0CEFAA169054806F0CAFA10BD00BF20
:1015700030C1000060C1000090C10000A0C10000A7
:1015800038B504460D4611B10846FFF7D9FF012CC6
:1015900004D02946204602F0EDFD38BDEFF3058169
:1015A0001039024806F0ACFAF3E700BFD0C10000E2
:1015B00030BFFFF7FDBF00BF38B50446054D2A46D2
:1015C000054909F069FA054A0021601909F071FA24
:1015D00038BD00BF000000006CB80000040000002F
:1015E00070B50646064D074B1D444C1B2046FFF7C1
:1015F000E3FF083CC6F8B44005F1080070BD00BF29
:101600000000000004000000054B5A699B689A42E4
:1016100004D0044A536843F080535360704700BFBE
:10162000008D002000ED00E081690D4B5A6942F405
:1016300080725A61BFF34F8FBFF36F8F31F8021C76
:101640005A6922F480725A61BFF34F8FBFF36F8FD4
:101650004DF60273994201D0002070470120704777
:1016600000ED00E04FF0000C83F800C002F07F4C6A
:10167000BCF17F4F12D102F00C0CBCF1080F04D06A
:1016800012F0080F07D00846704708B5044806F066
:1016900037FA002008BD01221A70704700207047F9
:1016A000E4C10000F8B505460F461446324806F07E
:1016B00027FA324B9B6A13F0100F31D110262F4BB3
:1016C0009B6A13F0080F30D12C4B9B6A13F0020F6A
:1016D00030D12A4B9B6A13F0010F43D1274B9B6AF1
:1016E00013F0200F43D1254B9B6A13F0100F01D14B
:1016F000224B9B6A214B9B6A13F0200F04D01F4A98
:10170000536A23F4005353621C4A936A43F0FF0365
:1017100093620121284606F097FB20703046F8BD01
:10172000174806F0EDF91126C9E7164806F0E8F962
:101730001226C9E7144806F0E3F9104B596B9B6A6F
:1017400013F0800F01D11326C3E7104806F0D8F933
:1017500037B10A4A936A23F0800393621326B8E7ED
:101760001326B6E70A4806F0CBF91426B6E709486F
:1017700006F0C6F91526B6E710C2000000ED00E03D
:1017800028C200005CC2000070C200008CC20000D1
:10179000A4C20000C4C20000F8B505460F461446B6
:1017A0002F4806F0ADF92F4B9B6A13F4805F25D1CB
:1017B00016262C4B9B6A13F4006F24D1294B9B6A8D
:1017C00013F4007F24D1274B9B6A13F4806F37D129
:1017D000244B9B6A13F4807F37D1224B9B6A13F40E
:1017E000005F37D11F4A936A43F47F43936201211C
:1017F000284606F029FB20703046F8BD1A4806F04E
:101800007FF91726D5E7194806F07AF91826D5E7A3
:10181000174806F075F9134B996B9B6A13F4004F48
:1018200001D11926CFE7134806F06AF937B10D4AFE
:10183000936A23F4004393621926C4E71926C2E78A
:101840000D4806F05DF91A26C2E70C4806F058F973
:101850001B26C7E70A4806F053F91C26C2E700BF5B
:10186000F4C2000000ED00E00CC300005CC2000008
:1018700020C300003CC3000054C3000070C300003C
:10188000C4C2000008B5294806F03AF9284B9B6A03
:1018900013F0007F26D11D20254B9B6A13F0807F1B
:1018A00025D1234B9B6A13F4801F25D1204B9B6AC3
:1018B00013F4002F25D11E4B9B6A13F4802F25D1E2
:1018C0001B4B9B6A13F4003F25D1194B9B6A13F401
:1018D000803F25D1164A936A6FEA03436FEA1343A8
:1018E000936208BD134806F00BF91E20D4E7124896
:1018F00006F006F91F20D4E7104806F001F902208F
:10190000D4E70F4806F0FCF82120D4E70D4806F094
:10191000F7F82220D4E70C4806F0F2F82320D4E7A9
:101920000A4806F0EDF82420D4E700BF8CC300007D
:1019300000ED00E0A8C30000BCC30000D8C3000055
:1019400004C4000024C400004CC4000068C40000AB
:1019500070B506460D46264806F0D2F800232B70D7
:10196000244BDC6A14F002040AD1224BDB6A002B00
:101970000BDB204BDC6A14F080440AD1204670BD9A
:101980001D4806F0BDF80024F8E71C4806F0B8F83A
:10199000F4E71B4806F0B4F83046FFF745FE98B967
:1019A000144B9B6A13F0FF0F14D1124B9C6A14F472
:1019B0007F4416D10F4B9B6AB3F5803FDED3304690
:1019C000FFF760FF0446D9E731680E4806F098F843
:1019D0003468D3E72A4601213046FFF763FE044608
:1019E000CCE72A4601213046FFF7D6FE0446C5E77C
:1019F00094C4000000ED00E0ACC40000D0C40000BE
:101A0000E0C4000000C5000008B500230B700248C8
:101A100006F076F808BD00BF20C5000008B50A46EC
:101A20000F2905DC0349103A034806F069F808BDA0
:101A30000249F8E748C500007CC5000060C5000009
:101A400030B58BB01F4B5D68C5F30805002383F3E9
:101A50001188BFF36F8F0DF12603FFF703FE0446D5
:101A60000DF12702294606F0F1F99DF827300BB158
:101A70000BB030BD05460DF1040C20686168A2680A
:101A8000E368ACE80F0020696169A269E369ACE82A
:101A90000F009DF826304BB1089BC3F308025AB9DA
:101AA0006FEA53236FEA4323089305E0089B23F46E
:101AB000FF7323F00103089301A92846FFF760FD97
:101AC000D6E700BF00ED00E0064B5A6942F0100275
:101AD0005A615A6942F480625A615A6922F00802D6
:101AE0005A61704700ED00E0EFF30880EFF30981E1
:101AF00001B57246FFF7A4FF01BD00BF002080F3CF
:101B00001488BFF36F8F002080F30A8880F30B885E
:101B1000104880F3088800200F49087001F026FA69
:101B200000200E490860BFF34F8F00F02FF82020EF
:101B300080F311880A484FF40061401880F3098847
:101B4000EFF314800221084380F31488BFF36F8FF2
:101B500000F0F6F8C0CC00207B93002094ED00E06C
:101B600080B30020084BD3F89000C0F30720002377
:101B700006E0054AC2F898300021C2F8A0100133EF
:101B80008342F6DB704700BF00ED00E010B572B68F
:101B9000002484F31388FFF7E5FF234608E003F1F0
:101BA00020010E4A4FF0FF3042F821000133DBB232
:101BB0000F2BF4D9002308E003F16001074A4FF02E
:101BC000FF3042F821000133DBB20F2BF4D962B6AB
:101BD000BFF34F8FBFF36F8F10BD00BF00E100E078
:101BE00008B50A4B9B68834202D003F039FC08BD5C
:101BF000EFF30583002BF8D0054B5A6842F0805272
:101C00005A605A6A22F400425A62EEE7008D0020C0
:101C100000ED00E016498A684FF030001044EFF301
:101C2000098C80E8F01F202080F31288BFF36F8FAB
:101C3000104F4FF000664A698A603E60D2F8B400E7
:101C40000D4C2060D2F8B8000023C2F8B83080F301
:101C5000118802F1300090E8F01F8CF3098802F13E
:101C6000000004B506F02DF9BDE8044070470000FF
:101C7000008D002004ED00E0708B00201EF0040FAA
:101C80000CBFEFF30880EFF30980816911F8021CA3
:101C90000229FFD001B5724606F0CAF801BD00BFA7
:101CA000002807DB00F01F02400901239340024A8D
:101CB00042F82030704700BF00E100E000280CDB54
:101CC00000F01F024009012393402030034A42F8EC
:101CD0002030BFF34F8FBFF36F8F704700E100E0FC
:101CE000002808DB4901C9B200F1604000F56140FD
:101CF00080F80013704700F00F004901C9B2014B92
:101D00001954704714ED00E04209054B53F82220A6
:101D100000F01F00012303FA00F01040704700BFDD
:101D200000E100E0044B23F07F03044A9360BFF31B
:101D30004F8FBFF36F8F70470000000000ED00E091
:101D400008B5FFF7EFFF074AD2F8883023F4700395
:101D5000C2F88830FFF7CEFBFFF7D8FB00F04EF853
:101D600002F026FB00ED00E010B4A2F120040E49C1
:101D700042F8081C21F0010142F8081C42F8203CFE
:101D8000019B42F81C3C029B42F8183C039B42F822
:101D9000143C4FF0807342F8043C04650023C0F803
:101DA000B83010BC704700BF2D13000000B50E46C0
:101DB00015460D4B9860D0F8B4200C4B1A60D0F843
:101DC000A43083F30B882C4686F309880020044B4B
:101DD00098472046002100220023024C20470000A3
:101DE000D37E00002D130000008D0020708B00209A
:101DF000014B10221A61704700ED00E0002206E05E
:101E000003F00F030949194420230B760132B2F580
:101E1000917F0ADA13B2002BF2DB03F1604303F582
:101E20006143202183F80013F0E77047FCEC00E0E9
:101E300008B5EFF30583103B044A02EBC301496880
:101E400052F833008847FFF7DFFB08BD74AE00008F
:101E500010B584B00A4C23460A4A01210A4806F00C
:101E60006EF90023019302930393084B0193E41A44
:101E70000294012101A806F066F904B010BD00BF6C
:101E800000FC07200000002090C500005004002046
:101E9000024B034AC3F8C020704700BF00ED00E0CA
:101EA000AAFF4400034BC3F89800C3F89C10C3F882
:101EB000A020704700ED00E00E4BC3F89800C3F877
:101EC0009800D3F89C000A7A60F304020A72D3F8EF
:101ED000A020C2F34202087A62F347100872D3F8D6
:101EE0009C2022F01F020A60D3F8A03023F01F03C9
:101EF000CB60704700ED00E0084BD3F89030C3F39F
:101F00000723013B984205D810B5044606F00EF8A9
:101F1000204610BD6FF01500704700BF00ED00E0D7
:101F20002DE9F04F87B081460091019314460027B8
:101F300034E0C34565D12946C0B206F01DF82CE057
:101F4000584AC2F89860D2F89C3003F01F0321F081
:101F50001F010B43C2F89C302946E0B206F00CF892
:101F6000044610F1160F00F09680013415E0013B95
:101F70004C49C1F89860D1F8A02002F01F0223F06C
:101F80001F031343C1F8A0302946E0B205F0F4FF67
:101F9000044610F1160F7ED001340137009B9F429A
:101FA00079DA07EB47054FEA850A09EB85056E6884
:101FB000002EF2D0019B23B1284605F0CBFF00286C
:101FC00065D0314659F80A0005F0F8FF064610F1D1
:101FD000160F5FD0844262DD324BC3F89800D3F80D
:101FE0009C2022F01F02C3F89800D3F8A03043F0E1
:101FF0001F0859F80A306968194401F1FF3B934200
:1020000097D093429CD0C345B1D0013B2549C1F83C
:102010009860D1F8A02002F01F0223F01F031343A1
:10202000C1F8A0302946E0B205F0A6FF044610F141
:10203000160F30D001301B4BC3F89860D3F89C10BA
:102040009DF8102061F304028DF81020D3F8A03021
:10205000C3F34203D2B263F347128DF8102059F84C
:102060000A306A681344029323F01F03A8EB0B089D
:102070004344013B23F01F03059302A9C0B2FFF7BD
:102080003BFF044610F1160F05D0013485E76FF0D1
:10209000150400E00446204607B0BDE8F08F6FF05D
:1020A0001504F8E700ED00E010B5034C0123227899
:1020B000FFF736FF207010BD7893002070B50546FD
:1020C0000E46002400E00134A6421EDD04EB44036A
:1020D0009A0005EB830359680029F4D0A85805F04D
:1020E0006DFF04EB84030B4A42F8230010F1160F36
:1020F0000CD0094B1B78984209DA04EB840302EBFD
:1021000083010431FFF7D8FEDDE7002070BD6FF0DA
:102110001500FBE7748B002078930020044B052208
:10212000C3F89420BFF34F8FBFF36F8F704700BF8A
:1021300000ED00E0BFF35F8F024B0022C3F8942054
:10214000704700BF00ED00E038B51C4B1D681C4B0C
:10215000D3F89030C3F307239D422BD8FFF7EAFF53
:10216000FFF796FE002407E0144B596801EB0411B9
:10217000204605F0DBFE0134A542F5D81148057074
:1021800005F02DFF10F1160F13D00E4B1A780C4BE3
:10219000D3F89030C3F307239A4207DA084BC3F809
:1021A00098200021C3F8A0100132F0E7FFF7B6FF36
:1021B000002038BD4FF0FF30FBE700BF9CC500009A
:1021C00000ED00E07893002008B5024B1B689847AB
:1021D000002008BD888B0020034B1860034A9378C9
:1021E00043F0020393707047888B0020F4000020B6
:1021F00008B5054921F00701044A521A044805F0C0
:10220000FFFB002008BD00BF07D5022000FC07200F
:102210008C8B002068B108B5064A074B1B6807493C
:10222000A1FB03139B0C00FB03F042F00103984752
:1022300008BD704790B80000C802002083DE1B4331
:10224000254BD3F82436C3F3080282F48072C3F31B
:10225000094388324FF47A6101FB03F31F4901FB04
:1022600002335B001E4AA2FB0312D20B4FF4FA2189
:1022700001FB1231B1F57A3F00D30132194BC3F89B
:102280000429154BD3F82036C3F3080282F4807278
:10229000C3F3094302F217224FF47A6101FB03F3FF
:1022A00042F21C5101FB02331B0A0D4AA2FB03122E
:1022B00092094FF47A7101FB1231B1F5FA7F00D324
:1022C0000132084BC3F81C270022C3F80029012261
:1022D000C3F80026704700BF00C0FF00F82A008046
:1022E000D34D62100000125008B5044B044A1A6026
:1022F00000F008F8FFF7A4FF002008BDC802002086
:102300000020A107024B0122C3F80424704700BF3C
:10231000002008E0094BD3F80C3403F48033014665
:1023200018B1B3FA83F2520902701BB10B781BB1DA
:1023300000207047002070470120704700E01050D7
:1023400000487047088C0020034BC01A8010034BD4
:1023500003FB00F0704700BFAC8B0020B76DDBB60D
:1023600038B505460C46FFF7EFFF0146402203480B
:1023700005F069FF01462846A04738BDB0AD000012
:1023800030B583B005460C46FFF7DEFF014640231B
:1023900000932346054A064805F06FFF011E01DB46
:1023A00003B030BD2846A047FAE700BFC382000053
:1023B000B0AD000008B5042804D0072806D00228D4
:1023C00009D008BD064805F084FFFAE70221044859
:1023D00005F027FFF5E70121014805F022FFF0E7AE
:1023E000B0AD000010B582B0EFF31184202383F369
:1023F0001288BFF36F8F134A136843F00201116014
:1024000013F0010F09D1002384F31188BFF36F8FFC
:1024100093B905F06DFF02B010BD0DF10700FFF795
:1024200079FF9DF807300BB10023EDE7FFF788FF38
:1024300005F0E5FE0123E7E70021034805F0F1FE82
:10244000E9E700BF248C0020B0AD000010B5EFF329
:102450001184202383F31288BFF36F8F074A136818
:1024600023F00201116013F0010F04D084F31188EE
:10247000BFF36F8F10BD05F045FFF7E7248C0020F8
:1024800070B50546012806D12C4BD3F8503403F023
:102490000303012B4CD007F068FE044618B9284B03
:1024A0001B78002B39D1EFF31186202383F3128898
:1024B000BFF36F8F01241CB9204B0422C3F80823FB
:1024C0001E4BD3F84C24D3F84C3403F0030312F41E
:1024D000803F03D0012B26D0012D24D0FCB1304603
:1024E00005F00BFD154BD3F8403413F0FF0FE7D187
:1024F000124BD3F80831002BE2D0104B0022C3F866
:102500000821D3F808210122C3F840240D494FF4D3
:102510008040C1F8A0011A61D2E70026CBE7012074
:1025200005F0FAFEDEE724B186F31188BFF36F8F62
:1025300070BD024B0422C3F80423F9E700E01050F9
:102540007B93002000E100E000B585B0CDF800D01D
:10255000CDF804D000230293012303936B46074A6E
:1025600005F0A7FE002805DB41F28832002368460B
:1025700002F07AF905B05DF804FB00BF3983000072
:10258000F8B50646002201214FF4877005F08DFC56
:10259000114800F071FDD8B9074600F097FD0024FE
:1025A00003E00123AB601C44E4B2022C0ED82146A8
:1025B000304605F0D5FD05462146304605F0DCFDE8
:1025C000064905F08CFB031EEBDA1F463846F8BDC2
:1025D0006FF00407FAE700BFB5230000D4C5000080
:1025E00010B504460E4B0121D3E8EF2FC3E8E01FDE
:1025F0000028F9D11AB1631E012B0DD910BD09486D
:1026000005F0BAFD084900234B608B60CB600123C5
:102610008B6005F081FBEEE72046FFF731FFEDE729
:10262000A88B0020B0AD0000988B002010B50446A8
:102630000A2806D0E1B2064883685B6898472046BE
:1026400010BD034883685B680D219847F2E700BF1F
:102650003CAE000010B5044C2046FFF7BDFD2046FF
:10266000FEF748FE10BD00BF2D26000008B5054846
:1026700007F086FC18B1FFF7EDFF002008BD6FF0F2
:102680001200FBE73CAE0000036803F01F0202608B
:102690005B09032B03D8DFE803F00A0406080020D7
:1026A000704704487047044870470448704704481E
:1026B000704700BF00820D500004055000860D5089
:1026C00000A01050032803D8DFE800F008040A0631
:1026D000002070470348704703487047034870471D
:1026E0000348704704AE0000E8AD0000CCAD000028
:1026F00020AE000038B504464568284605F007FFBF
:1027000020B91149204605F0B1FE38BDA86807F090
:10271000D8F90028F5D10021A86807F0CEF980B9D2
:1027200000220A49A86807F0C0F900220121DB2035
:1027300005F0BBFB0022012140F20D1005F0B5FBB6
:10274000DFE76FF00400E0E7CF850000B18500000F
:1027500008B5054B054A9362054A1A60002201211B
:10276000C72005F0A2FB08BD688C00206C02002089
:1027700000700C5038B505464468A369984701219C
:10278000E06906F07EF92B4622692146A06A07F02F
:1027900078FB002804DB0449284606F060F938BDC0
:1027A0006FF00400FBE700BF998B0000036803F0A3
:1027B0001F0202605B09032B03D8DFE803F00A0461
:1027C00006080020704704487047044870470448D2
:1027D00070470448704700BF00820D500004055048
:1027E00000860D5000A01050F0B583B001900C464B
:1027F00017461E4601A8FFF7D9FF0199203150F86E
:102800002130094D1D4044EA470444EA86039DF8FF
:10281000202043EA02239DF8242043EA02432B436D
:1028200040F8213003B0F0BDF0F0FCFF2DE9F04F8F
:1028300085B007468B469246002423E04FF0FF35D3
:1028400035E0CAF80456012603963146B5F1FF3F3C
:1028500016D0B1F1FF3F40F04E8157F8093013F424
:10286000004F02D001260022039200220192CDF8EF
:102870000080C3F34123324603992846FFF7B4FF93
:102880000134E4B25C4580F03A814FEA840957F89C
:102890002430C3F3C322C3F30805082A00F23181B0
:1028A0009C4911F8028040F2FF129542C6D01B0EDF
:1028B0004E2B00F2298101A252F823F04328000098
:1028C000F9290000072A0000132A0000212A00002D
:1028D0002F2A00003B2A0000092B0000092B0000D2
:1028E000092B0000092B0000552A0000692A00006E
:1028F000092B0000092B0000092B0000092B000008
:10290000092B0000092B0000092B0000092B0000F7
:10291000092B00007D2A00008F2A0000A12A000058
:10292000B32A0000092B0000092B0000092B00002E
:10293000092B0000092B0000092B0000092B0000C7
:10294000092B0000092B0000092B0000092B0000B7
:10295000092B0000092B0000092B0000092B0000A7
:10296000092B0000092B0000092B0000092B000097
:10297000092B0000092B0000092B0000092B000087
:10298000092B0000092B0000092B0000092B000077
:10299000092B0000092B0000092B0000C52A0000AC
:1029A000092B0000092B0000092B0000092B000057
:1029B000092B0000092B0000092B0000092B000047
:1029C000092B0000092B0000092B0000092B000037
:1029D000092B0000092B0000092B0000092B000027
:1029E000092B0000092B0000092B0000092B000017
:1029F000092B0000492A0000CAF80C56002603964D
:102A00004FF0FF3122E7CAF81056012603963146EF
:102A10001CE7CAF80856002603964FF0FF3115E769
:102A2000CAF8005600260123039331460EE7CAF880
:102A3000045601260396002108E7CAF80856002626
:102A400003964FF0FF3101E7CAF8105601260396AE
:102A50003146FBE6CAF80056B8F1000F3BD000261D
:102A600003964FF0FF31F1E6CAF80456B8F1000FB3
:102A700039D0002603964FF0FF31E7E6CAF86055DB
:102A800057F80910C1F3004101260396DEE6CAF8A3
:102A9000645557F80910C1F3004101260396D5E6A5
:102AA000CAF8685557F80910C1F30041012603968A
:102AB000CCE6CAF86C5557F80910C1F3004101265D
:102AC0000396C3E60421284606F0B0F801260396D3
:102AD0004FF0FF31BAE64646CDF80C804FF0FF319B
:102AE0004FF00808B2E64646CDF80C804FF0FF31B3
:102AF0004FF00808AAE6284606F090F8ADE6002058
:102B000004E06FF0150001E06FF0850005B0BDE84E
:102B1000F08F00BFB0C60000F8B505460E46476806
:102B200007F023FB20B9154B1B7843B1002300E0CD
:102B3000012353B9284606F006FA044611E00123A2
:102B4000F7E784F31188BFF36F8FEFF3118420232D
:102B500083F31288BFF36F8F284606F0C9F8002868
:102B6000EFD07B6A1E700122796A284606F0C9F808
:102B700084F31188BFF36F8FF8BD00BF7B930020F3
:102B800038B5044645680121E86806F001FA636833
:102B900018686B69C0F8243505F1180106F06BF868
:102BA000204606F070F900B138BD0249204606F013
:102BB00050F8F9E709900000F8B5294D2C686E68C7
:102BC000101B63EB060EC0F31301070D47EA0E3727
:102BD000C7F313073944CEF31327394401EB1E71B1
:102BE000204FA7FB017C4FEADC0C0CEB8C0C0CEBB0
:102BF0008C0CA1EB0C014FF0000C401A6EF1000E92
:102C0000194F1A4900FB01F107FB0E11A0FB070742
:102C10003944800840EA817001184CEB0C0C09180B
:102C20004CF1000C4FEA4C1747EAD1674FEA411EBE
:102C300011EB0E014CEB070C09184CF1000C641859
:102C400046EB0C062C606E6009490A604B60094B2C
:102C500000240025C3E9004502F036FEF8BD00BFA0
:102C6000F00500201F85EB51295C8FC2F5285C8F91
:102C7000D8050020E805002010B500220121E4203D
:102C800005F013F9324AD2F8183723F44033C2F86A
:102C90001837002000F07CFE002858DB2D49012069
:102CA00000F0BEFE002852DB00F048FEC0F3130324
:102CB000020D42EA0132C2F313021344C1F313229C
:102CC000134403EB1173244AA2FB0342D20802EB24
:102CD000820202EB82029B1A0024C01A61F10001F9
:102CE0001E4B1F4A00FB02F203FB0122A0FB030361
:102CF0001A44830843EA82739208D91842EB02000F
:102D0000C91842EB00004FEA401C4CEAD16C4FEA74
:102D1000411E11EB0E0140EB0C00C91842EB000202
:102D2000104B19605A60104B19605A600F4B4FF0EE
:102D3000FF304FF0FF31C3E9000122460C490D4B33
:102D4000187A00F00BFE0C4B67221A60204610BD6B
:102D500000200E50C40200201F85EB51295C8FC259
:102D6000F5285C8FF0050020D0050020D805002054
:102D7000B92B0000BC020020DC8C002008B500F05C
:102D8000DDFD174A13685268C01A61EB0201154B4A
:102D900018605960C0F31303020D42EA0132C2F316
:102DA00013021344C1F31322134403EB11730E4AAD
:102DB000A2FB03C2D20802EB820202EB82029B1A40
:102DC000C01A61F10001094A094B00FB03F302FB41
:102DD0000133A0FB02021344800840EA837008BD5F
:102DE000F0050020E80500201F85EB51295C8FC20B
:102DF000F5285C8FF0B583B084462C4B187A2C4BA9
:102E00001C685D682B4B1A685B689D4208BF944242
:102E100038D04FEAEC731CEB0C0243EB030112EBCE
:102E20000C0243EB01014E0146EAD2665701D2196A
:102E300041EB060112EB0C0243EB01031E4E31681D
:102E40007668DFF878C0DCF80070DCF804C0C919D7
:102E500046EB0C0C521843EB0C03154E32607360BA
:102E6000944275EB03061FD2641A65EB0C05C82C5F
:102E700075F10005B4BF01210021009100F006FEAC
:102E800003B0F0BD0E4B9C45C3D8642101FB0CF18F
:102E900001B90121064B0C1945F100051C605D606C
:102EA000012200F02BFEEBE70021E6E7BC02002048
:102EB000E0050020D8050020F0050020E8050020EE
:102EC00014AE4701036813F0020F0DD0036813F02E
:102ED000010F0DD0074B0922C3F80C250F22C3F8B0
:102EE000042501221A60FEE7034B0360EF3B0360F9
:102EF000704700BF00801050F000FA50036813F0D4
:102F0000020F0DD0036813F0010F0DD0074B0922FB
:102F1000C3F80C250F22C3F8042501221A60FEE72E
:102F2000034B0360EF3B0360704700BF008010500D
:102F3000F000FA5008B50848FFF7C4FF0748FFF74C
:102F4000C1FF0748FFF7DAFF0648FFF7D7FF06483B
:102F5000FFF7B8FF08BD00BF00F50E5008F50E5092
:102F600010F50E5018F50E5000F70E5008B52F4B07
:102F70000122C3F80028A3F55723D3F800342C4BC3
:102F8000D3F84033292B01D0332B03D1294B012215
:102F9000C3F80C24FFF7CEFF274AD2F88C3043F455
:102FA0004063C2F88C30002309E0214A03F180011C
:102FB00052F8310002EBC1025268026001333F2B2C
:102FC0000DD803F180021A4951F83220B2F1FF3FC7
:102FD00005D003F1800251F83220002AE5D1174BC9
:102FE000D3F8003613F0010F04D0144B6FF0010238
:102FF000C3F80026124BD3F8182522F00302C3F8B9
:103000001825D3F81825C3F818250B49D1F88C20BA
:1030100042F44062C1F88C200022C3F8A025094B7D
:10302000D3F80034012BFAD008BD00BF00001250C5
:1030300000C0FF000030055000ED00E000E010503F
:1030400000E004500090045008B5024B1B689847FC
:1030500008BD00BFE08C002008B5024B1B689847F4
:1030600008BD00BFE08C002008B5024B1B6807209C
:10307000984708BDE08C002008B5104B1B79D3B9E8
:103080000E4B186001221A7100B10D4800F032F9A0
:10309000034670B9094B186800B10A4800F03CF8C3
:1030A000034630B9054B186800B1074800F0C8F96D
:1030B0000346184608BD6FF07703FAE7E08C00205E
:1030C00049300000593000006930000008B5034B5A
:1030D0001B680BB105F0FCFF08BD00BFE08C0020B1
:1030E00010B50C4B0422C3F8082301225A610022B8
:1030F000C3F80821D3F8083142F21074054BD3F815
:103100004C3413F4803F04D0012005F0A2FF013CB1
:10311000F4D110BD00E0105008B5084B1B7953B92D
:10312000064B186001221A7106F006F8044BC3F82A
:103130004004002008BD6FF07700FBE7E88C00201A
:1031400000E0105000B583B02E4BD3F84C24D3F8D8
:103150004C3403F003038DF8073012F4803F1FD185
:10316000284BD3F8483413F0010F1ED105F0E4FFCB
:103170008DF807009DF80720224BC3F84024002259
:10318000C3F80821D3F8082101221A611E4B1B68DD
:1031900063B31C4B0422C3F8042303B05DF804FBA3
:1031A0000DF1070005F0CAFFE4E7164BD3F85034E1
:1031B00003F003038DF807300DF1070005F0BEFFA3
:1031C0000028D7D0104B1B6823B10E4B0422C3F844
:1031D0000423E2E70B4BD3F80831002BFAD0094B5C
:1031E0000022C3F80821D3F80831D6E7054BD3F8FD
:1031F0000831002BFAD0034B0022C3F80821D3F882
:103200000831CAE700E01050E88C002008B51C4BDC
:10321000D3F80C0300F00C0007E01A4B1B6898472A
:10322000174BD3F80C0300F00C0040B3B0FA80F059
:10323000C0F11F00012303FA00F283009BB203F5E3
:1032400080739BB2C0B203F1A04303F58713002142
:1032500019601B68D3B20A4AC2F80833042BDCD1C8
:10326000D2F84C14D2F84C2412F0030FD5D1044AF2
:103270000121C2F84014C2F804331161D0E708BD3F
:1032800000E01050E88C002010B5174B7122C3F8F5
:10329000082301225A600022C3F80021D3F800312C
:1032A000124BD3F84033292B01D0332B02D10E4BD4
:1032B0000122DA6042F2107406E0012373B10120AA
:1032C00005F0C7FE013C07D0074BD3F80C3413F4CC
:1032D000803FF2D10023F1E7002300E0012313B186
:1032E000034B00225A7110BD00E0105000C0FF00D7
:1032F000F08C0020054B1B792BB9044B1860012280
:103300001A71002070476FF077007047F08C002032
:10331000194B0022C3F81021D3F81011C3F818215B
:10332000D3F81811C3F81421D3F81431134BD3F880
:103330004033292B01D0332B02D10F4B01229A604D
:103340000D4B0022C3F80021D3F8002101221A609E
:103350000B4B1B6823B1084B7122C3F80423704741
:10336000054BD3F80031002BFAD0034B0022C3F8F1
:103370000021D3F80031704700E0105000C0FF007A
:10338000F08C002008B51E4BD3F80C0300F0710040
:1033900013E01C4B02225A71194B0022C3F814216E
:1033A000D3F814212022C3F80423164B1B68984736
:1033B000134BD3F80C0300F07100F8B1B0FA80F0B1
:1033C000C0F11F00012303FA00F283009BB203F552
:1033D00080739BB2C0B203F1A04303F587130021B1
:1033E00019601B68D3B2064AC2F80833102BD0D03C
:1033F000402BDAD1034B00225A71D6E708BD00BF3B
:1034000000E01050F08C002010B50C4B8022C3F867
:10341000082301229A620022C3F81C21D3F81C3130
:1034200042F21074054BD3F86C3413F4803F04D08F
:10343000012005F00EFE013CF4D110BD00E010505B
:10344000054B1B792BB9044B186001221A7100201F
:1034500070476FF077007047F88C00200D4B00220A
:10346000C3F81C21D3F81C2101225A620A4B1B68A5
:1034700023B1084B8022C3F804237047054BD3F8CF
:103480001C31002BFAD0034B0022C3F81C21D3F8C7
:103490001C31704700E01050F88C002008B50B4B31
:1034A000D3F8043313F0800F0FD0084BD3F81C313E
:1034B0005BB1064B0022C3F81C21D3F81C218022EB
:1034C000C3F80823024B1B68984708BD00E0105062
:1034D000F88C002030B401F5A27150F821500E4C48
:1034E0002C4040F8214050F8214041F6F07C0CEA95
:1034F000021C1B0403F440334CEA030C9DF8083013
:103500001B0503F480134CEA030C44EA0C0440F856
:10351000214030BC704700BF0FE0ECFF036803F0B0
:103520001F0202605B09032B03D8DFE803F00A04E3
:103530000608002070470448704704487047044854
:1035400070470448704700BF00820D5000040550CA
:1035500000860D5000A0105000B583B0019001A866
:10356000FFF7DCFF019A203250F82210044B0B4089
:1035700043F0020340F8223003B05DF804FB00BFC3
:10358000F0F0FCFF70B584B086460E4694460B4BB7
:103590000FCB04AC04E90F00734609E004AA02EB68
:1035A000830252F8104C256A4CF8045B2562013303
:1035B0000EEB06029A42F1D804B070BD70B800005C
:1035C0004309034AD35C00F01F001844C0B270479F
:1035D00018C70000014B03EB80007047CC020020AD
:1035E000014B03EBC000704730C7000030B583B01B
:1035F00005460191002400E00134032C18D80E4B3D
:103600001B5D03F0070202A901EBD30313F8043C8E
:10361000D34013F0010FEFD005EB840201212046C7
:10362000FFF7B0FF55F82430002BE5D0012000E073
:10363000002003B030BD00BF28C7000070B50446AD
:103640000D461E4604984FF0000C01E00CF1010CF1
:1036500084450ED25FFA8CF2920002F580719208D6
:10366000012303FA02F21542F0D00023635063589D
:10367000ECE715F4003F04D00023C4F84431D4F83B
:103680004431064B9C4207D040F20D1004F003FC7D
:103690000EB1C4F8145370BDDB20F7E700A00D5045
:1036A0002DE9F04784B081460F46904600230093F1
:1036B00001930293039351686846FFF797FF4CE02C
:1036C00094FAA4F4B4FA84F404F01F05254B9B5D2E
:1036D00045EA43152846FFF773FF083037F810A076
:1036E000CAF3820A0DEB8603E00804F007041A5CB3
:1036F0000121A14022EA01021A54284605F013FED6
:10370000034652462946384605F0E4FF284605F0B0
:1037100019FE04AB03EB860353F8104C002CCFD1F9
:103720000136032E0DD8104B9B5D08F10402D90819
:1037300003F00703525C22FA03F313F0010FEFD0FA
:10374000E7E700224FF40031484605F051FDD8F874
:1037500004106846FFF74AFF08B10026E1E704B00D
:10376000BDE8F0872CC7000028C7000010B5D0F8CE
:10377000103523F00203C0F8103540F6FF73C0F88F
:10378000283300220AE0930003F5C07C002440F8AF
:103790000C40DBB28033C4500132D2B20B2AF2D9D2
:1037A0000123036669B1074B074A1068074AA2FB69
:1037B0000020800C00EB4000C0EB401043F0010300
:1037C000984710BDA0B80000C802002083DE1B434C
:1037D000024BD3F81005C0F34000704700200E5094
:1037E00003498B680122824013438B60704700BFFE
:1037F00060000020027A0A4BD3F8103523F0010351
:103800005AB101221343064AC2F810350368C2F8C0
:10381000A4364368C2F8AC3670470022F2E700BF16
:1038200000200E5030B583B004460191EFF31185AE
:10383000202383F31288BFF36F8F0C4B5A68019BD0
:103840001340019301A805F008FC002808DB074994
:103850004B680122824023EA02034B602070002063
:1038600085F31188BFF36F8F03B030BD6000002077
:1038700070B582B02D4BD3F82C4320E02C4B01F1D6
:103880000C0203EBC20553F832206B684FEA800C40
:10389000284D55F80C6096B1002645F80C60244D73
:1038A00001EB41064FEA860CAC44DCF80C6001EBFE
:1038B00041014FEA810C654429690091B04794B3F6
:1038C00094FAA4F0B0FA80F001238340DD4324EAA7
:1038D0000304174B1A1892F8541001EB410C4FEAED
:1038E0008C021344DB68B3B1134AD2E8EF3F03EA1A
:1038F0000506C2E8EC6FBCF1000FF6D1C34013F02F
:10390000010FBBD0094A00F152031D0102EB031362
:103910005B685259BAE78000064B1A58002ACED08D
:1039200000221A50CBE702B070BD00BF00200E503D
:103930006000002000210E50E8000020064BD3E973
:1039400000234FF0FF3191426FF040419941F5D390
:103950001046C3F31301704740270E5010B40A4CB1
:10396000231893F8543003EB430C04EB8C0CCCF885
:103970000C10CCF810208CF8140001238340034A6B
:10398000C2F8243310BC70476000002000200E50A5
:1039900030B585B01F4B1C78002C38D105461E4A27
:1039A00001AB07CA83E807001C49D1F8102522F0B3
:1039B0000202C1F810251846FFF71CFF672006F029
:1039C000C5F8052810D06FF08B001EE0204606F0E9
:1039D000C8F8104B04EB440103EB81010875034464
:1039E00083F854400134E4B2042CEFD90B4C00238B
:1039F0002A466721204606F0C9F801212046FFF734
:103A0000B5FE044B01221A70002005B030BD6FF0E6
:103A10007700FAE76000002080B8000000200E5018
:103A200038B505460C46FFF7D3FE18BB29461448A7
:103A300006F06BF8134B1B68134AA2FB03239B0C85
:103A400003EB431300E0013B3BB10D4AD2F84007C2
:103A5000D2F8442712F0804FF5D173B14FF0FF3107
:103A60002046FFF7DFFE002803DB2078FFF7B8FED3
:103A7000002038BD6FF07700FBE76FF07300F8E7C8
:103A800000200E50C802002083DE1B4370B515468F
:103A90001C469DF81010164A131893F854300C3336
:103AA00002EBC30642F833507460B1B1114A00F121
:103AB0005203190102EB03135550C4F313025A6069
:103AC00080000D4E0644336883B1FFF737FFA842EC
:103AD000A1410BD20023336008E0064B52300201B3
:103AE00003EB00109D50C4F31304446070BD00BF8D
:103AF0006000002000200E5000210E5070B40F4CCA
:103B0000231893F854300C3304EBC30C54F833509F
:103B1000DCF804604D1946F1000644F83350CCF847
:103B2000046021F0004141EAC271000100F1A040AF
:103B300000F56220C0F8281570BC704760000020B6
:103B400082B08DF80400C9B28DF8051040EA01205A
:103B5000054BC3F80005044BD3F8003413F0010FF4
:103B6000F9D002B0704700BF00E00450036803F0D2
:103B70001F0202605B09032B03D8DFE803F00A048D
:103B800006080020704704487047044870470448FE
:103B900070470448704700BF00820D500004055074
:103BA00000860D5000A01050F0B583B001900C4677
:103BB00017461E4601A8FFF7D9FF0199203150F89A
:103BC0002130094D1D4044EA470444EA86039DF82C
:103BD000202043EA02239DF8242043EA02432B439A
:103BE00040F8213003B0F0BDF0F0FCFF2DE9F041CA
:103BF00005460C4616461F46002380F823305368BE
:103C000033B1D36803F06043B3F1005F40F01E812D
:103C10003378023BDBB2012B48D98E4BC4F8083312
:103C200095F82430002B4AD117F0140F0CBF012354
:103C3000002385F82430337885F82030737885F8B0
:103C40002130F368EB6073682B6133696B61B36893
:103C5000AB61C7F3001385F82530EF617378C4F8C2
:103C600088350023C4F83831D4F83821C4F8283115
:103C7000D4F82821C4F81431D4F81421C4F804313C
:103C8000D4F8043117F0010F1FD00123C4F84C37CA
:103C900017F0020F1DD00123C4F814373378032B1B
:103CA00000F2AC80DFE803F07D996619336903F018
:103CB0006043B3F1005FB0D06FF00C0857E0AB6821
:103CC000C4F804336FF00F0851E00023C4F84C37F8
:103CD000DEE70023C4F81437E0E74FF48073C4F83C
:103CE0000032EA682B69C4F83C27C4F84037012346
:103CF000236500224FF00061204605F06BFF00288D
:103D0000F7D16A69AB69C4F83C27C4F840374FF46F
:103D10008063AB604FF0000817F0080F11D13378C3
:103D2000032B0ED0012B6CD02B68002B73D00021FD
:103D3000204605F0CFFF73681BB92B680BB1012338
:103D400063602B68002B69D017F0040F01D00023AB
:103D5000AB6017F0400F03D1AB6843F00203AB60D8
:103D6000AB6843F02003AB60AB68C4F80433404653
:103D7000BDE8F081EA682B69C4F83C27C4F84037F5
:103D80006A69AB69C4F80427C4F808374FF4845350
:103D9000C4F80032012323610223AB604FF0000816
:103DA000BAE7EA682B69C4F83C27C4F8403717F033
:103DB000200F0BD04FF48073C4F800324FF48063AF
:103DC000AB60012323614FF00008A5E74FF40073B7
:103DD000C4F800320223AB60F3E7EA682B69C4F849
:103DE0000427C4F808374FF48053C4F80032012385
:103DF00023610223AB604FF000088DE76FF01508D8
:103E00008AE72B6823B10021204605F047FF92E79F
:103E100005F10C01F8E705F10C0189E7D4F8C404B9
:103E2000C4F8C404002385F8243018B105F097FFC6
:103E300080469CE717F0400F99D12946204605F0AF
:103E4000A3FF002893D16FF08B0890E76FF00C0868
:103E50008DE700BF2264F81F0021C1600268094B92
:103E6000C2F80833D2F8003223F0FF5323F4BC53D6
:103E7000C2F80032C2F80015012380F8263080F81D
:103E8000281070472264F81F2DE9F04186B00446DF
:103E9000804658F8045B90F82430012B6ED000F176
:103EA00018073A460221284605F094FE06463A468F
:103EB0002021284605F08EFE00287DD0002E60D0FF
:103EC000236A13F0400F04D194F82730002B00F040
:103ED000A680236A13F0040F33D10023C5F83831CC
:103EE000D5F83821C5F83431D5F8343194F8293073
:103EF00013B194F82730A3B10023C5F80032E36072
:103F0000604BC5F80833C5F30F32C5F3083302F030
:103F10001F025B09012101FA02F260335A4941F89C
:103F2000232094F824308DF8043094F825308DF84F
:103F300005302369049363690293A3690593E369D8
:103F40000393D5F8C434C5F8C43413F0020F7FD0FE
:103F500001238DF8003094F829300BB984F828300B
:103F6000236A13F0040F02D094F827301BB1636862
:103F7000A1686846984706B0BDE8F08100F11007D7
:103F80008FE7E368C5F808330223E360E368C5F808
:103F9000043300224FF48041284605F01BFE20B177
:103FA000D5F8003213F4007F02D101232B616B603E
:103FB000012384F82730DEE7002E81D13A464FF402
:103FC0008061284605F006FE94F8243083BB94F8FF
:103FD00029309BB9C5F80032E3602A4BC5F8083395
:103FE000C5F30F32C5F3083302F01F025B0901214C
:103FF00001FA02F26033244941F8232094F8243076
:104000008DF8043094F825308DF805302369049339
:1040100063690293A3690593E369039391E74146BA
:10402000284605F0B1FE80F0010084F8270050E733
:104030004FF40073C5F800322223E360114BC5F83A
:104040000833E368C5F8043301232B652B6192E73D
:1040500013F0040F03D002238DF800307BE713F038
:10406000010F03D003238DF8003074E794F8273054
:104070001BB104238DF800306DE700238DF800306C
:1040800069E700BF2264F81F00E100E0036803F065
:104090001F0202605B09032B03D8DFE803F00A0468
:1040A00006080020704704487047044870470448D9
:1040B00070470448704700BF00820D50000405504F
:1040C00000860D5000A01050F0B583B005460E4696
:1040D00005F00FFF304605F00CFF019501A8FFF732
:1040E000D5FF019A203250F82230214F3B4040F654
:1040F0000D04234340F82230019601A8FFF7C6FFC4
:10410000019A203250F822303B40234340F82230BD
:10411000042004F09EFF0024082C12D8304605F03D
:1041200002FF70B9284605F0F1FE042004F091FF6B
:10413000284605F0DEFE042004F08BFF0134E4B2D3
:10414000EAE7304605F0E2FE042004F082FF304644
:1041500005F0CFFE042004F07CFF304605F0E3FEBE
:1041600010B1002003B0F0BD6FF08B00FAE700BF84
:10417000F0F0FCFF38B5EFF31185202383F31288AC
:10418000BFF36F8F054B9C6805F012FF85F3118814
:10419000BFF36F8F2046FDF723FD38BD008D002053
:1041A000F0B587B000EB4006104D05EB861600EB2E
:1041B00080000F4B03EB80030E4A0592012204920C
:1041C0000F22039200220292019200930A4B4FF4B5
:1041D000A0720A4901EB8011304600F0D1FC737BDC
:1041E00023F00403737307B0F0BD00BFF80500208F
:1041F000008D002040C70000B79F000080BB00205A
:1042000038B505460B4B53F8204002E02368984729
:1042100008346B1C074A52F82330A34209D960685E
:104220000028F3D0037E13F0010FF1D105F08FFECB
:10423000EEE738BD50C7000008B553EA020102D1CD
:1042400001F0E4F808BD0249183001F0A3FAF9E7DB
:104250008BA3000010B586B0184C14E0636A059378
:10426000236A0493E3690393A36902936369019347
:1042700023690093E368A2686168206800F080FC0D
:1042800023685C6530340E4B9C42E7D300F066FF38
:104290000A4C00E030340A4B9C420BD2A26AE36A1B
:1042A000B3F1FF3F08BFB2F1FF3FF3D02068FFF743
:1042B000C3FFEFE700F06AFF06B010BD84B700004F
:1042C00084B7000008B50A4B01221A700320FFF7DB
:1042D00097FF06F03DF90420FFF792FFFFF7BAFFC2
:1042E000FCF71CFF034A137B23F00103137308BD83
:1042F0007B930020B806002008B50146014A024819
:10430000FDF754FDC5420000B806002010B5044674
:10431000FFF746FF04EB44030A4901EB83110A4A05
:1043200004EB840302EB8303D9601C74074B03EB9B
:10433000C42303F5006304EB840402EB840253609E
:1043400010BD00BFF8050020008D002080B30020C4
:1043500070B586B000F052FF104D114B5D61114BEE
:104360000593012304930024039402940194009480
:104370000D4B4FF480520D49284600F001FC0646D3
:104380006B7B23F004036B73284605F089FF2046FE
:10439000FFF7BCFF304606B070BD00BFB806002076
:1043A000008D002048C70000C5420000C0BC0020AE
:1043B00008B50020FFF724FF184B03F5006282F3D5
:1043C000088883F30A88164CE02384F822300023FF
:1043D000E37723766376A37684F82030626A42F42A
:1043E000E022626284F82330FDF76EFBFDF700FDEA
:1043F0004FF0FF33A362E362FDF7A6FEFDF728FD51
:10440000084800F023FC0120FFF7FAFE0220FFF726
:10441000F7FEFFF79DFFFFF76FFF00BF80B300209F
:1044200000ED00E0780700202DE9F04F83B004464E
:104430000D469DF8309000F1080AEFF31187202116
:1044400081F31288BFF36F8FB846006AE168884233
:1044500059D22668B44221D0B6F1000B18BF4FF0F4
:10446000010BEEB9BBF1000F2AD1B9F1000F38D121
:10447000A26923699A4243D0A069A268801AA06108
:10448000294606F009FB236A0133236288F3118869
:10449000BFF36F8F584603B0BDE8F08F0026DBE70F
:1044A0007268336813605A60002333607360727BF4
:1044B00022F002027273B360304605F089FDD1E745
:1044C000A2682946306906F0E7FA0024C6F8BC4025
:1044D000304605F0E5FE3946504600F013FEA3468F
:1044E000D8E7A2682946E06906F0D6FAE369A2682F
:1044F0001344E36162699342C5D12369E361C2E772
:104500006369A361B8E753EA020102D16FF0220B9D
:10451000BCE7064989680D6100920193224639463D
:10452000504600F02DFD8346B4E700BF008D00200B
:104530002DE9F04182B00446084604F10807EFF384
:104540001186202585F31288BFF36F8F256A65B920
:1045500053EA020160D16FF0220586F31188BFF3A0
:104560006F8F284602B0BDE8F081A268A16906F00D
:1045700093FAA369A2681344A361626993422AD0A3
:10458000236A013B2362D4F80080444526D0B8F169
:10459000000518BF0125B8F1000F22D1002DDCD095
:1045A000A268D8F81010E06906F076FAE369A2680C
:1045B0001344E361626993422BD0236A013323627F
:1045C0000025C8F8BC50404605F06AFE3146384622
:1045D00000F098FDC5E72369A361D1E74FF000081B
:1045E000D5E7D8F80420D8F8003013605A600023CB
:1045F000C8F80030C8F8043098F80D2022F0020204
:1046000088F80D20C8F8083008F1180005F069FF97
:10461000C4E72369E361D0E705498968086100922E
:10462000019322463146384600F0AAFC054698E739
:10463000008D00202DE9F04182B00446EFF3118790
:10464000202181F31288BFF36F8FC16899B90029C7
:1046500050D1364B9B6893F90E3023610131E160F4
:10466000324B9B68A36087F31188BFF36F8F0020E4
:1046700002B0BDE8F08116461D4682682B4B9B6850
:104680009A42E4D055EA060136D092F90E804146AE
:1046900093F90E0005F0A9FC804534DC4FF00008CA
:1046A0000096019522463946214800F069FC002811
:1046B000DED0EFF31185202383F31288BFF36F8FD1
:1046C000A36843B323689C4223D013B3216993F9B1
:1046D0000E0005F08AFC0146204605F091FCE8B981
:1046E000B8F1000F1AD185F31188BFF36F8F6FF007
:1046F0000A00BDE72369B0E787F31188BFF36F8F26
:104700006FF00F00B4E70146204605F079FC8046C3
:10471000C6E72169E0E7B8F1000FE4D02946044874
:1047200000F0F0FC6FF00A00A2E700BF008D00204F
:10473000248D0020F8B58368002B47D00446264A14
:104740009268934245D1C368012B04D9013BC360F1
:1047500000252846F8BDEFF31186202383F3128845
:10476000BFF36F8F016905F04BFC2768BC420CD08A
:104770003D1E18BF012557B9A760CDB90023E360DE
:1047800086F31188BFF36F8FE3E70027F0E77A68BD
:104790003B6813605A6000233B607B607A7B22F0A9
:1047A00002027A73BB6007F1180005F09AFEE3E796
:1047B00097F90E3023610025C7F8BC50384605F044
:1047C0006FFD3146054800F09DFCC2E76FF015050E
:1047D000BFE74FF0FF35BCE7008D0020248D00209F
:1047E000F8B50446EFF31187202383F31288BFF353
:1047F0006F8F0568A84212D02E1E18BF012685B9FA
:1048000006BBA368E268934224D001221344A3604C
:1048100000230BBB87F31188BFF36F8FF8BD002512
:10482000EAE76A682B6813605A6000232B606B60AC
:104830006A7B22F002026A73AB6005F1180005F092
:1048400050FEDDE70023C5F8BC30284605F028FD02
:104850000123DEE70022D9E73946024800F052FC86
:10486000DCE700BF248D002010B582B0EFF311818A
:10487000202484F31288BFF36F8F846844B1013C15
:10488000846081F31188BFF36F8F002002B010BDE8
:1048900053EA020406D0009201930246054800F054
:1048A0006FFBF3E781F31188BFF36F8F6FF00F0099
:1048B000ECE700BF248D002080B338B50D460446D8
:1048C0001C4B9A68D0F8C0309A421BD000231A467D
:1048D000D4F8DC30C3F38001C3F3C00013F0010F40
:1048E0001FD001B102B300B109B300232B60D4F88B
:1048F000C83073B11D60C4F8C850204605F0ADFB48
:10490000012038BD05F031FC08B90123DFE70023A1
:10491000DDE7C4F8C850C4F8C450EEE76FF01500E6
:1049200070476FF01200ECE76FF00F00E9E76FF0EF
:104930000F00E6E7008D002010B5C36823F00203E6
:10494000C360134B1C687CB1236803B10CB1002118
:104950000FE02346FBE722460D4805F06BFB04F110
:104960000800FFF73DFF10BD2346F0E71A461C463E
:104970001346002CF7D062688242ECD02146002B0F
:10498000F4D01A68002AF2D0002BF0D11A46EEE7D4
:10499000248D002070B584B00546EFF311862023E6
:1049A00083F31288BFF36F8FD5F8C440002C3FD03B
:1049B0002368C5F8C430D5F8C82094424DD0D5F846
:1049C000DC3043F00203C5F8DC30E36843F0010259
:1049D000E26023F0040343F00103E360636886F3BD
:1049E0001188BFF36F8F20469847EFF3118620237D
:1049F00083F31288BFF36F8FE36823F00103E36052
:104A000013F0100F44D1E36813F0020F44D1D5F82E
:104A1000DC3023F00203C5F8DC30C3F3002386F357
:104A20001188BFF36F8F002BB7D100F0EFFBB4E715
:104A3000D5F8DC3023F00402C5F8DC2013F0040FB5
:104A40000ED112F0100F14D00023C5F8DC3086F31D
:104A50001188BFF36F8F04B070BDC5F8C830AEE7E2
:104A600005F1D40400220121204605F0A3FC002812
:104A7000F8D1002302934FF0FF324FF0FF33CDE91E
:104A8000002305F1CC023146054800F09FFD84E784
:104A9000204605F027FBB6E72046FFF74DFFB6E7B7
:104AA0002C8D002008B50146014805F03FFB08BDEC
:104AB00058080020F0B589B004460E9D0020C4F8C7
:104AC000C400C4F8C80004F1CC00C4F8CC00C4F899
:104AD000D00004F1D400C4F8D400C4F8D8003DB329
:104AE000287938BB0120C4F8DC004FF0FF364FF0C6
:104AF000FF37CDE9066700200490039302900190F0
:104B000000940E4B204605F041FB55B1296811B1C8
:104B1000204600F023F86B791BB1237B43F001039F
:104B20002373204600F072FCC4F8C04009B0F0BD09
:104B30000120D8E740F20110D5E700BF95490000F9
:104B400008B553EA020102D100F060FC08BD024939
:104B5000183000F01FFEF9E78BA3000010B50446E3
:104B600040B11F2204F1840005F0E2FF002084F828
:104B7000A30010BD014B9C68F3E700BF008D00202F
:104B80002DE9F04F85B004460F4615461E46DDF868
:104B900038A0DDF83C90DDF84080DDF84CB000F145
:104BA00058038365C365129B0422119905F0E3FA4B
:104BB0002A463946204605F0C3FA0546CDF8088056
:104BC000CDF80490CDF800A0334602463946204681
:104BD000FDF7CAF80023636584F86C302667C4F8D3
:104BE00074A0C4F87890C4F87C80EFF3118220237D
:104BF00083F31288BFF36F8F134B196AC4F88010C8
:104C00001C6282F31188BFF36F8FBBF1000F13D0CA
:104C10001F22594604F1840005F08AFF002384F81E
:104C2000A330094B9B685BB1D3F8B030C4F8B03007
:104C3000284605B0BDE8F08F002384F88430F0E703
:104C4000C4F8B030F4E700BF008D002001234373A7
:104C500003730023C0F8A430C0F8A830C0F8B03007
:104C6000014B9860704700BF008D00200A4A93688E
:104C7000C3F8B8006FF00A01C3F8BC1007494B68CD
:104C800043F080534B60002383F31188BFF36F8F91
:104C90009368D3F8BC007047008D002000ED00E061
:104CA000437B90F90D20002A51DB13F01F0F4ED1EA
:104CB00010B563F07F034373254A52F8183F9342BF
:104CC0000ED100230CE05A68426003601060586007
:104CD0001EE01A461E49C9698A420FD01B687BB183
:104CE00073B190F90E1093F90E209142F1D0521A3F
:104CF000002AE8DC1A46002BECD1F0E70023EEE7AF
:104D0000134BDA6903F11801016042601060D86149
:104D10000F4B53F8184F9C420ED06CB10C4B9B6854
:104D20005A7B12F01F0F0AD1DA897F2A07D9A269AC
:104D30002AB9074A536109E0054BDC68EEE7A34254
:104D400002D0204600F088FC014B5C6110BD70472A
:104D5000008D002010B5437B90F90D20002A14DB54
:104D6000154B9A6853F8184F9C4219D0C4B182422F
:104D700019D0537B13F01F0F15D1D3897F2B12D974
:104D8000A36983B90C4B5A6114E003F07F034373AA
:104D90004268036813605A60002303604360DFE7E2
:104DA000054BDC68E3E7A24202D0204600F054FC49
:104DB000014B5C6110BD00BF008D00202DE9F84360
:104DC00005460C46414B9E68737B13F0600F2BD059
:104DD00013F0200F2DD008271F4225D13B437373BA
:104DE00013F0800F27D1082F30D04FF00009374B38
:104DF00053F8188F98454ED0B8F1000F4BD0334B75
:104E00009B68434502D0404600F026FC2F4BC3F878
:104E10001480102F08D0304603F058F8304600F0C8
:104E200075FCB9F1000F3AD184F31188BFF36F8F8D
:104E300046E01027D0E703F07F037373726833688E
:104E400013605A60002333607360CCE7B3685BB1D2
:104E50007268336813605A60002333607360727B3A
:104E600022F002027273B360304605F0E5F906F1F4
:104E7000580005F0E6F9154B9B689E4202D04FF0B2
:104E80000009B4E7EFF3058313B94FF00009AEE76B
:104E90004FF00109ABE70D4BD3F80C80AFE70C489E
:104EA000FFF7D4FEC0E7EFF31184202383F31288C9
:104EB000BFF36F8F05F08AF884F31188BFF36F8F0B
:104EC0006B7B13F0600FEED1BDE8F883008D0020FE
:104ED00078070020B3F1FF3F08BFB2F1FF3F00D1D8
:104EE000704708B50249183000F054FC08BD00BFF7
:104EF0008BA3000010B5214B9A68DB699A4205D05C
:104F00001368516812680A60516006E00023F8E7F0
:104F10001A4AD269934212D01B6893B1174A90681B
:104F200090F90E1093F90E209142F1D0521A002AF6
:104F3000EEDD5A6842600360106058600AE00023AA
:104F4000EBE70E4B9A68D96903F1180010605160C5
:104F50000A60DA61094B53F8184F9C420AD04CB1F1
:104F6000064B9B689C4202D0204600F075FB034B29
:104F70005C6110BD014BDC68F2E700BF008D0020D2
:104F800010B50C4611460A4882680A4B1A60EFF3C6
:104F90001183202383F31288BFF36F8FDDE902238F
:104FA000806805F071F92046FFF760FE10BD00BF74
:104FB000008D00202C8D00202DE9F04104460E4686
:104FC0000023EFF31185202282F31288BFF36F8F45
:104FD0001F4650E003F07F03637362682368136029
:104FE0005A6000232360636071B2A173637B63F036
:104FF0007F036373424A52F8183F93420ED1002355
:105000000CE05A686260236014605C601CE01A4621
:105010003B48C06982420DD01B686BB163B193F904
:105020000E209142F3D0521A002AEADC1A46002BD5
:10503000EED1F2E70023F0E7314BDA6903F1180112
:10504000216062601460DC612D4B53F8188F984525
:1050500020D0B8F1000F1DD0294B9B68984502D095
:10506000404600F0F9FA264BC3F8148085F3118806
:10507000BFF36F8F0123002B3FD1637B03F01F022F
:10508000002A0CBF01270027A4D013F0020F05D17E
:10509000A673EBE71A4BD3F80C80DDE7A1686268D2
:1050A000236813605A6000232360636070B2A073AA
:1050B0000B6899420DD100230BE05A6862602360AF
:1050C00014605C60D2E79C464A6894450DD01B682A
:1050D0006BB163B193F90E209042F4D0121A002AFA
:1050E000EBDC9C46002BEFD1F2E70023F0E74B68A6
:1050F000216063601C604C60B8E73846BDE8F08111
:10510000008D002008B50B4659B9EFF3058242B96E
:10511000064A50699268904203D00846FFF7A6FD00
:1051200003E083F31188BFF36F8F08BD008D00206B
:1051300008B5034650B9EFF305823AB9064A5169FA
:105140009268914202D0FFF791FD03E083F311884A
:10515000BFF36F8F08BD00BF008D00200023EFF369
:105160001181202282F31288BFF36F8F09E0064B72
:105170009A68D37B013BD37381F31188BFF36F8FA0
:105180000123002BF3D07047008D002038B5002399
:10519000EFF31185202282F31288BFF36F8F0EE0A8
:1051A000154BDC6817E0A24202D0204600F054FA0A
:1051B000114B5C6185F31188BFF36F8F0123BBB97D
:1051C0000D4B9A68D17B0131D17353F8184F9C4233
:1051D000E6D0002CE4D0537B13F01F0FE3D1D3892A
:1051E0007F2BE0D9A369002BDDD1034B5A61E1E7A6
:1051F00005F0D1F838BD00BF008D002008B5024889
:1052000005F0D4F808BD00BF148D002038B5EFF3C9
:105210001184202383F31288BFF36F8F224B9A6887
:10522000DB699A4205D01368516812680A605160C0
:1052300006E00023F8E71C4AD269934212D01B68AB
:1052400093B1194A906890F90E1093F90E2091428B
:10525000F1D0521A002AEEDD5A68426003601060F5
:1052600058600AE00023EBE70F4B9A68D96903F115
:105270001800106051600A60DA610B4B53F8185F38
:105280009D420DD065B1084B9B689D4202D02846D7
:1052900000F0E2F9044B5D612046FFF7E7FC38BD02
:1052A000014BDD68EFE700BF008D0020F8B551EA43
:1052B000000328D005460C46EFF31187202383F323
:1052C0001288BFF36F8F154EB068154B1860FFF74B
:1052D00041FDB0682A4623461249183000F05AFAB8
:1052E0000446B268537B43F0040353733846FFF718
:1052F000BDFCB3689A6ADB6AB3F1004F08BF002AAD
:1053000005D00020F8BDFFF781FF0020FAE705F087
:1053100017F9201A0028F5DC0020F3E7008D0020A3
:105320002C8D00208BA3000038B504460D46FFF7F6
:10533000BDFF03462046B5F1FF3F08BFB4F1FF3F74
:1053400028D0DA1713F1090042F100030021C21836
:1053500021D20A441149A1FB024525F0030404EBC4
:105360009504121B801A63F100034FF0CC3200FB4E
:1053700002F201FB0322A0FB01010A44430843EAB5
:10538000C27352081846B3F1004F72F1000201D304
:105390006FF0004038BD0121DBE700BFCDCCCCCCA5
:1053A00008B5C217633042F10001C0F31303020DC8
:1053B00042EA0132C2F31302134403EB113303EB4D
:1053C00011730F4AA2FB03C2D20802EB820202EB66
:1053D00082029B1AC01A61F100020A490A4B00FBC3
:1053E00003F301FB0233A0FB01010B44800840EAF8
:1053F0008370C117FFF75AFF642303FB00F008BD59
:105400001F85EB51295C8FC2F5285C8F38B5EFF30F
:105410001185202383F31288BFF36F8F437B13F032
:10542000040F04D185F31188BFF36F8F38BD044694
:10543000183005F056F8637B23F0040363732046AD
:10544000FFF72EFC29460248FFF75CFEEEE700BF9F
:105450002C8D0020014B9868704700BF008D002004
:105460002DE9F843037B03F00107EFF311862023B6
:1054700083F31288BFF36F8F457B15F0080F1AD1A5
:105480000446B14600F1580804F0A2FE10B345F0FE
:1054900020056573EFF305839BB131462046FFF786
:1054A0008DFC67B1002383F31188BFF36F8F042352
:1054B000184602DF03E086F31188BFF36F8FBDE863
:1054C000F88341463F4B986804F084FE3046FFF76E
:1054D000CDFBE6E745F00803637313F0800F36D188
:1054E000A3685BB16268236813605A60002323607D
:1054F0006360627B22F002026273A36004F1180011
:1055000004F0EFFF404604F09CFE2E4B9A68944254
:105510002AD000262B4B53F8185F9D422BD055B351
:10552000AA4202D0284600F097F8264B5D6120463B
:1055300002F0CCFC204600F0E9F8FEB9214B9B6854
:105540009C421FD089F31188BFF36F8FA9E705F044
:105550007F0545F0080565736268236813605A602B
:10556000002323606360BBE7EFF305830BB90026DC
:10557000D0E70126CEE7134BDD68D1E71248FFF7ED
:1055800065FBDBE7EFF30583002BDBD1237B13F017
:10559000010F12D089F31188BFF36F8F002383F3BB
:1055A0001188BFF36F8F0423184602DFEFF31189D0
:1055B000202383F31288BFF36F8F4846FFF756FB13
:1055C0006FE700BF008D0020780700202DE910480C
:1055D00083B0089CDDE906BCCDE900BCFFF7D0FC38
:1055E0001CB1034B9B681B69236003B0BDE81088A6
:1055F000008D00200346427B12F01F0F10D10B4A92
:1056000090420FD00A4A106878B1DA897F2A0BD805
:1056100093F90E20074B1B689A4206DA0020704768
:10562000002070470020704700207047F8050020D8
:10563000D4020020348D0020044BC01AC010044B4B
:1056400003FB00F0034B01221A5470473808002076
:10565000ABAAAAAA308D002070B50C4B1E7CFFF7B8
:10566000C9FF044606EB4603094D05EBC305284672
:1056700004F037FF074B00229A5504B970BD621E33
:10568000D3170549284600F085F8F7E7008D00207C
:1056900038080020308D00203956000038B5EFF36F
:1056A0001185202383F31288BFF36F8F144B9C68FE
:1056B000144B1B68A34217D0124B00221A60104BE8
:1056C0001B7C114AD35C53B12046FFF793FF30B1E6
:1056D000637B13F01F0F0FD02046FFF7BDFF85F34C
:1056E0001188BFF36F8F38BD2046FFF7B5FF85F3F4
:1056F0001188BFF36F8FF6E7FFF7FCFBECE700BF05
:10570000008D00202C8D0020308D0020EFF31181C2
:10571000202383F31288BFF36F8F0C4B1B6A8342E5
:1057200005D1D3F88020094B1A620AE013461BB159
:10573000D3F880208242F9D11BB1D0F88020C3F881
:10574000802081F31188BFF36F8F7047008D002098
:10575000034B1868984200D070470020FCE700BF58
:10576000D802002030B1044A5268904201D000684B
:1057700070470020704700BFD802002008B5044BD6
:105780001B680BB1002008BDFDF7F8FAFBE700BF6E
:10579000388D00202DE9F04F83B0B3F1FF3F08BFF3
:1057A000B2F1FF3F0ED0044691461F4681600023B0
:1057B000EFF3118A202282F31288BFF36F8F1D4608
:1057C000019335E0002501952846019903B0BDE815
:1057D000F08FFFF7D3FF8046013547F100064519EA
:1057E00046EBE07625616661344A13685268ED182D
:1057F00046EB020301934FF0010B38E0C91A66EB48
:105800000202016142614368636020601C60446081
:1058100005E02B4B5A682360626014605C60FFF700
:1058200097FF844237D08AF31188BFF36F8F01232B
:10583000002BC9D14D460197002FCADA1F4B1968BA
:105840005B68691843EB07036FF00102521A4FF0CF
:10585000FF3161EB030310461946012A73F100037F
:1058600001DA01200021206161614FF0000BFFF798
:105870006FFF0028CDD001694669236962698B42B8
:1058800072EB060EBADB5B1A62EB06022361626101
:10589000FFF768FFEDE70B4B1B68002BC3D1BBF193
:1058A000000F06D0404604F001FE0021FDF7A2FAE9
:1058B000B9E7FFF763FF8046F4E700BF5008002018
:1058C000D8020020388D002070B5EFF31186202318
:1058D00083F31288BFF36F8F2A4B1860FFF738FFEE
:1058E000044623E0284A136851685B1941EBE571CF
:1058F0001360516000220023C4E90423204604F011
:10590000BEFD86F31188BFF36F8FA36820469847CA
:10591000EFF31186202383F31288BFF36F8F194AA8
:1059200013685B1B1360FFF713FF04463CB1256946
:105930006169144B1A68D317AA428B41D2DA44B179
:10594000236962690F4909685B1A62EBE17223619E
:1059500062610D4A0B4D2868136851681B1841EBB2
:10596000E0711360516000242C60204604F09EFD1D
:105970002146FDF73FFA86F31188BFF36F8FFFF7DB
:105980008DFE70BD388D00205008002010B500221B
:10599000EFF31184202383F31288BFF36F8F134634
:1059A00011460CE0FFF7EAFE074A13685168C31876
:1059B00041EBE07184F31188BFF36F8F0122002A5D
:1059C000F0D0184610BD00BF50080020EFF311833F
:1059D000202282F31288BFF36F8F026822B183F313
:1059E0001188BFF36F8F70472DE9F04104461D46C3
:1059F000866AC26A56EA020105D0B2F1FF3F08BFCB
:105A0000B6F1FF3F28D1236B01332363236A6BB1C7
:105A100085F31188BFF36F8F236A20469847EFF311
:105A20001185202383F31288BFF36F8F04F11803CD
:105A3000A469A34251D0002C4FD0204604F04BFC67
:105A40000023C4F8BC3085F31188BFF36F8F204664
:105A500004F026FCBDE8F081013E42F1FF3217461A
:105A6000002A14DB04F070FD013041F100018019BF
:105A700041EB0701012871F100010BDA6FF001021F
:105A80004FF0FF3317492046FFF784FEBBE700269F
:105A90003746E7E704F058FD013041F10001801975
:105AA00041EB07016FF0020383426FF000438B412B
:105AB00003DA00224FF00043E4E704F045FD421C06
:105AC00041F10003911943EB07036FF00102521AF1
:105AD0004FF0FF3161EB0303D4E785F31188BFF387
:105AE0006F8FB7E7CD590000F8B51D46EFF311876A
:105AF000202383F31288BFF36F8FB5F1FF3F08BFF8
:105B0000B2F1FF3F21D0064614462B46002D08DB9C
:105B1000012A73F1000301DA01240025013C45F15B
:105B2000FF35304604F0DDFCDDE90623C6E90A2333
:105B30000023336322462B4606493046FFF72AFEF0
:105B400087F31188BFF36F8FF8BD87F31188BFF318
:105B50006F8FF9E7CD59000010B5064C05E0A2683B
:105B60006168204604F0F5FC1434034B9C42F6D3E4
:105B7000002010BD580300205803002000B583B05A
:105B8000064B00934FF0FF334FF400620449054881
:105B9000FEF790FF002003B05DF804FB74C700001F
:105BA000C0CC00205808002070B5104D104C236860
:105BB000284698470F4B5E780F4B1B68284698473E
:105BC00023680E489847022E07D00024E4B20A4BFF
:105BD0001B680A489847204670BD064B1B78072B68
:105BE00001D00024F2E70124F0E700BFD003002039
:105BF000080300203C8D002004030020BC0300208B
:105C000010B5244B1B6824489847244B1B7813F08D
:105C1000040F03D023F00403204A13701F4B1B789A
:105C200013F0020F22D11E4B1B681B489847194BDB
:105C30001B681C489847194B5B78FBB9174C00232D
:105C400063700421601800F00FF9154B1B681548AC
:105C50009847104B1B6810489847237813F0010FA2
:105C600010D10F4B1B680C48984710BD00F0D8F8B6
:105C70000A4A137823F002031370D4E70A4804F0A9
:105C8000A7FCDBE704F0A1FC237823F001032370D9
:105C9000E7E700BF08030020BC0300203C8D002084
:105CA00004030020D0030020408D002038B5FFF70A
:105CB0007BFF002840F09E804F4B1B684F48984761
:105CC0000446002840F081804D4B1B7813F0010FF3
:105CD00009D04C4B1B684948984768B1002C76D1D5
:105CE0006FF08F0473E004F06CFC0446444A1378B0
:105CF00043F001031370ECE7002C68D13E4B1B68A6
:105D00003E489847002866D13D4B1B7813F0020FA0
:105D100009D03C4B1B683948984768B1002C56D1D4
:105D20006FF08F0453E000F073F80446344A1378A0
:105D300043F002031370ECE7002C48D12E4B1B6894
:105D40002E489847002849D12D4B1B7803F00105B8
:105D50002C4B1B6829489847002842D1264B1B68CA
:105D60002948984700283FD1254B5B7803B945B9AE
:105D7000244B1B682448984760B144BB6FF08F04E4
:105D800025E0224D284604F021FC0446022305F8B4
:105D9000033CEDE7DCB9184B1B681848984730BB4B
:105DA000174B1B7813F0040F04D143F0040314497C
:105DB0000B700446134B1B681048984718B134B950
:105DC0006FF08F0403E024B101E06FF08F04FFF760
:105DD00017FF204638BD6FF08F04F8E76FF08F048F
:105DE000F5E76FF08F04F2E76FF08F04EFE76FF0E5
:105DF0008F04ECE70024ECE708030020BC0300203C
:105E00003C8D002004030020D0030020408D0020A2
:105E1000024B012283F8802500207047448D00202A
:105E200038B500259DB10B4B002283F8802538BD85
:105E30002C23084803FB0400012303620323037798
:105E400004F09AFB01341F2CF2D90135EAE72C4605
:105E5000F9E700BF448D002008B5024B1B68984746
:105E600008BD00BFE002002039B110B504460A4663
:105E7000024B1B680021984710BD7047E4020020C8
:105E800008B5592002F00CF8024B0722C3F808238A
:105E900008BD00BF0090055008B50D4B186804F010
:105EA0003AFD0C4A1368591C116023B1084B18685D
:105EB00004F039FD08BD084AD2F8003443F0070366
:105EC000C2F80034592001F0E6FF00F08FFDEDE745
:105ED000EC020020C89200200090055008B5154B38
:105EE000186804F018FD144A1368013B136023B1CD
:105EF000104B186804F017FD08BDFFF7C1FF0F4BEA
:105F0000D3F8002422F00702C3F800240022C3F8CB
:105F10000021D3F80011C3F80421D3F80411C3F809
