:10000000A038002071160000B35F00005D160000EC
:100010005D1600005D1600005D1600005D16000014
:100020000000000000000000000000004118000077
:100030005D16000000000000011800005D160000C1
:10004000C9190000C9190000C9190000C919000028
:10005000C9190000C9190000C9190000C919000018
:10006000C9190000C9190000C9190000C919000008
:10007000C9190000C9190000C9190000C9190000F8
:10047000C9190000C9190000C919000053B94AB9C7
:10048000002908BF00281CBF4FF0FF314FF0FF309C
:1004900000F00CB8ADF1080C6DE904CE00F008F8DE
:1004A000DDF804E0DDE9022304B07047704700BFC7
:1004B0002DE9F04786468C460846089E1546744648
:1004C0001946002B40F0C1808542B2FA82F245D92C
:1004D0004AB1C2F1200300FA02FC954094402EFA82
:1004E00003F343EA0C0C4FEA154EA8B2230CBCFBF5
:1004F000FEF80EFB18CC08FB00F943EA0C439945C3
:1005000028D9EB1808F1FF3704D2994502D9A8F190
:1005100002072B44A3EB0903A4B2B3FBFEFC0EFBC2
:100520001C330CFB00F044EA0344A04214D92C19FC
:100530000CF1FF3304D2A04202D9ACF102032C44E7
:10054000241A43EA07401EB1D4400023346073608C
:10055000BDE8F0874746DDE76346F1E792BB431B02
:1005600001214FEA154EAFB2200CB3FBFEFC0EFB8F
:100570001C330CFB07F840EA0343984561D9EB189C
:100580000CF1FF3004D2984502D9ACF102002B44A3
:10059000A3EB0803A4B2B3FBFEFC0EFB1C330CFB65
:1005A00007F744EA0344A7424DD92C190CF1FF3355
:1005B00004D2A74202D9ACF102032C44E41B43EA63
:1005C0000040C0E7C2F120039540944020FA03F1B7
:1005D0002EFA03F34FEA154E9040AFB20343B1FB3E
:1005E000FEFC0EFB1C10190C0CFB07F841EA004145
:1005F000884522D969180CF1FF3004D2884502D908
:10060000ACF102002944A1EB08019BB2B1FBFEFC56
:100610000EFB1C110CFB07F743EA01439F420ED966
:10062000EB180CF1FF3104D29F4202D9ACF1020168
:100630002B44DB1B41EA004193E76046E3E7614658
:10064000F7E76046A4E76346B8E7834206D916B9E0
:10065000002108467CE7C6E900E0F9E7B3FA83F732
:100660008FB9834201D3724508D8BEEB020460EB18
:10067000030301209C461EB9002169E73846FAE7CA
:10068000C6E9004CF8E7C7F1200CBB400EFA07F5AD
:1006900022FA0CF42EFA0CF1BA401C4320FA0CF3A7
:1006A000B8404FEA144901431FFA84FEB3FBF9F83E
:1006B00009FB18300B0C08FB0EFA43EA00439A457D
:1006C00040D9E31808F1FF3004D29A4502D9A8F1C5
:1006D00002002344A3EB0A0389B2B3FBF9F809FB38
:1006E000183308FB0EFE41EA03418E452CD96118F0
:1006F00008F1FF3304D28E4502D9A8F10203214448
:1007000043EA0040A1EB0E01A0FB02984145CE4612
:10071000434602D306D14D4504D20138B9EB020E4F
:1007200068EB0403002EA7D0B5EB0E0261EB0301CA
:1007300001FA0CFC22FA07F3F9404CEA0303C6E97C
:10074000003199E74046C5E74346D9E70346B0B1D3
:100750007E2816D800FB03F3522202FB03F30A485B
:10076000A0FB03201B1A00EB5300400B1230C0EB20
:100770000030064BA3FB0030C0F34F107047002041
:10078000704740F6FF70704751200C041F85EB51F5
:100790000F2803D8024B53F82000704701487047D8
:1007A000E48D0000F887000070B582B00F283DD8B6
:1007B00004460D468300DBB206338DF80030A1B944
:1007C00000238DF801308DF802308DF803301023AE
:1007D0008DF80430402305226946164805F0BCF820
:1007E0000646E0B9304602B070BD40F6FE7399424D
:1007F0000AD900238DF8013010228DF802208DF8DF
:1008000003308DF80430E5E700238DF801308DF8D2
:1008100002308DF803100B0A8DF80430DAE7034636
:100820002A462146044805F025FADBE76FF0150655
:10083000D8E700BFF07E0000FC87000070B582B0F2
:1008400004460D468DF804008DF805104023022261
:1008500001A9074805F080F8064610B9304602B0F5
:1008600070BD03462A462146024805F003FAF5E723
:10087000F07E00002488000010B582B0114805F019
:10088000F9F9002417E0E0B20F494FEA041C01EB2C
:100890000413002241F80C205A609A60DA609870C4
:1008A000FFF776FF009004F13C03224621460748FB
:1008B00005F0E0F901340F2CE5DD054805F0DAF923
:1008C00002B010BD54880000D004002070880000E1
:1008D000988C000008B505F063F81C4B1B68C01A23
:1008E000002300E001330F2B2FDC194A02EB031227
:1008F0005278002AF6D0164A02EB0312D27872B16F
:10090000134A02EB03125268821A132A07D9104ABB
:1009100002EB03120021D1700E4A0121D1540C4A7E
:1009200002EB03129268002ADCD0094901EB0311A3
:10093000C968411A8A42D5D8054A02EB0312002140
:100940005170044A0121D154CCE708BDE4150020C0
:10095000D0040020C00400202DE9F04385B005F04C
:100960001FF8254B1D68451B002411E0234E06EBA4
:1009700004161146B078FFF717FF214B00932B4662
:10098000B27821461F4805F075F90023B3600134A1
:100990000F2C2EDC1C4B1B5D002BF8D01A4B0022B9
:1009A0001A55164B03EB04135B78002BDED0134B68
:1009B00003EB0413DB78002BE9D1DFF8408026013C
:1009C00008EB041918F80600FFF7C0FE07460146B9
:1009D00099F80200FFF7E8FE094B02930195009792
:1009E00018F8063099F802202146084805F042F927
:1009F000CDE705B0BDE8F083E4150020D004002069
:100A00008C8A000094880000C0040020B888000090
:100A100038B504460D464FF0FF324FF0FF3318480B
:100A200003F07AFD04F580539B889BB213B304F561
:100A3000805CBCF802309BB204EB031494E80F0016
:100A400085E80F00BCF802309BB20133DBB2ACF892
:100A50000230BCF804309BB2013B9BB2ACF80430CE
:100A6000DCF80C300133CCF80C30054803F0D4FD31
:100A7000012038BD024803F0CFFD0020F9E700BF98
:100A8000C001002038B504460D464FF0FF324FF04C
:100A9000FF330E4803F040FD04F580539B889BB262
:100AA00073B104F580535B889BB204EB031494E8A4
:100AB0000F0085E80F00054803F0AEFD012038BDAA
:100AC000024803F0A9FD0020F9E700BFC0010020A3
:100AD00038B504460D464FF0FF324FF0FF331B4848
:100AE00003F01AFD04F580539B889BB2FF2B22D89C
:100AF00004F5805CBCF800309BB204EB031495E86D
:100B00000F0084E80F00BCF800309BB20133DBB269
:100B1000ACF80030BCF804309BB201339BB2ACF8A7
:100B20000430DCF808300133CCF80830074803F013
:100B300073FD012038BD04F580542369013323611E
:100B4000024803F069FD0020F4E700BFC001002067
:100B500010B584B0044603208DF8000001918DF893
:100B600008208DF80930BDF81830ADF80A30ADF81E
:100B70000C4000238DF80E3069460548FFF7A8FFAA
:100B800008B104B010BD2146024805F073F8F8E73B
:100B9000D0050020E888000030B587B04D4805F04A
:100BA00069F84D4805F066F84C4805F063F84C4884
:100BB00005F060F84B4805F05DF84B4805F05AF831
:100BC0004A4805F057F8502400941E2300224FF4A1
:100BD000FA710120FFF7BCFF0094402300224FF47C
:100BE00096610220FFF7B4FF00947F2300224FF4A8
:100BF000FA610320FFF7ACFF4FF4FA7300935A2316
:100C0000002240F6B8310420FFF7A2FF3C240094F4
:100C1000642300224FF47A610520FFF799FF0094C6
:100C2000642300224FF47F610620FFF791FF0094B8
:100C3000642300224FF482510720FFF789FF0094BC
:100C40006423002241F290010820FFF781FF002475
:100C500009200FE0451CADB2782300935A23E2B27D
:100C60004FF0C80C41F27C510CFB0411FFF770FFF0
:100C7000013428460F2CEDDD00240FE0451CADB2F9
:100C8000642300934623E2B24FF0C80C42F22831AD
:100C90000CFB0411FFF75CFF013428460F2CEDDD3F
:100CA0000023029303930493059301238DF80830E6
:100CB00043F2D4030393441CA4B2ADF8140002A978
:100CC0000B48FFF705FF611E0A4804F0D3FF07B089
:100CD00030BD00BF04890000388900007889000019
:100CE000B4890000DC890000108A00003C8A000002
:100CF000D0050020608A000038B504460B4D4FF047
:100D0000FF324FF0FF33284603F006FC04F5805312
:100D100000219980598019804FF48052204607F0B5
:100D200008F8284603F078FC38BD00BFC001002059
:100D300010B51D224021204804F09CFF1F4806F0FA
:100D400074FD18B310210020FFF778FD20BB4FF48D
:100D5000FA7006F055FF1D21FE20FFF76FFDF0B978
:100D60002121FFF76BFDE8B94FF4FA7006F048FF58
:100D700004210120FFF762FDB8B904F0FBFD044631
:100D8000B0B90F4804F076FF204610BD0D4804F0BE
:100D900071FF6FF01204F7E76FF00404F4E76FF0EF
:100DA0000404F1E76FF00404EEE76FF00404EBE7EE
:100DB0006FF00404E8E700BF908A0000F07E0000B6
:100DC000108B0000D08A000008B504F0E9FD034B49
:100DD0001860034804F04EFF08BD00BFE415002072
:100DE000288B00000F2842D82DE9F04182B004463C
:100DF0000D46174619B31E4B020103EB001699541A
:100E00004FF0010886F80180B76004F0C9FD194B66
:100E10001B68C01A7060F06086F8038040F6FF71AE
:100E2000B078FFF7C1FCF368019300972B46B278C6
:100E30002146114804F01EFF02B0BDE8F0810C4BC2
:100E4000020103EB0015002199546970E970A96053
:100E5000A878FFF7A9FCAD7804F0A2FD054B1B684C
:100E6000C31A2A462146054804F004FFE4E7704708
:100E7000D0040020E4150020348B0000648B0000B7
:100E800008B50B4804F0F6FE04F074FD00230BE0F7
:100E900008484FEA031C00EB0311002200F80C2065
:100EA0004A70CA708A6001330F2BF1DD08BD00BFA4
:100EB000848B0000D004002010B588B06FF00E01C4
:100EC000324804F0D7FE40E09DF818000F2841D8C2
:100ED000BDF81A209DF81910FFF784FFBDF81A20FD
:100EE000059BE11A03910294019300929DF8193039
:100EF0009DF81820BDF81C10254804F0BBFE29E021
:100F0000BDF81C10234804F0B5FE2348FFF7F4FE9B
:100F1000FFF7B6FF1EE0BDF81C10204804F0AAFE43
:100F2000FFF752FF16E09DF818309DF81E20BDF81F
:100F30001C101B4804F09EFE0CE01A4804F09AFEB8
:100F400008E04FF4FA7006F05BFE04F029FD164B42
:100F50001C68041B04A91048FFF794FD0028F0D07A
:100F6000059BA342EDD804A90B48FFF751FD9DF85E
:100F700010100329E1D801A353F821F0170F000046
:100F8000010F0000270F0000C90E0000908B000029
:100F9000B48B0000FC8B0000D0050020108C0000FA
:100FA000248C0000448C0000E415002030B589B08A
:100FB000314804F05FFE314804F05CFE642004F028
:100FC00014FDFFF7B5FE00283CDBFFF755FCFFF7EB
:100FD000FBFE9D220023CDE90023294804F00AFAF4
:100FE000122314220521274804F044FE264804F069
:100FF000F5FC4FF48071254804F03CFE244D00229E
:101000000023CDE90623002404946FF00E0303931C
:101010000294019400941F4B4FF480521E492846BD
:1010200006F09BFC1D49284603F082FB1C4804F097
:1010300021FE1C4804F01EFEFFF7AEFD1A4804F026
:1010400019FE0BE0194804F015FEBEE721461848CA
:1010500004F010FE0134012004F0C7FCFFF77CFC13
:10106000144BA3FB04239B094FF47A7202FB134336
:10107000002BEBD0EEE700BF608C00007C8C000002
:1010800088010020C48C0000D0050020F88C0000EE
:10109000D8010020B90E000060170020188D000054
:1010A000248D0000408D0000588D00009C8C0000B5
:1010B000948D0000D34D621008B5024B1B68984711
:1010C00008BD00BF00000020014B1860704700BF42
:1010D0000000002000B585B00A460023009301936C
:1010E0000293039302238DF80230044B01930146CF
:1010F000684604F0BFF905B05DF804FBB9100000C4
:1011000080B505460E461746984603F0F9FE03469D
:1011100006F08AFE0446DFF8189049F8003042468F
:1011200039463046A84754F8090000F013FB00BFC9
:10113000080000002DE9F04383B004460846154638
:10114000238B13F0080F05D103F00706002300934B
:10115000019354E0012909D043F02003238385F350
:101160001188BFF36F8F03B0BDE8F08343F0100325
:101170002383F4E7204604F0B5FD42E0D4F8149050
:101180004A466946204604F0C6FD4FF00008238B0E
:1011900003F00707B74269D0A268002A66D001228F
:1011A00043F00803238385F31188BFF36F8F002A70
:1011B00064D1009B2BB14B463A466946204604F069
:1011C00023FEB8F1000F02D034492046C047EFF3A8
:1011D0001185202383F31288BFF36F8F238B23F0B5
:1011E00008032383238B13F0100F4DD023F010033B
:1011F00023830120268B06F007060028AFD00228A3
:10120000B8D00028ABD0013804282BD801A353F85C
:1012100020F000BF7D1100006512000029120000BF
:101220003D120000511200002369D3F8008006210E
:10123000204604F02DFD4FF00009A8E72369D3F8FC
:1012400004800421204604F023FD4FF000099EE7AE
:101250002369D3F808800521204604F019FD4FF0DA
:10126000000994E74FF00008C14690E7009A0AB1E0
:10127000002295E7B8F1000F92D1B3E74A4639460C
:10128000204604F00DFD94E713F0200F04D023F066
:10129000200323830220ADE70020ABE7375E000088
:1012A000014B036000207047248E000008B50348FE
:1012B00004F0E0FC024804F0DDFC08BD248E0000D0
:1012C0005C8E000030BFFFF7FDBF00BF38B504469D
:1012D000054D2A46054906F01FFD054A0021601903
:1012E00006F027FD38BD00BF00000000C0870000E9
:1012F0000400000070B50646064D074B1D444C1B0C
:101300002046FFF7E3FF083CC6F8A44005F10800BB
:1013100070BD00BF0000000004000000074B9B6888
:1013200093F90E20002A08DB044A5269934204D044
:10133000034A536843F080535360704724170020DA
:1013400000ED00E038B51446264B9B6A13F0100FF1
:101350001AD11025234B9B6A13F0080F00D01225D9
:10136000204B9B6A13F0020F11D01E4B5A6B9B6AE5
:1013700013F0800F0AD0002930D01A4A936A23F064
:1013800080039362132502E01125E3E71325154B33
:101390009B6A13F0010F00D01425124B9B6A13F0C7
:1013A000200F1DD10F4B9B6A13F0100F01D10D4B75
:1013B0009B6A0C4B9B6A13F0200F04D0094A536AB6
:1013C00023F400535362074A936A43F0FF03936286
:1013D000012104F0F4FD2070284638BD1325D6E71E
:1013E0001525DFE700ED00E038B51546204B9B6A78
:1013F00013F4805F19D116241D4B9B6A13F4006F00
:1014000000D018241A4B9B6A13F4007F10D0184B9D
:101410009A6B9B6A13F4004F09D0D9B1144A936AAE
:1014200023F400439362192402E01724E4E719240B
:101430000F4B9B6A13F4806F00D01A240C4B9B6AED
:1014400013F4807F08D10A4B9B6A13F4005F04D029
:101450001C2402E01924EBE71B24054A936A43F499
:101460007F439362012104F0AAFD2870204638BD15
:1014700000ED00E01A4B9B6A13F0007F2BD11D207A
:10148000174B9B6A13F0807F00D01F20144B9B6A80
:1014900013F4801F00D00220114B9B6A13F4002F1D
:1014A00000D021200E4B9B6A13F4802F00D0222005
:1014B0000B4B9B6A13F4003F00D02320084B9B6A20
:1014C00013F4803F09D1064A936A6FEA03436FEA37
:1014D0001343936270471E20D2E72420F3E700BF36
:1014E00000ED00E081690D4B5A6942F480725A6147
:1014F000BFF34F8FBFF36F8F31F8021C5A6922F48C
:1015000080725A61BFF34F8FBFF36F8F4DF6027336
:10151000994201D0002070470120704700ED00E0A3
:1015200038B5054600230B701A4BD86A10F002003C
:101530002DD10C46DB6A002B2ADB164BD86A10F043
:10154000804025D02846FFF7CDFF08B128681FE06E
:10155000104B9B6A13F0FF0F0DD10E4B986A10F4DD
:101560007F400ED10B4B9B6AB3F5803F10D32846CA
:10157000FFF780FF0CE0224601212846FFF7E2FE3C
:1015800006E0224601212846FFF72EFF00E000205A
:1015900038BD00BF00ED00E030B58BB00C46264BE7
:1015A0005968C1F30801002383F31188BFF36F8FDB
:1015B00002F07F43B3F17F4F15D102F00C03082BEB
:1015C00014D012F0080F0BD000250DF12702204691
:1015D00004F0FAFC86469DF8273053B10BB030BDBD
:1015E00004460125F1E700252C46EEE700252C46B0
:1015F000EBE70DF1040C20686168A268E368ACE8D1
:101600000F0020696169A269E369ACE80F0045B188
:10161000C3F308025AB96FEA53236FEA43230893CE
:1016200005E0089B23F4FF7323F00103089301A94D
:10163000704604F0AFFCD1E700ED00E0064B5A69BC
:1016400042F010025A615A6942F480625A615A6942
:1016500022F008025A61704700ED00E0EFF30880C5
:10166000EFF3098101B57246FFF796FF01BD00BF98
:10167000002015490870002080F31488BFF36F8F95
:10168000002080F30A8880F30B8801F08FFB002094
:101690000E490860BFF34F8F0D4880F3088800F0B3
:1016A0002FF8202080F311880A484FF40061401879
:1016B00080F30988EFF314800221084380F3148833
:1016C000BFF36F8F00F0FCF85F17002094ED00E08F
:1016D000A038002060270020084BD3F89000C0F30A
:1016E0000720002306E0054AC2F898300021C2F81E
:1016F000A01001338342F6DB704700BF00ED00E02D
:1017000010B572B6002484F31388FFF7E5FF234673
:1017100008E003F120010E4A4FF0FF3042F82100AB
:101720000133DBB20F2BF4D9002308E003F1600191
:10173000074A4FF0FF3042F821000133DBB20F2B94
:10174000F4D962B6BFF34F8FBFF36F8F10BD00BFE8
:1017500000E100E008B50A4B9B68834202D006F026
:101760005CFA08BDEFF30583002BF8D0054B5A68EF
:1017700042F080525A605A6A22F400425A62EEE7FE
:101780002417002000ED00E00A4A9368C3F8A8007F
:101790006FF00A01C3F8AC1007494B6843F080535F
:1017A0004B60002383F31188BFF36F8F9368D3F8E6
:1017B000AC0070472417002000ED00E0EFF3118328
:1017C000202383F31288BFF36F8F0A4A5369936013
:1017D000094A4FF000615160D3F8A410074A116024
:1017E000D3F8A8200021C3F8A81082F31188BFF312
:1017F0006F8F70472417002000ED00E0E8150020EF
:101800000E498A684FF030001044EFF3098C80E8ED
:10181000F01F74467046FFF7D1FFA64607498A6855
:1018200002F1300090E8F01F8CF3098802F100000B
:1018300004B504F0FDFBBDE8044070472417002008
:101840001EF0040F0CBFEFF30880EFF309808169ED
:1018500011F8021C0229FFD001B504F0A4FB01BD60
:10186000002807DB00F01F02400901239340024AD1
:1018700042F82030704700BF00E100E0002808DB9C
:101880004901C9B200F1604000F5614080F80013E1
:10189000704700F00F004901C9B2014B195470475D
:1018A00014ED00E04209054B53F8222000F01F0020
:1018B000012303FA00F01040704700BF00E100E090
:1018C00008B50B4B0B4A22F07F029A60BFF34F8F93
:1018D000BFF36F8FD3F8882022F47002C3F88820FA
:1018E00002F078FD03F0C6FB00F054F802F0CEFDE4
:1018F00000ED00E00000000010B4A2F120040E4949
:1019000042F8081C21F0010142F8081C42F8203C72
:10191000019B42F81C3C029B42F8183C039B42F896
:10192000143C4FF0807342F8043C04650023C0F877
:10193000A83010BC704700BF0111000000B50E4672
:1019400015460D4B9860D0F8A4200C4B1A60D0F8C7
:10195000943083F30B882C4686F309884FF00000FF
:10196000074B984720464FF000014FF000024FF020
:101970000003044C204700BF24170020E815002076
:101980003B60000001110000014B10221A617047FA
:1019900000ED00E0002206E003F00F0309491944BE
:1019A00020230B760132B2F5877F0ADC13B2002BBD
:1019B000F2DB03F1604303F56143202183F8001358
:1019C000F0E77047FCEC00E008B5EFF30583103B4F
:1019D000044A02EBC301496852F833008847FFF715
:1019E0009DFC08BD047F000010B584B00A4C23465E
:1019F0000A4A01210A4804F01CFC002301930293C7
:101A00000393084B0193E41A0294012101A804F006
:101A100014FC04B010BD00BF00F002200000002044
:101A20008C8E0000D8010020024B034AC3F8C0206E
:101A3000704700BF00ED00E0AAFF4400034BC3F86D
:101A40009800C3F89C10C3F8A020704700ED00E098
:101A50000E4BC3F89800C3F89800D3F89C000A7A9C
:101A600060F304020A72D3F8A020C2F34202087A9B
:101A700062F347100872D3F89C2022F01F020A601C
:101A8000D3F8A03023F01F03CB60704700ED00E0D7
:101A9000084BD3F89030C3F30723013B984205D895
:101AA00010B5044604F0F6FA204610BD6FF015009C
:101AB000704700BF00ED00E02DE9F04F87B0814690
:101AC000009101931446002734E0C34565D12946AF
:101AD000C0B204F005FB2CE0584AC2F89860D2F876
:101AE0009C3003F01F0321F01F010B43C2F89C3010
:101AF0002946E0B204F0F4FA044610F1160F00F0A3
:101B00009680013415E0013B4C49C1F89860D1F84A
:101B1000A02002F01F0223F01F031343C1F8A030DE
:101B20002946E0B204F0DCFA044610F1160F7ED02C
:101B300001340137009B9F4279DA07EB47054FEAF2
:101B4000850A09EB85056E68002EF2D0019B23B152
:101B5000284604F0B3FA002865D0314659F80A0047
:101B600004F0E0FA064610F1160F5FD0844262DD01
:101B7000324BC3F89800D3F89C2022F01F02C3F820
:101B80009800D3F8A03043F01F0859F80A3069686C
:101B9000194401F1FF3B934297D093429CD0C34537
:101BA000B1D0013B2549C1F89860D1F8A02002F0DE
:101BB0001F0223F01F031343C1F8A0302946E0B2EF
:101BC00004F08EFA044610F1160F30D001301B4B92
:101BD000C3F89860D3F89C109DF8102061F30402BC
:101BE0008DF81020D3F8A030C3F34203D2B263F3D0
:101BF00047128DF8102059F80A306A68134402938E
:101C000023F01F03A8EB0B084344013B23F01F0301
:101C1000059302A9C0B2FFF73BFF044610F1160F6F
:101C200005D0013485E76FF0150400E00446204636
:101C300007B0BDE8F08F6FF01504F8E700ED00E0A5
:101C400010B5034C01232278FFF736FF207010BD3A
:101C50005C17002070B505460E46002400E00134F4
:101C6000A6421EDD04EB44039A0005EB830359688A
:101C70000029F4D0A85804F055FA04EB84030B4A69
:101C800042F8230010F1160F0CD0094B1B78984234
:101C900009DA04EB840302EB83010431FFF7D8FE79
:101CA000DDE7002070BD6FF01500FBE7EC150020AC
:101CB0005C170020044B0522C3F89420BFF34F8F1C
:101CC000BFF36F8F704700BF00ED00E0BFF35F8F81
:101CD000024B0022C3F89420704700BF00ED00E0E3
:101CE00038B51C4B1D681C4BD3F89030C3F3072349
:101CF0009D422BD8FFF7EAFFFFF796FE002407E08E
:101D0000144B596801EB0411204604F0C3F9013467
:101D1000A542F5D81148057004F015FA10F1160F18
:101D200013D00E4B1A780C4BD3F89030C3F3072323
:101D30009A4207DA084BC3F898200021C3F8A01094
:101D40000132F0E7FFF7B6FF002038BD4FF0FF305B
:101D5000FBE700BF988E000000ED00E05C1700205C
:101D600008B5024B1B689847002008BD00160020EC
:101D7000034B1860034A937843F002039370704753
:101D8000001600200400002008B5064921F00701D4
:101D9000C1F1005202F53C32034803F0EBFE002093
:101DA00008BD00BFA738002004160020074BD3F859
:101DB0004023D3F844331C2A01D000207047012B64
:101DC00001D0002070470120704700BF00C0FF0015
:101DD00068B108B5064A074B1B680749A1FB031306
:101DE0009B0C00FB03F042F00103984708BD7047CD
:101DF000E08700004000002083DE1B4308B5274B2E
:101E0000D3F82416C1F3080383F48073883303EBFB
:101E1000C30203EB420341F6F87202EA5132134463
:101E20005A0A13F4807F00D001321D4BC3F80429F5
:101E30001A4BD3F82036C3F3080282F48072C3F33E
:101E4000094302F217224FF47A6101FB03F342F2D5
:101E50001C5101FB02331B0A124AA2FB0312920916
:101E60004FF47A7101FB1233B3F5FA7F00D30132DC
:101E70000B4BC3F81C27FFF799FF48B1084B3422DE
:101E8000C3F82426D3F83C2622F40022C3F83C26CB
:101E9000034B0122C3F8002608BD00BF00C0FF00AD
:101EA00000001250D34D6210024B0122C3F80424EB
:101EB000704700BF002008E000487047641600200B
:101EC000034BC01A8010034B03FB00F0704700BFA8
:101ED00024160020B76DDBB638B505460C46FFF773
:101EE000EFFF01464022034804F04CFA0146284621
:101EF000A04738BD8C7E000030B583B005460C4647
:101F0000FFF7DEFF0146402300932346054A0648BB
:101F100004F052FA011E01DB03B030BD2846A04791
:101F2000FAE700BF016400008C7E000008B510B124
:101F300001280DD008BD0021084804F0B1F98368DC
:101F400013F0070FF6D10021044804F009FAF1E775
:101F50000121024804F004FAECE700BF8C7E000087
:101F600008B50120024B986001F018F808BD00BFC9
:101F700000E0105010B582B0EFF31184202383F3FA
:101F80001288BFF36F8F144A136843F00201116087
:101F900013F0010F09D1002384F31188BFF36F8F71
:101FA000A3B9FFF7DDFF02B010BD0DF1070201215B
:101FB0000A4804F058F99DF807300BB10023EBE70D
:101FC000FFF77AFF04F0BAF90123E5E7002104489E
:101FD00004F0C6F9E7E700BF7416002000E01050D7
:101FE0008C7E000008B5012004F08FFE014B012219
:101FF000DA6008BD00E0105010B5EFF31184202323
:1020000083F31288BFF36F8F074A136823F002012E
:10201000116013F0010F04D084F31188BFF36F8FA8
:1020200010BDFFF7DFFFF7E77416002070B582B030
:102030000546012806D12C4BD3F8503403F0030396
:10204000012B4AD005F074FC044618B9274B1B78C5
:10205000002B37D1EFF31186202383F31288BFF3CF
:102060006F8F01241CB9204B0422C3F808230DF103
:10207000070200211C4804F0F6F828B19DF807304B
:10208000012B25D0012D23D0F4B1304603F0E9FF18
:10209000154BD3F8403413F0FF0FE8D1124BD3F8AF
:1020A0000831002BE3D0104B0022C3F80821D3F8ED
:1020B00008210122C3F840240D492020C1F8A001C5
:1020C0001A61D4E70026CDE7012004F0ABF9DFE781
:1020D0002CB186F31188BFF36F8F02B070BD024B35
:1020E0000422C3F80423F8E700E010505F17002033
:1020F00000E100E000B585B0CDF800D0CDF804D007
:1021000000230293012303936B46074A04F070F9FE
:10211000002805DB43F609520023684602F0E0FA86
:1021200005B05DF804FB00BF8164000070B5064691
:102130000022012140F2051003F06EFF114800F06B
:102140000BFF114B984219D100F018FF0024012C0D
:1021500012D82146304604F0A3F805462146304601
:1021600004F0A9F8094903F074FE002805DB0123F7
:10217000AB601C44E4B2EAE7002070BD6FF00400DD
:10218000FBE700BF2D1F00000000AD0BD08E00004C
:1021900010B504460E4B0121D3E8EF2FC3E8E01F32
:1021A0000028F9D11AB1631E012B0DD910BD0948C1
:1021B00004F081F8084900234B608B60CB60012359
:1021C0008B6003F063FEEEE72046FFF72FFFEDE79D
:1021D000201600208C7E00001016002010B504464A
:1021E0000A2806D0E1B2064883685B689847204613
:1021F00010BD034883685B680D219847F2E700BF74
:10220000DC7E000010B5044C2046FFF7B1FD2046EF
:10221000FEF75AFF10BD00BFDD21000008B50548DC
:1022200005F003FB18B1FFF7EDFF002008BD6FF0CC
:102230001200FBE7DC7E0000036803F01F0202606F
:102240005B09012B06D0022B06D00BB10020704792
:1022500002487047024870470248704700A010507B
:1022600000820D5000040550022806D0012806D037
:1022700008B9044870470020704703487047034876
:10228000704700BFA07E0000C87E0000B47E000042
:102290002DE9F04786B0884615469946446801F016
:1022A0001F07237B47EA4317204604F0BAF90028AA
:1022B00053D0B5F5001F2AD00DF10C0A0026039665
:1022C00004964946284604F01BFA8DF80C00009647
:1022D00001960296CDF804A0A36823FA08F313F040
:1022E000010F02D1B5F1A07F18D010346A463946EB
:1022F000204605F056F81C4B984231D10122394650
:10230000204605F072F8002006B0BDE8F087394697
:1023100004F1100005F06DF80020F5E7384604F0F0
:1023200032F90028E1D104F110050DF11702394608
:10233000284605F042F80D4B984203D00DF11703E3
:102340000493D2E70DF11701284605F04AF8064B31
:102350009842F3D06FF00B00D6E76FF08500D3E71B
:102360006FF01500D0E700BF0000AD0B0400AD0B0F
:102370002DE9F04389B0074689461446456801F0C7
:102380001F082B7B48EA4318104604F04FF98DF8DC
:102390001E0040F206332340B3F5837F5DD016D88C
:1023A000062B56D006D9B3F5807F0DD101238DF8C9
:1023B0001D3024E003B3022B03D102238DF81D301E
:1023C0001DE06FF015076DE06FF015076AE040F251
:1023D0000222934245D0B3F5407F03D105238DF807
:1023E0001D300CE0B3F5007F03D104238DF81D30C0
:1023F00005E06FF0150755E000238DF81D3001262C
:1024000006FA09F63146384604F01EF9071E49DB84
:1024100014F4002F29D06B685E60284604F001F99F
:1024200048B310350DF11F024146284604F0C5FFA0
:10243000064614F4403F39D14146284604F0C9FF0E
:10244000394B9E422ED19DF81F10284604F0C5FF3F
:1024500028E008238DF81D30D1E709238DF81D30C1
:10246000CDE706238DF81D30C9E714F4802FD4D0B2
:102470006B689E60D1E7C4F340438DF8083014F4D4
:10248000803F0CBF012300238DF8103000230193FF
:102490000DF11D0300930DF11E0304AA02A940468D
:1024A00004F016F8384609B0BDE8F08302AA00230C
:1024B00002930393049305930693059204AA41465D
:1024C000284604F06EFF184B984202D06FF01507B3
:1024D000E8E714F4003F1AD09DF81D308DF8103055
:1024E00014F4803F0CBF012300238DF811309DF8B8
:1024F0001E308DF81230002304AA4146284604F00D
:1025000054FF094B98429BD06FF01507CAE7002390
:102510000493059306930DF11E03049304AA414608
:10252000284604F03EFFECE70000AD0B10B5446810
:10253000204604F076F808B9002010BD103420467B
:1025400004F043FF08B10020F7E70021204604F023
:1025500038FF0C4B984211D100220B49204604F061
:1025600028FF00220121DB2003F056FD002201217B
:1025700040F20D1003F050FD0020DEE76FF0040084
:10258000DBE700BF0000AD0B396700002DE9F04F1D
:102590008BB007900F469246089301690C4606914E
:1025A00043689A6A04929B8B05934FF0FF324FF079
:1025B000FF33084602F094F804F11003184609931B
:1025C0000022002302F08CF80026344603963CE0FB
:1025D0004FF0010B01E04FF0000B20466A6804EB5E
:1025E000020CDDF814E0F44500F2898013F0010FCD
:1025F00056D06B6823449CB2BBF1000F24D1002C51
:1026000056D157F80990AB88089A00924A46297A21
:10261000079800F0BFF8031E039369DB43F60952E5
:102620000023099802F05CF80390002844D1069B2F
:102630001A6A374B9A4266D12B7A13F0010F02D0F7
:10264000049B99453FD000244646564550D206EBA0
:1026500046054FEA850907EB85052B7A13F0080F2D
:1026600043D157F8091001F0604206F10108D04546
:102670000ED213F0020F0BD108EB480007EB8000DD
:10268000007A10F0040F03D1584010F0010F9FD0D2
:10269000002CA0D1B2F1005F07D04FF0000B9CE7F7
:1026A000049B184405F038FBA3E74FF0000BA3E7A9
:1026B0002346DDF81090A7E7079800F04BF86FF07D
:1026C0000403039314E01D4606E0A41AA4B22919DA
:1026D000385805F021FB013E06EB4603980007EB56
:1026E00083035A689442F0D2ADE76FF085030393F9
:1026F000069801F0CFFF03980BB0BDE8F08F6FF0A4
:102700001B030393F4E76FF004030393F0E700BFA8
:102710000000AD0B08B50B690278012A0CD0022A23
:102720000DD012B1074A1A6201E0074A1A6203F19A
:10273000100001F0AFFF08BD044A1A62F7E7044A2F
:102740001A62F4E70100AD0B0000AD0B0100AE0B07
:102750000200AE0B70B544682368D3F80056D3F876
:102760000466204601F0B2FC3146284601F004FD23
:1027700005460021606A04F019F8204601F096FC35
:10278000034B9D4201D1002070BD6FF00F00FBE7AD
:102790000000AD0B10B586B040680024019402948F
:1027A00003940494059401F001048DF80440BDF8ED
:1027B00020408DF8054002930492828D9A4215D3F1
:1027C00011F0020F0DD0002201A901F0A3FC0A4B69
:1027D00098420ED00B33984205D06FF0040006B03B
:1027E00010BD2022F0E76FF00F00F8E76FF01B003C
:1027F000F5E70020F3E700BF0000AD0B38B5054654
:102800004468236A98470121606A03F0CFFF2B4692
:10281000A26904F10801204601F002FC054B984230
:1028200004D10549284603F0AFFF38BD6FF004001E
:10283000FBE700BF0000AD0BCD670000036803F0AD
:102840001F0202605B09012B06D0022B06D00BB1E0
:10285000002070470248704702487047024870479E
:1028600000A0105000820D5000040550F0B583B058
:1028700001900C4617461E4601A8FFF7DFFF01999D
:10288000203150F82130094D1D4044EA470444EA04
:1028900086039DF8202043EA02239DF8242043EA82
:1028A00002432B4340F8213003B0F0BDF0F0FCFFB1
:1028B0002DE9F04F85B007468B469246002423E071
:1028C0004FF0FF3535E0CAF804560126039631462D
:1028D000B5F1FF3F16D0B1F1FF3F40F0D58057F87A
:1028E000093013F4004F02D0012600220392002287
:1028F0000192CDF80080C3F3412332460399284664
:10290000FFF7B4FF0134E4B25C4580F0C1804FEAC8
:10291000840957F82430C3F3C322C3F30805082AF7
:1029200000F2B8805F4911F8028040F2FF12954230
:10293000C6D01B0E192B00F2B08001A252F823F072
:10294000C7280000A9290000B7290000C3290000FA
:10295000D1290000DF290000EB2900009B2A00009C
:102960009B2A00009B2A00009B2A0000F9290000F6
:102970000D2A00009B2A00009B2A00009B2A0000D1
:102980009B2A00009B2A00009B2A00009B2A000033
:102990009B2A00009B2A0000212A0000332A000005
:1029A000452A0000572A0000CAF80C560026039654
:1029B0004FF0FF318CE7CAF81056012603963146D6
:1029C00086E7CAF80856002603964FF0FF317FE7E6
:1029D000CAF80056002601230393314678E7CAF867
:1029E000045601260396002172E7CAF8085600260D
:1029F00003964FF0FF316BE7CAF80056B8F1000FAD
:102A000032D0002603964FF0FF3161E7CAF8045632
:102A1000B8F1000F30D0002603964FF0FF3157E792
:102A2000CAF8605557F80910C1F300410126039612
:102A30004EE7CAF8645557F80910C1F30041012662
:102A4000039645E7CAF8685557F80910C1F30041E5
:102A5000012603963CE7CAF86C5557F80910C1F3F4
:102A600000410126039633E74646CDF80C804FF02F
:102A7000FF314FF008082BE74646CDF80C804FF0A9
:102A8000FF314FF0080823E7284603F00AFF26E746
:102A9000002004E06FF0150001E06FF0850005B044
:102AA000BDE8F08F1890000010B504464268116828
:102AB0005369C1F82435537E92F81AC043EA0C03D7
:102AC000B2F81CC043EA0C03B2F81EC043EA0C0380
:102AD000127E1343C1F86C3503F0F8FF00B110BD4E
:102AE0000249204603F0E5FEF9E700BF676C0000ED
:102AF000F8B505460E46476804F01AFF20B9154B95
:102B00001B7843B1002300E0012353B9284604F0A9
:102B10005BF8044611E00123F7E784F31188BFF363
:102B20006F8FEFF31184202383F31288BFF36F8F2D
:102B3000284603F0FAFE0028EFD03B6A1E700122FF
:102B4000396A284603F00DFF84F31188BFF36F8FB5
:102B5000F8BD00BF5F17002000B583B002460B46EA
:102B600001210091024800F071FF03B05DF804FB01
:102B70003400002030B583B014461D46684600F08E
:102B8000A5FE009BA342019BAB4111D3094A1368E8
:102B90005168E41A65EB0105600924F01F041B1954
:102BA00041EB05011360516040EAC56002F024FB6F
:102BB00003B030BD8802002008B500220121E420C6
:102BC00003F02AFA002000F0ADFE124B98421ED10D
:102BD0001149012000F0EEFE0E4B984208D002335E
:102BE000984202D04FF0FF3008BD6FF00B00FBE7BA
:102BF0000A4B67221A600220FFF7CAFA084AD2F885
:102C0000183723F44033C2F818370020ECE74FF0B0
:102C1000FF30E9E70000AD0B3C000020F01600207B
:102C200000200E5000B583B0684600F04FFE0098BB
:102C3000064A13685268C01A019B63EB02034009FD
:102C400040EAC36003B05DF804FB00BF88020020C7
:102C500030B583B0B0F1FF3F21D020EAE074E51732
:102C60006D0145EAD4656401684600F02FFE009BC3
:102C7000E418019B45EB03050C4B18685968241AAE
:102C800065EB0105402C75F100030BD324F01F0404
:102C9000001941EB0501FFF75FFF03B030BD6FF096
:102CA0000044DCE720240025F2E700BF8802002072
:102CB000074BD3F84023D3F844331C2A01D000201B
:102CC0007047012B01D0002070470120704700BFE2
:102CD00000C0FF00036813F0020F0DD0036813F06B
:102CE000010F0DD0074B0922C3F80C250F22C3F8A2
:102CF000042501221A60FEE7034B0360EF3B0360EB
:102D0000704700BF00801050F000FA50036813F0C5
:102D1000020F0DD0036813F0010F0DD0074B0922ED
:102D2000C3F80C250F22C3F8042501221A60FEE720
:102D3000034B0360EF3B0360704700BF00801050FF
:102D4000F000FA5008B50848FFF7C4FF0748FFF73E
:102D5000C1FF0748FFF7DAFF0648FFF7D7FF06482D
:102D6000FFF7B8FF08BD00BF00C50D5008C50D50E6
:102D700010C50D5018C50D5000C70D50074BD3F8A6
:102D80000438012B05D0032B06D1054B054A1A60E8
:102D90007047034B044A1A60704700BF000012508E
:102DA000400000200090D0030020A10708B5254B6B
:102DB0000122C3F80028FFF7C5FF234AD2F88C3060
:102DC00043F44063C2F88C30002309E01F4A03F14A
:102DD000800152F8310002EBC102526802600133F7
:102DE0003F2B0DD803F18002184951F83220B2F17F
:102DF000FF3F05D003F1800251F83220002AE5D1CF
:102E0000104BD3F840341BB90E4BC822C3F84024F2
:102E1000FFF74EFF48B10D4BD3F834230C4B9A42C9
:102E200003D8084B0B4AC3F84026074AD2F88C3027
:102E300043F44063C2F88C30074B0022C3F8A0254E
:102E400008BD00BF0000125000ED00E000C0FF0010
:102E5000001D0A1840E0A91E00B0045010B5046817
:102E6000ACB1B4FA84F3C3F11F03DBB201229A4080
:102E700024EA0202D0E8EFCFA44504D1C0E8EE2F47
:102E8000BEF1000FF6D1EAD10B70024810BD024826
:102E9000FCE700BF0000AD0B0200AD0B0368CB40A8
:102EA00013F0010F11D100B5026801238B401343C9
:102EB000D0E8EFCF944504D1C0E8EE3FBEF1000F5B
:102EC000F6D1F1D102485DF804FB0248704700BF1B
:102ED0000000AD0B0400AD0B70B582B0064618B112
:102EE000012815D002B070BD1A4B0422C3F8082384
:102EF00001225A610022C3F80821D3F808310023C7
:102F00008DF80730012E0ED0002542F2107412E029
:102F1000104B0122C3F808235A600022C3F8002195
:102F2000D3F80031EBE70DF10705EEE7012003F0E0
:102F3000A7FE013CD6D02A463146064803F0A4FE3F
:102F40000028CFD0002DF1D09DF80730002BEDD018
:102F5000C8E700BF00E01050054B1B792BB9044BAC
:102F6000186001221A71034870470348704700BF78
:102F7000F41600200000AD0B0C00AD0B08B5054B9E
:102F80001B680BB103F09FFE03F09BFE024BC3F8DE
:102F9000400408BDF416002000E0105000B583B0D6
:102FA00020B1012848D003B05DF804FB324BD3F8C0
:102FB0004C24D3F84C3403F003038DF8073012F49B
:102FC000803F13D12C4BD3F8483413F0010F12D1AA
:102FD00003F077FE8DF807009DF80720264BC3F815
:102FE000402410224FF48473042029E00DF10700DF
:102FF00003F075FEF0E7204BD3F8503403F00303E1
:103000008DF807300DF1070003F069FE0028E3D0CA
:103010001A4B1B6823B1184B0422C3F80423C2E7E0
:10302000154BD3F80831002BFAD0134B0022C3F80C
:103030000821D3F80831B6E700224FF4807301204D
:1030400003F1A04303F5871300211960196802F109
:10305000A04202F5871201211160084A12681AB1D4
:10306000054BC3F804039EE71A68002AFCD000222F
:103070001A601B6897E700BF00E01050F4160020AC
:1030800008B5204BD3F800315BB11E4B0020C3F8CC
:103090000001D3F800210122C3F808231A4B1B6852
:1030A0009847184BD3F808318BB1164B0022C3F860
:1030B0000821D3F80821D3F84C24D3F84C3413F06A
:1030C000030F15D10F4B0122C3F840241A610D4B99
:1030D000D3F804315BB10B4B0022C3F80421D3F8C1
:1030E00004210220C3F80803074B1B68984708BD5A
:1030F000044B0422C3F80823034B1B6801209847A4
:10310000E5E700BF00E01050F416002030B401F5F0
:10311000A27150F821500E4C2C4040F8214050F83C
:10312000214041F6F07C0CEA021C1B0403F44033FE
:103130004CEA030C9DF808301B0503F480134CEA9D
:10314000030C44EA0C0440F8214030BC704700BF37
:103150000FE0ECFF036803F01F0202605B09012B24
:1031600006D0022B06D00BB10020704702487047F2
:10317000024870470248704700A0105000820D506E
:103180000004055000B583B0019001A8FFF7E2FFED
:10319000019A203250F82210044B0B4043F00203F6
:1031A00040F8223003B05DF804FB00BFF0F0FCFFF4
:1031B00030B585B086460D4694460C4B93E8070023
:1031C00004AB03E90700734609E004AA02EB83029B
:1031D00052F80C2C146A4CF8044B146201330EEBB9
:1031E00005029A42F1D805B030BD00BFC08700008B
:1031F0004309034AD35C00F01F001844C0B2704773
:10320000C89000006C22024B02FB0030704700BFE8
:10321000440000202DE9F04184B005460C461646D6
:103220001F460846FFF7E4FF804656B3214628466E
:1032300003F0AAFE28B12146284603F065FE0028C7
:1032400043D12146284603F06EFE10B17378012B5E
:103250003BD001238DF80F30002301930096B31C5F
:10326000721C0DF10F01204603F0AAFD2879FFF72B
:10327000C9FF08F1080230F8123043F0030320F8C8
:103280001230002F3BD02146284603F07DFE002857
:1032900037D13E782B6806F5A272002143F8221040
:1032A00043F822102879FFF7ADFF08F1080230F843
:1032B000123023F02003DB04DB0C20F812307B7883
:1032C0002BB9114804B0BDE8F0811048FAE7BA788C
:1032D0000092224631462868FFF718FF2879FFF749
:1032E00091FF024608F1080032F810307603B6B2BA
:1032F000334343F0200322F810300348E2E702484A
:10330000E0E70248DEE700BF0000AD0B0400AD0BB4
:1033100070B506460D46144603F0F6FD68B13079E7
:10332000FFF770FF06462846FFF762FF083036F8C1
:1033300010305B0B2370024870BD0248FCE700BFF1
:103340000000AD0B0400AD0B30B583B00546019114
:10335000002400E00134022C18D80E4B1B5D03F052
:10336000070202A901EBD30313F8043CD34013F086
:10337000010FEFD005EB840201212046FFF718FF73
:1033800055F82430002BE5D0012000E0002003B0E8
:1033900030BD00BFD89000002DE9F04182B0054655
:1033A000884616461F4603F03CFFAEB33A46314608
:1033B000284603F045FE041E20DB2879FFF722FF94
:1033C00040F834602879FFF71DFF00EBC400476028
:1033D0002879FFF717FF05464046FFF709FF083039
:1033E00035F81030E4B26402A4B2234343F480738E
:1033F00025F81030094802B0BDE8F0812879FFF7C0
:1034000001FF0DF107016030FFF728FD034B9842E3
:10341000F1D19DF80740D0E70048ECE70000AD0B84
:103420002DE9F04385B004460D4617460846FFF7E0
:10343000DFFE0646D7F80080B8F1000F28D02946F5
:10344000204603F090FD00284FD100238DF80E3068
:103450008DF80F300193009343460DF10F020DF1EB
:103460000E01284603F0ACFC2079FFF7CBFE06F1F5
:10347000080830F8183023F0020320F818302079BB
:10348000FFF7C0FE30F8183043F0010320F8183081
:103490007B68F3B193F80080D3F804902946204666
:1034A00003F052FD18B3B9F1000F67D12079FFF78F
:1034B000A9FE083630F8163023F01C0320F8163029
:1034C0002079FFF79FFE30F8163043EA880320F892
:1034D0001630BA68002A55D053681268294620462B
:1034E000FFF75AFF05B0BDE8F0832748FAE72079D7
:1034F000FFF788FE06F1080230F8123023F02003AF
:10350000DB04DB0C20F81230B9F1000FCED0B8F19B
:10351000030F35D87B685B6893F80090B8F1000F13
:1035200008D1236809F5A279002243F8292043F83D
:103530002920BBE7404603F02FFD0346216809F52B
:10354000A27C51F82C2022F0030241F82C202A46BC
:103550004946206803F0DDFB2079FFF753FE06F1B2
:10356000080230F812304FEA49391FFA89F943EA64
:10357000090343F0200320F8123097E70248B1E72F
:103580000148AFE70148ADE70400AD0B0000AD0B0B
:1035900038B505460C4603F0A8FC08B9074838BD05
:1035A0002146284603F029FD2146284603F064FE03
:1035B0002046FFF7E7FD0248F1E700BF0400AD0B2E
:1035C0000000AD0B70B582B005460E460079FFF7DE
:1035D00019FE90F8683013B10B4802B070BD044674
:1035E00046220021103004F0A4FBA36D00930023B9
:1035F00032464FF40031286803F06AFE012384F854
:10360000683023660148E8E70C00AD0B0000AD0B05
:103610002DE9F04385B080460F46002301930293C5
:103620000393496E01A8FFF78FFE4CE094FAA4F4CF
:10363000B4FA84F404F01F05254B9B5D45EA43155D
:103640002846FFF7D5FD083037F81090C9F38209F6
:1036500001AB03EB8603E00804F007041A5C0121C8
:10366000A14022EA01021A54284603F022FC034634
:103670004A462946384603F094FD284603F028FCC4
:1036800004AB03EB860353F80C4C002CCED101366F
:10369000022E0DD80F4B9B5D07F16402D90803F091
:1036A0000703525C22FA03F313F0010FEFD0E7E7B0
:1036B000BA6D4FF40031404603F064FB796E01A807
:1036C000FFF742FE08B10026E2E705B0BDE8F0834F
:1036D000DC900000D890000008B50249024803F0D1
:1036E00044FE08BD4400002000A00D5008B502496A
:1036F000024803F03AFE08BDB000002000C01050A0
:1037000010B5D0F8183723F4403343F48033C0F8B1
:103710001837D0F8103523F00203C0F8103540F602
:10372000FF73C0F8283300220AE0930003F5C07C41
:10373000002440F80C40DBB28033C4500132D2B2D6
:103740000B2AF2D90123036669B1074B074A1068B7
:10375000074AA2FB0020800C00EB4000C0EB4010A9
:1037600043F00103984710BDF0870000400000209F
:1037700083DE1B43024B5868C04300F0670070476C
:103780001C010020024B986800F06700704700BFE2
:103790001C010020024BD3F81005C0F34000704715
:1037A00000200E5003498B680122824013438B6036
:1037B000704700BF1C01002010B5044603F070FEE6
:1037C00028B1204603F062FE18B1034810BD03483B
:1037D000FCE70348FAE700BF0000AD0B0800AD0BA3
:1037E0000400AD0B027A0A4BD3F8103523F0010325
:1037F0005AB101221343064AC2F810350368C2F8D1
:10380000A4364368C2F8AC3670470022F2E700BF26
:1038100000200E5038B50546047A204603F05DFEC0
:103820000346220102F1A04202F562220021C2F801
:103830002C152868064A03EB430102EB8101C8609E
:1038400068680861287A0875FFF7ACFF38BD00BFCB
:103850001C01002070B582B0FFF78CFF0446FFF713
:1038600091FF184E04EA0001304603F047FED6F8F7
:1038700020530540002400E00134042C20D804EB40
:103880004402114B03EB8203187D012383402B423A
:10389000F2D00D4B03EB8203DE68002EECD0094A18
:1038A00000F15203190102EB03135B68525804EB59
:1038B000440C054901EB8C0109690091B047DBE735
:1038C00002B070BD00200E501C01002070B50446EF
:1038D00000220023C0E90023FFF75CFFD0B1EFF323
:1038E0001180202383F31288BFF36F8F0A4BD3E933
:1038F00000564FF0FF31A9426FF04041B141F5D37E
:10390000C6F313032560636080F31188BFF36F8FE4
:10391000024870BD0248FCE740270E500000AD0B86
:103920000100AD0B30B585B01C4B1C7814B11C48A0
:1039300005B030BD05461B4A01AB07CA83E8070046
:103940001949D1F8102522F00202C1F810251846B5
:10395000FFF748FF672003F08EFD05280CD01348C1
:10396000E6E7204603F0A4FD04EB44020B4B03EB17
:10397000820318750134E4B2042CF2D90A4C0023F6
:103980002A466721204603F0D7FD01212046FFF794
:10399000B7FE024B01221A700548C9E71C0100203E
:1039A0000C00AD0BCC87000000200E500100AD0BC9
:1039B0000000AD0B70B582B005460E461C494B6841
:1039C00003F001030193143101A8FFF747FA0446FD
:1039D000184B984202D0204602B070BD00203070D3
:1039E000134A536823F001035360FFF7DBFEFFF730
:1039F000D1FED0B92946104803F0FFFC0F4B1B68DD
:103A00000F4AA2FB03239B0C03EB431300E0013B93
:103A10003BB1094AD2F84017D2F8442712F0804F40
:103A2000F5D1002BD7D1074CD5E7074CD3E700BF22
:103A30001C0100200000AD0B00200E5040000020B3
:103A400083DE1B430700AD0B0C00AD0B2DE9F041ED
:103A5000044617461E469DF81880007AFFF7ACFE14
:103A60000546174B984202D02846BDE8F081204613
:103A7000FFF7D0FEEFF31181202383F31288BFF309
:103A80006F8F227A92000F4B134400221A601B683A
:103A9000237A0D4A5233180102EB03131750C6F371
:103AA00013065E6081F31188BFF36F8FB8F1000FCA
:103AB000DAD0227A01239340034AC2F82433D3E7B1
:103AC0000000AD0B00210E5000200E50036803F0E3
:103AD0001F0202605B09012B06D0022B06D00BB13E
:103AE00000207047024870470248704702487047FC
:103AF00000A0105000820D5000040550F0B583B0B6
:103B000001900C4617461E4601A8FFF7DFFF0199FA
:103B1000203150F82130094D1D4044EA470444EA61
:103B200086039DF8202043EA02239DF8242043EADF
:103B300002432B4340F8213003B0F0BDF0F0FCFF0E
:103B4000034610F0010F08D1064813F0020F00D011
:103B5000054813F0040F02D170470448F5E7044804
:103B6000FAE700BF0100AD0B0100AE0B0000AE0B89
:103B70000200AE0B2DE9F04104460D4616461F46E5
:103B8000002380F82330536833B1D36803F06043D7
:103B9000B3F1005F40F00E813378023BDBB2012BC2
:103BA00040D917F0030F40F00881854BC5F8083362
:103BB00094F82430002B3ED117F0140F0CBF0123D2
:103BC000002384F82430337884F82030737884F824
:103BD0002130F368E3607368236133696361B3681C
:103BE000A361C7F3001384F82530E7617378C5F843
:103BF00088350023C5F83831D5F83821C5F8283183
:103C0000D5F82821C5F81431D5F81421C5F80431A8
:103C1000D5F804313378032B00F2A480DFE803F0F9
:103C200075915E11336903F06043B3F1005FB8D062
:103C3000DFF890814FE0A368C5F80433DFF888818E
:103C400049E04FF48073C5F80032E2682369C5F893
:103C50003C27C5F8403701232B6500224FF0006157
:103C6000284603F08EFC0028F7D16269A369C5F8E5
:103C70003C27C5F840374FF48063A360DFF84C81E0
:103C800017F0080F11D13378032B0ED0012B6CD015
:103C90002368002B73D00021284603F0F2FC7368E0
:103CA0001BB923680BB101236B602368002B69D01B
:103CB00017F0040F01D00023A36017F0400F03D1C9
:103CC000A36843F00203A360A36843F02003A3604A
:103CD000A368C5F804334046BDE8F081E268236973
:103CE000C5F83C27C5F840376269A369C5F80427C1
:103CF000C5F808374FF48453C5F8003201232B610F
:103D00000223A360DFF8C480BAE7E2682369C5F83C
:103D10003C27C5F8403717F0200F0BD04FF48073C5
:103D2000C5F800324FF48063A36001232B61DFF8F4
:103D30009C80A5E74FF40073C5F800320223A3600E
:103D4000F3E7E2682369C5F80427C5F808374FF49C
:103D50008053C5F8003201232B610223A360DFF8F2
:103D60006C808DE7DFF868808AE7236823B1002143
:103D7000284603F06AFC92E704F10C01F8E704F12D
:103D80000C0189E7D5F8C404C5F8C404002384F8FD
:103D9000243018B1FFF7D4FE80469CE717F0400F9F
:103DA00099D12146284603F0B1FC002893D1DFF8D1
:103DB000248090E7DFF80C808DE7DFF81C808AE72D
:103DC0002264F81F0A00AD0B0B00AD0B0000AD0B19
:103DD0000400AD0B0100AD0B0300AD0BF0B587B0D7
:103DE00005460C4691F82030012B6DD001F11407E7
:103DF0003A460221284603F0C4FB06463A462021F3
:103E0000284603F0BEFB00287CD0002E5FD0E3697B
:103E100013F0400F04D194F82330002B00F0A5805C
:103E2000E36913F0040F33D10023C5F83831D5F816
:103E30003821C5F83431D5F8343194F8253013B130
:103E400094F82330A3B10023C5F80032A360604B7F
:103E5000C5F80833C5F30F32C5F3083302F01F026B
:103E60005B09012101FA02F260335A4941F823202B
:103E700094F820308DF8043094F821308DF8053016
:103E8000E36804932369029363690593A369039329
:103E9000D5F8C434C5F8C43413F0020F7ED0012322
:103EA0008DF8003094F825300BB984F82430E3699C
:103EB00013F0040F02D094F823301BB1236861681B
:103EC0006846984707B0F0BD01F10C0790E7A3687A
:103ED000C5F808330223A360A368C5F804330022A1
:103EE0004FF48041284603F04CFB20B1D5F8003256
:103EF00013F4007F02D101232B616B60012384F84E
:103F00002330DFE7002E82D13A464FF48061284605
:103F100003F037FB94F8203083BB94F825309BB92D
:103F2000C5F80032A3602A4BC5F80833C5F30F3239
:103F3000C5F3083302F01F025B09012101FA02F206
:103F40006033244941F8232094F820308DF8043060
:103F500094F821308DF80530E368049323690293C7
:103F600063690593A369039392E72146284603F00A
:103F7000CDFB80F0010084F8230051E74FF400737B
:103F8000C5F800322223A360114BC5F80833A3689B
:103F9000C5F8043301232B652B6193E713F0040F5D
:103FA00003D002238DF800307CE713F0010F03D01B
:103FB00003238DF8003075E794F823301BB10423F8
:103FC0008DF800306EE700238DF800306AE700BFFF
:103FD0002264F81F00E100E030B585B00D6800955F
:103FE0004C6801948A680292C97B8DF80C100368B2
:103FF00019B9C3F80056C3F80446C3F82425037959
:1040000003EB8303054A52F8333023B10068C0F351
:10401000083001F0FCFF05B030BD00BFFC160020E9
:1040200070B506460D46047904EB84001B4901EB8C
:10403000C00191F8221079BB184804EB840C00EB06
:10404000CC0140F83C204B6000238B6081F8253088
:1040500081F82430B5B1A97B00EBCC0383F827109D
:10406000284603F095FB08B90D4814E0697B04EB82
:1040700084020A4B03EBC20383F82610294630461C
:10408000FFF7AAFF04EB8404044B03EBC4030122F3
:1040900083F82220034870BD0348FCE7FC1600208B
:1040A0000400AD0B0000AD0B0C00AD0B03790268F2
:1040B0000621C2F8001503EB8303034A02EBC30396
:1040C000022283F822207047FC16002010B40379E6
:1040D0000E4903EB830C01EBCC0C0024CCF8084018
:1040E00000680B4AC0F80823D0F8002222F0FF52E3
:1040F00022F4BC52C0F80022C0F8004501228CF81E
:1041000022208CF8244010BC704700BFFC16002011
:104110002264F81F08B5134690F804C00CEB8C0C11
:104120000A460168024800EBCC00FFF723FD08BDFA
:10413000FC16002008B502490248FFF74FFE08BDF3
:10414000FC16002000700C50036803F01F02026090
:104150005B09012B06D0022B06D00BB10020704763
:1041600002487047024870470248704700A010504C
:1041700000820D5000040550F0B583B005460E4690
:1041800003F025FB304603F022FB019501A8FFF761
:10419000DBFF019A203250F82230204F3B4040F69E
:1041A0000D04234340F82230019601A8FFF7CCFF0D
:1041B000019A203250F822303B40234340F822300D
:1041C000042002F05DFD0024082C12D8304603F0D4
:1041D00018FB70B9284603F007FB042002F050FDDD
:1041E000284603F0F4FA042002F04AFD0134E4B258
:1041F000EAE7304603F0F8FA042002F041FD3046C9
:1042000003F0E5FA042002F03BFD304603F0F9FA32
:1042100010B1034803B0F0BD0248FBE7F0F0FCFF2B
:104220000000AD0B0100AD0B034B00E01433034A5B
:104230009342FBD3704700BF8C7E0000047F0000D8
:1042400038B5EFF31185202383F31288BFF36F8F06
:10425000054B9C6803F001FB85F31188BFF36F8F5A
:104260002046FDF777FA38BD2417002038B50546FB
:104270000A4B53F8204002E02368984708346B1C2F
:10428000064A52F82330A34206D96368002BF3D0C4
:10429000204603F0E5FAF1E738BD00BFF0900000DA
:1042A00010B586B0B023104C03FB004400EB800C2B
:1042B0000E4B03EB8C030E4A0592012204920F224F
:1042C000039200220292019200930A4B4FF4A072D3
:1042D000094901EB8C11204600F04AFA637B23F078
:1042E0000403637306B010BD900200202417002061
:1042F000E0900000A3780000602F002008B553EA8A
:10430000020102D103F01AFB08BD0249183000F087
:10431000EDFEF9E7817B000010B586B0184C14E083
:10432000636A0593236A0493E3690393A369029381
:104330006369019323690093E368A2686168206858
:1043400000F016FA23685C6530340E4B9C42E7D3CC
:1043500000F0D2FC0A4C00E030340A4B9C420BD2F5
:10436000A26AE36AB3F1FF3F08BFB2F1FF3FF3D0A7
:104370002068FFF7C3FFEFE700F0D6FC06B010BDE2
:104380007C8700007C87000008B50B4B01221A7067
:104390000320FFF76BFFFCF789FF03F081FA04208D
:1043A000FFF764FFFFF7B8FFFCF700FE034A137B3B
:1043B00023F00103137308BD5F17002040030020A2
:1043C00008B50146014A0248FDF7B8FA89430000E2
:1043D0004003002008B50348034A121A002103F0E5
:1043E00057FA08BDD80100206017002010B5044618
:1043F000FFF756FFB0230A4903FB0411094A04EBF7
:10440000840302EB8303D9601C74074B03EBC423C2
:1044100003F5006304EB840402EB8402536010BDD7
:1044200090020020241700206027002070B586B07D
:1044300000F098FC104D114B5D61114B0593012369
:104440000493002403940294019400940D4B4FF4C0
:1044500000620D49284600F08BF906466B7B23F07D
:1044600004036B73284603F004FB2046FFF7BEFFEE
:10447000304606B070BD00BF400300202417002066
:10448000E890000089430000A030002008B500201B
:10449000FFF7ECFE1C4B03F5006282F3088883F300
:1044A0000A881A4CE02384F822300025E577257627
:1044B0006576A576636A43F4E023636284F823504B
:1044C000FDF7BCF8FDF760FA4FF0FF33A362E3623B
:1044D000FDF706FCFDF788FA0D4B01245C731C7395
:1044E000C3F89450C3F89850C3F8A050094A936099
:1044F000FFF79AFE2046FFF7B9FE0220FFF7B6FE4F
:10450000FFF794FFFFF75CFF6027002000ED00E05D
:10451000F0030020241700202DE9F04182B004466A
:10452000EFF31187202181F31288BFF36F8FC168E9
:1045300099B9002950D1364B9B6893F90E3023610D
:104540000131E160324B9B68A36087F31188BFF3B0
:104550006F8F002002B0BDE8F08116461D468268CC
:104560002B4B9B689A42E4D055EA060136D092F96B
:104570000E80414693F90E0003F0A0F9804534DC2B
:104580004FF000080096019522463946214800F078
:10459000F1FA0028DED0EFF31185202383F312888F
:1045A000BFF36F8FA36843B323689C4223D013B338
:1045B000216993F90E0003F081F90146204603F0CA
:1045C00088F9E8B9B8F1000F1AD185F31188BFF363
:1045D0006F8F6FF00A00BDE72369B0E787F311889A
:1045E000BFF36F8F6FF00F00B4E70146204603F072
:1045F00070F98046C6E72169E0E7B8F1000FE4D022
:104600002946044800F02EFB6FF00A00A2E700BF25
:10461000241700204817002038B583687BB3044670
:104620001A4A926893422DD1C368012B03D9013BEA
:10463000C360002038BDEFF31185202383F3128877
:10464000BFF36F8F016903F044F9204603F09EFA2F
:10465000A06068B190F90E3023610024C0F8AC402E
:1046600003F007FA29460A4800F0FCFA2046E1E781
:104670000020E06085F31188BFF36F8FDAE76FF0F9
:104680001500D7E74FF0FF30D4E700BF2417002014
:104690004817002038B50446EFF31185202383F333
:1046A0001288BFF36F8F03F071FA48B10022C0F88F
:1046B000AC2003F0DEF92946084800F0D3FA38BDF3
:1046C000A368E268934207D001221344A36085F3F4
:1046D0001188BFF36F8FF2E70022F6E7481700203A
:1046E00010B582B0EFF31181202484F31288BFF358
:1046F0006F8F846844B1013C846081F31188BFF3FB
:104700006F8F002002B010BD53EA020406D0009261
:1047100001930246054800F02DFAF3E781F3118872
:10472000BFF36F8F6FF00F00ECE700BF481700205A
:1047300010B5044640B11F2204F1740003F001FBE0
:10474000002084F8930010BD014B9C68F3E700BF84
:104750002417002008B553EA020102D103F0EEF855
:1047600008BD0249183000F0C1FCF9E7817B000068
:104770002DE9F04F85B004460F4615461E46DDF87C
:1047800038A0DDF83C90DDF84080DDF84CB000F159
:1047900058038365C365129B0422119903F0D2F874
:1047A0002A463946204603F0AEF80546CDF8088083
:1047B000CDF80490CDF800A0334602463946204695
:1047C000FDF79AF8002363652666C4F864A0C4F870
:1047D0006890C4F86C80EFF31182202383F3128871
:1047E000BFF36F8F124B196A21671C6282F3118825
:1047F000BFF36F8FBBF1000F13D01F22594604F196
:10480000740003F09EFA002384F89330084B9B68F1
:104810005BB1D3F8A030C4F8A030284605B0BDE89D
:10482000F08F002384F87430F0E7C4F8A030F4E788
:104830002417002010B5114B53F8184F9C420FD08D
:1048400074B180B90D4B9B685A7B12F01F0F0AD1CF
:10485000A26942B9DA897F2A05D9084A53610BE077
:10486000064BDC68EDE7054B9B68A34202D020466F
:1048700000F082FB014B5C6110BD00BF24170020DB
:1048800008B5437B90F90D20002A08DB094B9B6893
:10489000834214BF00200120FFF7CCFF08BD03F0C6
:1048A0007F0343734268036813605A600023036008
:1048B0004360EBE724170020B3F1FF3F08BFB2F1DC
:1048C000FF3F00D1704708B50249183000F00EFCD8
:1048D00008BD00BF817B0000427B90F90D30002BAA
:1048E00033DB70B5044612F01F0F01D1866906B1A3
:1048F00070BD62F07F024273144B53F8185F9D4203
:1049000008D1354606E06B68636025601C606C600A
:1049100017E035466DB12946204603F046F80028D9
:10492000F1DC002DF6D0094BDB699D42F1D02D68FA
:10493000F0E7064BDA6903F1180121606260146048
:10494000DC610020FFF776FFD2E7704724170020D4
:10495000437B0B425CD170B504460D460B43437359
:1049600013F0800F1FD1082D28D000260120FFF75B
:1049700061FF102D45D0204600F05EFB66B1254B4F
:1049800001225A731A730022C3F89420C3F89820A6
:10499000C3F8A020204A9360BFF35F8F637B23F0AE
:1049A0006003637370BD03F07F0343734268036861
:1049B00013605A60002303604360D4E7A3685BB1CF
:1049C0006268236813605A60002323606360627B1F
:1049D00022F002026273A36004F1180003F077F979
:1049E00004F1580002F0EBFF0B4B9B68A34201D08F
:1049F0000026BBE7EFF305830BB90026B6E70126D7
:104A0000B4E7BFF35F8F637B23F060036373C9E791
:104A1000704700BFF00300202417002038B505467A
:104A20000C46124B9868437B13F0600F05D013F0CF
:104A3000200F07D00821FFF78BFF84F31188BFF305
:104A40006F8F0EE01021F6E7EFF31184202383F33C
:104A50001288BFF36F8F02F02FFF84F31188BFF32A
:104A60006F8F6B7B13F0600FEED138BD24170020E1
:104A7000F8B504460E46154600F1580702F08FFFC0
:104A8000B8B1637B55B1202213436373EFF3058301
:104A900033B131462046FFF7C1FFF8BD4022F3E7AE
:104AA0003946104B986802F0ADFF304602F079FFAE
:104AB000F3E765B108212046FFF74AFF094B9B68E1
:104AC000A34206D086F31188BFF36F8FE5E710216C
:104AD000F1E7EFF30583002BF4D1304602F061FFDC
:104AE000DBE700BF2417002038B50546437B90F96B
:104AF0000D20002A0ADB6B7B63F07F036B731C4B7A
:104B000053F8184F9C4213D1002411E003F07F03A7
:104B100043734268036813605A6000230360436074
:104B2000E9E763686B602C601D60656017E0002436
:104B30006CB12146284602F038FF0028F1DC002C39
:104B4000F6D00B4BDB699C42F1D02468F0E7084BB0
:104B5000DA6903F1180129606A601560DD61044BB0
:104B60009868A84214BF00200120FFF763FE38BDFB
:104B70002417002010B50C4611460A4882680A4BDB
:104B80001A60EFF31183202383F31288BFF36F8F32
:104B9000DDE90223806802F060FF2046FCF7F4FDA7
:104BA00010BD00BF24170020481700202DE9F04158
:104BB00005460F460023EFF31186202282F3128868
:104BC000BFF36F8F184629E063686B602C601D602F
:104BD000656017E044466CB12146284602F0E5FEC8
:104BE0000028F1DC002CF6D01D4BDB699C42F1D093
:104BF0002468F0E71A4BDA6903F1180129606A604A
:104C00001560DD610120FFF715FE012001E0AF73A3
:104C1000002086F31188BFF36F8F0123F3B96B7BFC
:104C200013F01F0FF3D1D5F81880B8F1000FEED1B3
:104C300003F07F036B736A682B6813605A6000236C
:104C40002B606B60AF736B7B63F07F036B73044B04
:104C500053F8184F9C42BED14446BCE7BDE8F081F2
:104C60002417002008B50B4659B9EFF3058242B965
:104C7000064A50699268904203D00846FCF784FDCA
:104C800003E083F31188BFF36F8F08BD2417002062
:104C900010B5EFF31184202383F31288BFF36F8FD5
:104CA000437B13F0040F04D184F31188BFF36F8F9B
:104CB00010BD23F004034373FFF70EFE21460248A4
:104CC000FFF7D0FFF4E700BF4817002008B5034600
:104CD00050B9EFF305823AB9064A51699268914298
:104CE00002D0FCF751FD03E083F31188BFF36F8F0F
:104CF00008BD00BF241700200023EFF311812022FC
:104D000082F31288BFF36F8F09E0064B9A68D37B5A
:104D1000013BD37381F31188BFF36F8F0123002B05
:104D2000F3D070472417002010B50023EFF311844F
:104D3000202282F31288BFF36F8F0CE0084B9A6831
:104D4000D37B0133D3730020FFF774FD84F3118804
:104D5000BFF36F8F0123002BF0D002F042FF10BD94
:104D60002417002008B5024802F046FF08BD00BF26
:104D70003817002070B5EFF31186202383F31288D3
:104D8000BFF36F8F1E4B9A68517B01F07F01517307
:104D900050681168016048600021116051609D6891
:104DA0006A7B62F07F026A7353F8184F9C4208D105
:104DB000002406E063686B602C601D60656017E08E
:104DC00000246CB12146284602F0EFFD0028F1DCFA
:104DD000002CF6D00A4BDB699C42F1D02468F0E746
:104DE000074BDA6903F1180129606A601560DD611B
:104DF0000120FFF71FFD3046FCF7C6FC70BD00BF69
:104E0000241700202DE9F04150EA010337D0044671
:104E10000E466FF001031B1A4FF0FF3262EB0102E6
:104E2000012B72F100022EDB6FF001052D1AEFF35A
:104E30001188202383F31288BFF36F8F144FB86853
:104E4000144B1860FFF71CFDB86822463346124920
:104E5000183000F04BF9BA68537B43F010035373DA
:104E60004046FCF791FC02F04FFF281A63EB030366
:104E7000012873F1000300DA0020BDE8F081FFF79C
:104E800079FF0020F9E702F03FFF0519CFE700BFE7
:104E90002417002048170020817B000008B5B1F1DD
:104EA000FF3F08BFB0F1FF3F20D0FFF7ABFFC117B6
:104EB0004A0142EAD06243011B1A62EB01029200EE
:104EC00042EA93729B00181841EB0201C90041EAC3
:104ED0005071C00047F61123C01847F612224FF058
:104EE000000341F10001FBF7C9FA08BD034B9868C4
:104EF00002F0DAFD4FF0FF30F7E700BF2417002083
:104F0000014B9868704700BF24170020044BC01A5B
:104F1000C010044B03FB00F0034B01221A547047EE
:104F2000A0040020ABAAAAAA4C170020C3897F2B9B
:104F300011D80E4B1B687BB190F90E200C4B1B68EF
:104F40009A420CDB437B13F01F0F0AD1094B9842A6
:104F500009D0012300E0002303F001007047002383
:104F6000FAE70023F8E70023F6E700BF5417002014
:104F7000501700209002002070B505460D4B1E7C96
:104F800006EB46030C4C04EBC304204602F09FFEE4
:104F90000A4B00229A552846FFF7C8FF00B970BD9A
:104FA000074B1A68013AD3170649204600F09EF8CD
:104FB000F5E700BF24170020A00400204C170020B4
:104FC000541700200D4F000038B5EFF31185202352
:104FD00083F31288BFF36F8F144B9C68144B1B68CC
:104FE000A34217D0124B00221A60104B1B7C114AAF
:104FF000D35C53B12046FFF799FF30B1637B13F0C8
:105000001F0F0FD02046FFF7B7FF85F31188BFF3BE
:105010006F8F38BD2046FFF7AFFF85F31188BFF3D0
:105020006F8FF6E72046FFF75FFDEBE724170020C0
:10503000481700204C170020EFF31181202383F341
:105040001288BFF36F8F0A4B1B6A834204D11A6F19
:10505000074B1A6207E0134613B11A6F8242FAD166
:105060000BB1026F1A6781F31188BFF36F8F70471E
:105070002417002008B50648064A121A064902F00D
:105080000BFC064A0649074802F006FC08BD00BFB3
:1050900000000020D4010020189100000000000052
:1050A0001891000000000020034B1868984200D0BF
:1050B00070470020FCE700BF7001002030B1044AB7
:1050C0005268904201D0006870470020704700BFCE
:1050D0007001002008B5044B1B680BB1002008BD0F
:1050E000FDF7A0FDFBE700BF58170020B3F1FF3F1D
:1050F00008BFB2F1FF3F77D02DE9F0470446924652
:105100001D4681600023EFF31187202282F312886D
:10511000BFF36F8F26E01AF1010845F10009FFF790
:10512000D9FF18EB000349EBE070236160613BE0BD
:10513000521A66EB030302614361436863602060B7
:105140001C60446005E0294B5A682360626014606B
:105150005C60FFF7A9FF84423AD087F31188BFF360
:105160006F8F0123002B3DD153466FF00101B1EB4E
:105170000A014FF0FF3060EB0502002ACBDB1C4A2E
:10518000116852685B1842EB05026FF00101C91A01
:1051900060EB020308461A46012973F1000301DAA5
:1051A0000120002220616261FFF77EFF0028CAD043
:1051B0000269466921696369914273EB060EB7DBA8
:1051C000891A63EB060321616361FFF777FFEDE75F
:1051D000084B1B68002BC0D102F05CFD0021FDF7DD
:1051E00037FDBAE7BDE8F087704700BF70010020C7
:1051F000B80400205817002070B5EFF31186202363
:1052000083F31288BFF36F8F2A4B1860FFF74CFFB0
:10521000044623E0284A136851685B1941EBE571A5
:105220001360516000220023C4E90423204602F0E9
:105230001AFD86F31188BFF36F8FA3682046984745
:10524000EFF31186202383F31288BFF36F8F194A7F
:1052500013685B1B1360FFF727FF04463CB1256909
:105260006169144B1A68D317AA428B41D2DA44B150
:10527000236962690F4909685B1A62EBE172236175
:1052800062610D4A0B4D2868136851681B1841EB89
:10529000E0711360516000242C6002F0FBFC214699
:1052A000FDF7D6FC86F31188BFF36F8FFFF78CFEF6
:1052B00070BD00BF58170020B804002010B50022B0
:1052C000EFF31184202383F31288BFF36F8F13460B
:1052D00011460CE0FFF7FEFE074A13685168C31839
:1052E00041EBE07184F31188BFF36F8F0122002A34
:1052F000F0D0184610BD00BFB8040020F8B5EFF399
:105300001183202282F31288BFF36F8F026822B1CB
:1053100083F31188BFF36F8FF8BD04461D46826A80
:10532000C36A52EA030105D0B3F1FF3F08BFB2F1EF
:10533000FF3F27D1236B01332363236A6BB185F3CE
:105340001188BFF36F8F236A20469847EFF31185CA
:10535000202383F31288BFF36F8F04F11803A4692D
:10536000A3423FD0002C3DD0204602F0B7FB0023E3
:10537000C4F8AC3085F31188BFF36F8F204602F07C
:1053800078FBC9E716461F46012A73F1000301DACC
:1053900001260027013E47F1FF3702F0B9FC01303A
:1053A00041F10001801947EB0101012871F1000171
:1053B00008DA6FF001024FF0FF330D492046FFF786
:1053C00095FEB7E702F0A4FC013041F1000180191D
:1053D00047EB01036FF00102121A4FF0FF3161EB4E
:1053E0000303EAE785F31188BFF36F8F94E700BFEB
:1053F000FD520000F8B51D46EFF31187202383F31B
:105400001288BFF36F8FB5F1FF3F08BFB2F1FF3FC6
:105410001FD00646144629466FF00102121B4FF0BA
:10542000FF3262EB0502002A18DB304602F04FFC27
:10543000DDE90623C6E90A230023336322462B460F
:105440000B493046FFF752FE87F31188BFF36F8F89
:10545000F8BD87F31188BFF36F8FF9E7012C71F165
:10546000000101DA01240025013C45F1FF35DCE7AC
:10547000FD5200002DE9F04F43688DB0154680467F
:10548000029383789A0740F10D8100240E78002E54
:1054900000F00A81252E0BD04B1C039301344146AA
:1054A0003046029B98470028C0F2F6800399EDE74A
:1054B0004E788B1C252E0393F0D00027B946BB46AF
:1054C000BBF11F0F38D8A6F12003102B0AD8DFE854
:1054D00003F02A0909300909092109090928092DB8
:1054E00009091F00A6F13003092B33D92A2E37D121
:1054F0001BF0400F55F8043B40F08280002BA7BF03
:105500004BF0200B9946C3F100094BF0280B01E04A
:105510004BF0010B039B13F8016B0393002ECFD1CB
:1055200030E04BF0020B4BF0040BF3E74BF0080BB1
:10553000F0E74BF0100BEDE7BBF17F0F19D8A6F1A8
:105540003003092BD2D81BF0400F03D00A2101FBF6
:105550000737DFE70A214BF0200B01FB0939D9E7B8
:105560002E2E06D11BF0400F40F09E804BF0400BDA
:10557000D0E76C2E31D02BD8682E36D06A2E3CD096
:105580004C2E3AD0002F46F02003B8BF2BF040023B
:10559000A3F16501BCBF00271FFA82FB022901D9D4
:1055A000612B2FD107350727DFF8ACA225F00705BF
:1055B00008351BF0080F66D00AEB070B56465E4510
:1055C00063D1A4EB0A0AA9EB070906EB0A026FE113
:1055D000742E9FD07A2E9DD0D4E71BF0800F18BF79
:1055E0004BF4007B4BF0800B94E71BF4807F18BFDB
:1055F0004BF4007B4BF4807B8CE74BF4207B89E7FA
:105600001F4687E7A6F16301122900F2F080DFE868
:1056100011F013004F00EE00EE00EE00EE004F0020
:10562000EE00EE00EE00EE00EE00FE00E900EE00FF
:10563000EE001B00EE00AF0055F8043B01270DF112
:10564000180A8DF81830B4E755F804AB834BBAF15B
:10565000000F08BF9A461BF0400F504614BF394652
:105660004FF0FF3102F07DFB0746A2E741462020C4
:10567000029B984700280FDB013EB742F6D34C440B
:10568000B146A41B98E74E46F7E7414616F8010BD2
:10569000029B9847002892DA98F8023043F00403FE
:1056A00088F802304FF0FF3420460DB0BDE8F08F8F
:1056B0001BF0800F34D01BF4007F2CD0073525F071
:1056C0000705AA4669685AF8080B2BF0100500294F
:1056D000ADB237DA404245F4806561EB41010DF12E
:1056E000180B0A235A4602F048FBA0EB0B03019368
:1056F0006B0662D5019B25F001019F4289B240F300
:10570000A180002E00F0998015F0100240F09C80DE
:10571000BB460D4623E0AA465AF8040BC117D4E74E
:10572000AA461BF4807F5AF8041B01D10846F5E70E
:105730001BF4007F19BF48B241F3C01108B241F316
:10574000C031C2E750EA0103C9D11BF0400FC6D0F7
:10575000002FC4D12BF01102BB46019795B240F245
:10576000064115EA01021CBF0BF1010B00222CE0DF
:105770002BF010020A231FFA82FB1BF0800C49D089
:105780001BF4007115BF0735AA4625F007055AF826
:10579000040B1EBFAA4669685AF8080B50EA0105B7
:1057A00045D12BF016051BF0400FADB242D0002FB3
:1057B00040D12BF01702019795B215F0100248D096
:1057C000019B002E42D103F1010B29075AD4EB07AC
:1057D00006D5D9456FDDA9EB0B030199CB465F18C0
:1057E0005B4649E04BF0100B10237826C5E7782B79
:1057F00004D1C6F1780343F01003BEE741462520EB
:10580000029B98470028FFF647AF023447E608237B
:105810000026B2E7AA461BF480715AF8040BBDD0EB
:105820001BF400711ABFC0B2614680B2B6E72BF01C
:10583000060295B20DF1180B54E725F01105BB4691
:10584000ADB28CE70D46B8E73B460D4603F1020BBF
:10585000BBE7DDF804B082E70F910000089100007B
:10586000CDE9043241462020029B98470028FFF6EC
:1058700013AF049B059A01339945F1DCA4EB0B01AE
:105880009B46CC180AB341463020029B984700281B
:10589000FFF602AF8EB901342744391B019B9942B0
:1058A00024DC1D4655BB019AA9EB0B095546224441
:1058B0001446914433E0019F92E70234414630465A
:1058C000029B98470028E7DAE6E640F206410D42DF
:1058D000E2D015F0020F04F10104414614BF2B2061
:1058E000202015F4806F18BF2D20E9E741463020B5
:1058F000029B013498470028CFDACDE606AB013D84
:105900004146585D029B98470028CBDAC4E64146E1
:105910002020029B013498470028FFF6BDAEA9EB7A
:105920000403002BF3DCC1E5704710B584688AB12D
:10593000964602EB420C4FEA8C0CACF10C0C8C44FA
:105940009CF8082042F002028CF80820A4687246F5
:10595000A04710BD0020FCE700B585B00191029280
:1059600002228DF80C20012201A9FFF7DEFF05B00D
:105970005DF804FB10B50021FA20FAF75FFF04463A
:105980000021FB20FAF75AFF04430021FC20FAF71C
:1059900055FF04431021FD20FAF750FF204310BDAE
:1059A00008B502F0B5F902464B0143EAD063400165
:1059B000801A63EB01039B0043EA9073800010EBB5
:1059C000020C43EB0101C90047F6122200234FEA03
:1059D000CC0041EA5C71FAF751FD08BD08B541F20F
:1059E0001402002102F0A5F908BD08B520EAE07212
:1059F000D1174B0143EAD2634FEA421CBCEB020CC5
:105A000063EB010E4FEA8E1343EA9C634FEA8C105E
:105A1000B0EB0C0063EB0E03DB0043EA5073C000F5
:105A2000801841EB03010018494140F2E733C018E8
:105A30004FF47A724FF0000341F10001FAF71EFDB6
:105A4000FFF72CFA08BD00EBC1018368B3F5004FE6
:105A50000AD322B14B6843F001034B6070474B6897
:105A600023F001034B60704722B14B8843F00103E0
:105A70004B8070474B8823F001034B807047131D08
:105A800050F82330DBB9C3684FF0010C0CFA02FC6C
:105A900043EA0C03C360043240F8221000EBC10358
:105AA0008268B2F5004F06D399608268B2F5004F64
:105AB00003D3D96070479980F7E7D980704710B554
:105AC00000EBC30C8468B4F5004F1CD3DCF808204D
:105AD00000EBC10EB4F5004F18D3CEF8082084684F
:105AE000B4F5004F15D3CEF80C3000EBC20283683A
:105AF000B3F5004F10D3D1608368B3F5004F0DD3D9
:105B0000CCF8081010BDBCF80420E1E7AEF8042082
:105B1000E5E7AEF80630E8E7D180EDE7ACF8041031
:105B2000F0E708B58368B3F5004F07D300EBC10277
:105B300052685208012A02D0002200E00022A2B9D5
:105B400000EBC102B3F5004F10D352685208B3F511
:105B5000004F0DD308230833A2EBD3020132B2FA6F
:105B600082F2C2F11F02FFF78AFF08BD5288EDE7FB
:105B70000423F0E7F8B5B2F5802F23D30823D21A17
:105B8000CC1D24F0070401EB020C2CF0070CACEB4D
:105B9000040C4FEADC010460A1600023E360BCF563
:105BA000802F11D308230833A1EBD3030133B3FAB9
:105BB00083F3C3F1200EC3F124039B00DE1DF5081F
:105BC000002308E00423DAE70423ECE71A1D002091
:105BD00044F8220001337345F8DB6B00BCF5802FDD
:105BE00032D36360BCF5802F30D300232360BCF533
:105BF000802F2ED3636843F0010363604A1B570074
:105C000026F00703E018BCF5802F27D34760A06873
:105C1000B0F5004F24D3E5502CF00703A444A0684E
:105C2000B0F5004F1ED30020CCF80400A068B0F5FA
:105C3000004F1BD3E25001222046FFF704FF294604
:105C40002046FFF76EFFF8BD6380CBE7002323807B
:105C5000CDE7638843F001036380CFE74780D6E751
:105C6000E552D9E70020ACF80200DFE7E252E2E7B4
:105C7000002070470FB400B583B004A951F8040B9D
:105C80000191FBF727FA03B05DF804EB04B070470D
:105C900001F00701038B23F007030B4303837047D5
:105CA0002DE9F04106460F469046816821B10C6807
:105CB0003CB131B90C4604E00C4602E023462146D3
:105CC0001C4669B14D6843463A463046A847002C09
:105CD000F4D02368002BF2D0002CF0D12346EEE75D
:105CE000BDE8F081038B13F0070303D102680AB10A
:105CF00003207047022B03D0012B06D000207047F1
:105D0000428B002AF8D10420704703680BB10520AC
:105D100070470020704710B504468C46038B002A5C
:105D200007DB03F007035A1F012A0ED9042B36D0D4
:105D300010BDD0E900018CE80300002323606360FC
:105D400001212046FFF7A4FFF2E7D0E900018CE82B
:105D50000300002222606260062B1BD1DCF80030B9
:105D600053B1628B013262831A461B68002BF7D055
:105D7000002AF5D11346F3E702212046FFF788FFFA
:105D80002046FFF7AFFF0028D2D0238B43F020033B
:105D90002383CDE700212046FFF77AFFF0E70021BB
:105DA000FFF776FF2046FFF79DFF0028C0D0238B2A
:105DB00043F020032383BBE750B110B50C4651B12B
:105DC000081D00F0C2F810B9A368032B06D810BD57
:105DD0006FF0150070476FF01500F8E76FF01500D1
:105DE000F5E72DE9F04107460C4616461D461946D3
:105DF000201D00F0C1F828B180462B4632462146CE
:105E00003846C047BDE8F0812DE9F04180460C4698
:105E100017461E4604E033463A464046FFF7E1FF88
:105E2000216831B10D68256063688B42F3D16560EC
:105E3000F1E7BDE8F08108B5EFF311824FF0200CD7
:105E40008CF31288BFF36F8F41610121FBF772F968
:105E500008BD034670B181B10A688AB14A6892B13F
:105E60000020186058609860D86018615861986187
:105E7000196170476FF0150070476FF0150070479B
:105E80006FF0150070476FF01500704770B505464C
:105E90000E46FFF791FF041E2EDBEFF31182202345
:105EA00083F31288BFF36F8FB5F818C00CF0070C9E
:105EB0006B8B4FF6FF718B422CD06446BCF1020F06
:105EC00008D0BCF1060F19D8DFE80CF01E1818181E
